:020000040000fa
:080000000002040000000000f2
:020000040000fa
:040008005605000099
:020000040000fa
:04000c0020030000cd
:020000040000fa
:040010006203000087
:020000040000fa
:0400140040030000a5
:020000040000fa
:04001800820300005f
:020000040000fa
:04001c005605000085
:020000040000fa
:040020005605000081
:020000040000fa
:04002400560500007d
:020000040000fa
:040028005605000079
:020000040000fa
:04002c005605000075
:020000040000fa
:04003000d8030000f1
:020000040000fa
:0400340002050000c1
:020000040000fa
:040038009004000030
:020000040000fa
:04003c005605000065
:020000040000fa
:040040005605000061
:020000040000fa
:04004400cc040000e8
:020000040000fa
:04004800a20300000f
:020000040000fa
:04004c005605000055
:020000040000fa
:040050005605000051
:020000040000fa
:040054005c04000048
:020000040000fa
:040058003e04000062
:020000040000fa
:04005c00fe0300009f
:020000040000fa
:04006000ae040000ea
:020000040000fa
:04006400560500003d
:020000040000fa
:040068005605000039
:020000040000fa
:04006c005605000035
:020000040000fa
:040070005605000031
:020000040000fa
:04007400560500002d
:020000040000fa
:040078005605000029
:020000040000fa
:04007c005605000025
:020000040000fa
:040080005605000021
:020000040000fa
:04008400560500001d
:020000040000fa
:040088005605000019
:020000040000fa
:04008c005605000015
:020000040000fa
:040090005605000011
:020000040000fa
:04009400560500000d
:020000040000fa
:040098005605000009
:020000040000fa
:04009c005605000005
:020000040000fa
:0400a0005605000001
:020000040000fa
:0400a40056050000fd
:020000040000fa
:0400a80056050000f9
:020000040000fa
:0400ac0056050000f5
:020000040000fa
:0400b00056050000f1
:020000040000fa
:0400b40056050000ed
:020000040000fa
:0400b80056050000e9
:020000040000fa
:0400bc0056050000e5
:020000040000fa
:0400c00056050000e1
:020000040000fa
:0400c40056050000dd
:020000040000fa
:0400c80056050000d9
:020000040000fa
:0400cc0056050000d5
:020000040000fa
:0400d00056050000d1
:020000040000fa
:0400d40056050000cd
:020000040000fa
:0400d80056050000c9
:020000040000fa
:0400dc0056050000c5
:020000040000fa
:0400e00056050000c1
:020000040000fa
:0400e40056050000bd
:020000040000fa
:0400e80056050000b9
:020000040000fa
:0400ec0056050000b5
:020000040000fa
:0400f00056050000b1
:020000040000fa
:0400f40056050000ad
:020000040000fa
:0400f80056050000a9
:020000040000fa
:0400fc0056050000a5
:020000040000fa
:0401000056050000a0
:020000040000fa
:04010400560500009c
:020000040000fa
:040108005605000098
:020000040000fa
:04010c005605000094
:020000040000fa
:040110005605000090
:020000040000fa
:04011400560500008c
:020000040000fa
:040118005605000088
:020000040000fa
:04011c005605000084
:020000040000fa
:04012000380500009e
:020000040000fa
:04012400560500007c
:020000040000fa
:040128005605000078
:020000040000fa
:04012c007a04000051
:020000040000fa
:040130005605000070
:020000040000fa
:04013400560500006c
:020000040000fa
:040138005605000068
:020000040000fa
:04013c005605000064
:020000040000fa
:040140005605000060
:020000040000fa
:04014400560500005c
:020000040000fa
:040148005605000058
:020000040000fa
:04014c005605000054
:020000040000fa
:040150005605000050
:020000040000fa
:04015400560500004c
:020000040000fa
:040158005605000048
:020000040000fa
:04015c005605000044
:020000040000fa
:040160005605000040
:020000040000fa
:04016400560500003c
:020000040000fa
:040168005605000038
:020000040000fa
:04016c005605000034
:020000040000fa
:040170005605000030
:020000040000fa
:04017400560500002c
:020000040000fa
:040178005605000028
:020000040000fa
:04017c005605000024
:020000040000fa
:040180005605000020
:020000040000fa
:04018400560500001c
:020000040000fa
:040188005605000018
:020000040000fa
:04018c005605000014
:020000040000fa
:040190005605000010
:020000040000fa
:04019400560500000c
:020000040000fa
:040198005605000008
:020000040000fa
:04019c005605000004
:020000040000fa
:0401a0005605000000
:020000040000fa
:0401a40056050000fc
:020000040000fa
:0401a80056050000f8
:020000040000fa
:0401ac0056050000f4
:020000040000fa
:0401b00056050000f0
:020000040000fa
:0401b40056050000ec
:020000040000fa
:0401b80056050000e8
:020000040000fa
:0401bc0056050000e4
:020000040000fa
:0401c00056050000e0
:020000040000fa
:0401c40056050000dc
:020000040000fa
:0401c80056050000d8
:020000040000fa
:0401cc0056050000d4
:020000040000fa
:0401d00056050000d0
:020000040000fa
:0401d40056050000cc
:020000040000fa
:0401d80056050000c8
:020000040000fa
:0401dc0056050000c4
:020000040000fa
:0401e00056050000c0
:020000040000fa
:0401e40056050000bc
:020000040000fa
:0401e80056050000b8
:020000040000fa
:0401ec0056050000b4
:020000040000fa
:0401f00056050000b0
:020000040000fa
:0401f40056050000ac
:020000040000fa
:0401f80056050000a8
:020000040000fa
:0401fc0056050000a4
:020000040000fa
:040208005605000097
:020000040000fa
:04020c0020030000cb
:020000040000fa
:040210006203000085
:020000040000fa
:0402140040030000a3
:020000040000fa
:04021800820300005d
:020000040000fa
:04021c005605000083
:020000040000fa
:04022000560500007f
:020000040000fa
:04022400560500007b
:020000040000fa
:040228005605000077
:020000040000fa
:04022c005605000073
:020000040000fa
:04023000d8030000ef
:020000040000fa
:0402340002050000bf
:020000040000fa
:04023800900400002e
:020000040000fa
:04023c005605000063
:020000040000fa
:04024000560500005f
:020000040000fa
:04024400cc040000e6
:020000040000fa
:04024800a20300000d
:020000040000fa
:04024c005605000053
:020000040000fa
:04025000560500004f
:020000040000fa
:040254005c04000046
:020000040000fa
:040258003e04000060
:020000040000fa
:04025c00fe0300009d
:020000040000fa
:04026000ae040000e8
:020000040000fa
:04026400560500003b
:020000040000fa
:040268005605000037
:020000040000fa
:04026c005605000033
:020000040000fa
:04027000560500002f
:020000040000fa
:04027400560500002b
:020000040000fa
:040278005605000027
:020000040000fa
:04027c005605000023
:020000040000fa
:04028000560500001f
:020000040000fa
:04028400560500001b
:020000040000fa
:040288005605000017
:020000040000fa
:04028c005605000013
:020000040000fa
:04029000560500000f
:020000040000fa
:04029400560500000b
:020000040000fa
:040298005605000007
:020000040000fa
:04029c005605000003
:020000040000fa
:0402a00056050000ff
:020000040000fa
:0402a40056050000fb
:020000040000fa
:0402a80056050000f7
:020000040000fa
:0402ac0056050000f3
:020000040000fa
:0402b00056050000ef
:020000040000fa
:0402b40056050000eb
:020000040000fa
:0402b80056050000e7
:020000040000fa
:0402bc0056050000e3
:020000040000fa
:0402c00056050000df
:020000040000fa
:0402c40056050000db
:020000040000fa
:0402c80056050000d7
:020000040000fa
:0402cc0056050000d3
:020000040000fa
:0402d00056050000cf
:020000040000fa
:0402d40056050000cb
:020000040000fa
:0402d80056050000c7
:020000040000fa
:0402dc0056050000c3
:020000040000fa
:0402e00056050000bf
:020000040000fa
:0402e40056050000bb
:020000040000fa
:0402e80056050000b7
:020000040000fa
:0402ec0056050000b3
:020000040000fa
:0402f00056050000af
:020000040000fa
:0402f40056050000ab
:020000040000fa
:0402f80056050000a7
:020000040000fa
:0402fc0056050000a3
:020000040000fa
:04030000560500009e
:020000040000fa
:04030400560500009a
:020000040000fa
:040308005605000096
:020000040000fa
:04030c005605000092
:020000040000fa
:04031000560500008e
:020000040000fa
:04031400560500008a
:020000040000fa
:040318005605000086
:020000040000fa
:04031c005605000082
:020000040000fa
:04032000380500009c
:020000040000fa
:04032400560500007a
:020000040000fa
:040328005605000076
:020000040000fa
:04032c007a0400004f
:020000040000fa
:04033000560500006e
:020000040000fa
:04033400560500006a
:020000040000fa
:040338005605000066
:020000040000fa
:04033c005605000062
:020000040000fa
:04034000560500005e
:020000040000fa
:04034400560500005a
:020000040000fa
:040348005605000056
:020000040000fa
:04034c005605000052
:020000040000fa
:04035000560500004e
:020000040000fa
:04035400560500004a
:020000040000fa
:040358005605000046
:020000040000fa
:04035c005605000042
:020000040000fa
:04036000560500003e
:020000040000fa
:04036400560500003a
:020000040000fa
:040368005605000036
:020000040000fa
:04036c005605000032
:020000040000fa
:04037000560500002e
:020000040000fa
:04037400560500002a
:020000040000fa
:040378005605000026
:020000040000fa
:04037c005605000022
:020000040000fa
:04038000560500001e
:020000040000fa
:04038400560500001a
:020000040000fa
:040388005605000016
:020000040000fa
:04038c005605000012
:020000040000fa
:04039000560500000e
:020000040000fa
:04039400560500000a
:020000040000fa
:040398005605000006
:020000040000fa
:04039c005605000002
:020000040000fa
:0403a00056050000fe
:020000040000fa
:0403a40056050000fa
:020000040000fa
:0403a80056050000f6
:020000040000fa
:0403ac0056050000f2
:020000040000fa
:0403b00056050000ee
:020000040000fa
:0403b40056050000ea
:020000040000fa
:0403b80056050000e6
:020000040000fa
:0403bc0056050000e2
:020000040000fa
:0403c00056050000de
:020000040000fa
:0403c40056050000da
:020000040000fa
:0403c80056050000d6
:020000040000fa
:0403cc0056050000d2
:020000040000fa
:0403d00056050000ce
:020000040000fa
:0403d40056050000ca
:020000040000fa
:0403d80056050000c6
:020000040000fa
:0403dc0056050000c2
:020000040000fa
:0403e00056050000be
:020000040000fa
:0403e40056050000ba
:020000040000fa
:0403e80056050000b6
:020000040000fa
:0403ec0056050000b2
:020000040000fa
:0403f00056050000ae
:020000040000fa
:0403f40056050000aa
:020000040000fa
:0403f80056050000a6
:020000040000fa
:0403fc0056050000a2
:020000040000fa
:100400002f9320000e7f22000e01880000000000c4
:10041000000020000000e000020032000001200087
:100420002002880014000700a20107000000e0007d
:1004300003003a004035210001002000020037008f
:100440000000200001002000810f70000100320038
:1004500014000700000020000000e000020032004d
:100460000000020000000000c00e020000000000ba
:100470000040da000000fe004440a90040082000cf
:100480000000e000030032000020200090018800fe
:100490004440a800000006008a1f78008b1f7800e7
:1004a00000000600a1028800800478000000eb0034
:1004b0001f003700e284440054a0b4009905ba003c
:1004c000e284440054a0b4009906ba00e2844400d7
:1004d00054a0b4000006eb00476fde00fd07b20039
:1004e000ae018800636ce10003003a00eaff0700f8
:1004f0000000eb000e003700606ce10008003a00dd
:10050000004deb000a05e800020039003420ec0041
:100510000af0a0008b05e900f9ff3e000400370057
:100520006168e100010032000086eb000b0007006b
:1005300019c7ba001905ba000e04e00003003a001a
:100540000a00e000dbff3a0000000600fe07b200f0
:10055000ae0288008a047800f5ff37000cd0a300b3
:10056000e20f4d001c00390089027800354dba00b9
:100570000a05e800020039003420ec000af0a0006f
:100580008b05e9000f003200254dba000a05e8008e
:10059000020039003420ec000af0a0008b05e900cd
:1005a000080032000c00e0000600320015cdba0051
:1005b0000a05e800020039003420ec000af0a0002f
:1005c0008b05e9008984e80054a0b4000b00e0002a
:1005d000e2ff3a00000006009902ba00055d7800cb
:1005e0008b05e900f7ff3200c82ade00055d7800c0
:1005f0008b05e900f3ff32000c00e000f1ff320050
:1006000019ddba00eeff3700c0280400000000002a
:10061000762b0400000000004018040000000000d9
:100620009018040000000000782904000000000079
:10063000302a040000000000a00e040000000000aa
:100640003600f800809fbe00829fbe00849fbe00df
:10065000869fbe000000fa008020a9000000eb0089
:10066000e41407000080fa004f03be004f02be00f2
:100670004f01be004f00be003600f90000400600ea
:100680003600f800809fbe00829fbe00849fbe009f
:10069000869fbe000000fa00dd1407008040a9001c
:1006a00010002000d31407000080fa004f03be00a2
:1006b0004f02be004f01be004f00be003600f900e1
:1006c000004006003600f800809fbe00829fbe00fa
:1006d000849fbe00869fbe000000fa008060a900d3
:1006e00020002000c31407000080fa004f03be0062
:1006f0004f02be004f01be004f00be003600f900a1
:10070000004006003600f800809fbe00829fbe00b9
:10071000849fbe00869fbe000000fa008080a90072
:1007200030002000b31407000080fa004f03be0021
:100730004f02be004f01be004f00be003600f90060
:10074000004006003600f800809fbe00829fbe0079
:10075000849fbe00869fbe000000fa009046800085
:100760000000e0000200320090468000000001001e
:10077000d0922000104078008040e800d092200005
:1007800001487800c092200011c0b30001487800f1
:100790008500a9000080fa004f03be004f02be0092
:1007a0004f01be004f00be003600f90000400600b9
:1007b0003600f800809fbe00829fbe00849fbe006e
:1007c000869fbe000000fa002004800064006000e4
:1007d0000000e00002003200071007008440a9007a
:1007e0000080fa004f03be004f02be004f01be0062
:1007f0004f00be003600f900004006003600f80049
:10080000809fbe00829fbe00849fbe00869fbe0068
:100810003200f8003400f80010002000a001880029
:1008200000202000900188000000fa0021048000d0
:1008300000002200008060000000e000060032009e
:10084000b04680000000e00002003200b0468000a8
:100850000000010085a0a9000080fa003400f90022
:100860003200f9004f03be004f02be004f01be0030
:100870004f00be003600f900004006003600f800c8
:10088000809fbe00829fbe00849fbe00869fbe00e8
:100890000000fa0040468000000001000080fa00dd
:1008a0004f03be004f02be004f01be004f00be000e
:1008b0003600f900004006003600f800809fbe00b8
:1008c000829fbe00849fbe00869fbe000000fa008b
:1008d00050468000000001000080fa004f03be0077
:1008e0004f02be004f01be004f00be003600f900af
:1008f00000400600801f78000000fa001011800000
:10090000620060000000e000010032002222a90025
:100910008c20a9000080fa004f00780000400600fb
:100920003600f800809fbe00829fbe00849fbe00fc
:10093000869fbe000000fa00e70007008480a9003f
:100940000080fa004f03be004f02be004f01be0000
:100950004f00be003600f900004006003600f800e7
:10096000809fbe00829fbe00849fbe00869fbe0007
:100970000000fa00db00070085c0a9000080fa0033
:100980004f03be004f02be004f01be004f00be002d
:100990003600f900004006003600f800809fbe00d7
:1009a000829fbe00849fbe00869fbe000000fa00aa
:1009b000e04680000000e00002003200e0468000d7
:1009c00000000100f0922000104078008040e80014
:1009d000f092200001487800e092200011c0b3009e
:1009e0000148780084e0a9000080fa004f03be00af
:1009f0004f02be004f01be004f00be003600f9009e
:100a0000004006003600f800809fbe00829fbe00b6
:100a1000849fbe00869fbe000000fa00f046800062
:100a20000000e00002003200f046800000000100fb
:100a300010932000104078008040e80010932000c0
:100a4000014878000093200011c0b30001487800ed
:100a50008460a9000080fa004f03be004f02be0070
:100a60004f01be004f00be003600f90000400600f6
:100a70003600f800809fbe00829fbe00849fbe00ab
:100a8000869fbe000000fa00290c07008bc0a90059
:100a90000080fa004f03be004f02be004f01be00af
:100aa0004f00be003600f900004006000040da00aa
:100ab0000000fe00000005006022b80006022000d1
:100ac0000000d0008180d2000482d2008582d20052
:100ad0000000a0000202520083825a00030031008d
:100ae0000202420083824a000000a1000603e900de
:080af000f3ff3a0000000600cc
:020000040000fa
:100af8006c6900006674000020610000742000002a
:100b0800746f000070200000666c00006f6f0000ba
:100b1800722000002020000020200000200000009b
:100b28006c690000667400002061000074200000f9
:100b3800626f0000747400006f6d00002066000092
:100b48006c6f00006f720000200000006c690000ec
:100b5800667400002062000065740000776500007c
:100b6800656e0000206600006c6f00006f72000068
:100b78007320000020000000466c00006f6f00002a
:100b88007220000053770000697400006368000059
:100b980020460000617500006c74000020210000f0
:100ba8002121000021200000200000000d0000008d
:100bb800534600002c31000000530000522c000066
:100bc80033320000303000003030000030000000c8
:100bd800534e00002c4a0000756c0000696100004b
:100be8006e4200004c450000005200002c3100000d
:080bf8000041000000000000b4
:020000040000fa
:100c00000000fa0010002000001c88000080200076
:100c1000201c88000080eb00301c88008021200010
:100c2000401c880000802300501c880000002f001a
:100c3000601c88008e23ef009023ef008480a900c1
:100c40009480a80080202000901c880000e02200f2
:100c5000a01c88009623ef009823ef009a23ef0052
:100c600085c0a90095c0a8009c23ef009e23ef003b
:100c7000a023ef00a223ef00a423ef008700a90028
:100c8000a623ef00a823ef00aa23ef00ac23ef0078
:100c9000ae23ef008880a900b023ef00b223ef005d
:100ca000b423ef00b623ef00b823ef0089c0a900fa
:100cb000ba23ef00bc23ef00be23ef00c023ef00f8
:100cc000c223ef008ba0a9008803a8009203a8000c
:100cd0000080fa00000006000000fa000080fa0020
:100ce000000006000000fa000080fa000000060084
:100cf0000000fa000080fa00000006000000fa0080
:100d00003104800000102000008060000000e0003e
:100d100002003200f6ff07008700a9000080fa00f9
:100d2000000006000000fa000080fa000000060043
:100d30000000fa0040048000700060000000e00045
:100d400002003200f7ff07008880a9000080fa0047
:100d5000000006000000fa000080fa000000060013
:100d60000000fa00410480000000240000806000c0
:100d70000000e00002003200f6ff070089c0a90071
:100d80000080fa00000006000000fa000080fa006f
:100d9000000006000000fa0051048000000022005c
:100da000008060000000e00002003200f6ff070053
:100db0008ba0a9000080fa00000006000200fa00e3
:100dc000000f78001e007800e20f50001200320081
:100dd000e20f500005003e000000e0000a00320073
:100de000e10f50000a00320013003700e40f5000fa
:100df0000d003200e40f500009003900e50f5000eb
:100e00000b0032000c0037008803a8000a003700ee
:100e10009203a800080037009c03a80006003700d2
:100e2000a603a80004003700b003a80002003700a2
:100e3000ba03a800000000000080fa0000000600cd
:100e40000200fa00000f78001e007800e20f500048
:100e500012003200e20f500005003e000000e000ea
:100e60000a003200e10f50000a0032001300370080
:100e7000e40f50000d003200e40f5000090039006b
:100e8000e50f50000b0032000c0037008803a9006a
:100e90000a0037009203a900080037009c03a9004c
:100ea00006003700a603a90004003700b003a9001c
:100eb00002003700ba03a900000000000080fa0019
:100ec000000006000400fa00000f780011079800e7
:100ed0001e007800e20f500014003200e20f5000b4
:100ee00005003e000000e0000a003200e10f500063
:100ef0000b00320019003700e40f500011003200df
:100f0000e40f50000c003900e50f500010003200d3
:100f1000120037009e009000811c88000f003700ef
:100f20009e009000d11c88000c0037009e009000ad
:100f3000211d8800090037009e009000711d880067
:100f4000060037009e009000c11d88000300370096
:100f50009e009000111e8800000000000080fa0032
:100f6000000006000200fa00000f78001e00780062
:100f7000e20f500012003200e20f500005003e0068
:100f80000000e0000a003200e10f50000a003200c9
:100f900013003700e40f50000d003200e40f500042
:100fa00009003900e50f50000b0032000c0037003b
:100fb000801c80000b003700d01c80000900370027
:100fc000201d800007003700701d800005003700dd
:100fd000c01d800003003700101e80000100370094
:100fe0000000eb000080fa00000006000200fa009a
:100ff000000f78001e007800e20f5000120032004f
:10100000e20f500005003e000000e0000a00320040
:10101000e10f50000a00320013003700e40f5000c7
:101020000d003200e40f500009003900e50f5000b8
:101030000b0032000c0037008903a8000a003700bb
:101040009303a800080037009d03a800060037009e
:10105000a703a80004003700b103a800020037006e
:10106000bb03a800000000000080fa00000006009a
:101070000400fa00000f7800110798001e007800a5
:10108000e20f500014003200e20f500005003e0055
:101090000000e0000a003200e10f50000b003200b7
:1010a00019003700e40f500011003200e40f500027
:1010b0000c003900e50f500010003200120037001c
:1010c0009e009000611c88000f0037009e00900079
:1010d000b11c88000c0037009e009000011d8800a4
:1010e000090037009e009000511d8800060037005f
:1010f0009e009000a11d8800030037009e00900014
:10110000f11d8800000000000080fa0000000600c9
:101110000400fa00000f7800110798001e00780004
:10112000e20f500014003200e20f500005003e00b4
:101130000000e0000a003200e10f50000b00320016
:1011400019003700e40f500011003200e40f500086
:101150000c003900e50f500010003200120037007b
:101160009e009000711c88000f0037009e009000c8
:10117000c11c88000c0037009e009000111d8800e3
:10118000090037009e009000611d880006003700ae
:101190009e009000b11d8800030037009e00900063
:1011a000011e8800000000000080fa000000060018
:1011b0000200fa00000f78001e007800e20f5000d5
:1011c00022003200e20f500005003e000000e00067
:1011d0000a003200e10f50001200320043003700d5
:1011e000e40f50002d003200e40f500021003900c0
:1011f000e50f5000330032003c003700401c8000f7
:101200004800de00614060000080fb0000f0a700a5
:101210000000ea000000ea004f00de000040780015
:1012200033003700901c80004800de006140600001
:101230000080fb0000f0a7000000ea000000ea00c8
:101240004f00de000040780029003700e01c8000dd
:101250004800de00614060000080fb0000f0a70055
:101260000000ea000000ea004f00de0000407800c5
:101270001f003700301d80004800de006140600024
:101280000080fb0000f0a7000000ea000000ea0078
:101290004f00de000040780015003700801d800000
:1012a0004800de00614060000080fb0000f0a70005
:1012b0000000ea000000ea004f00de000040780075
:1012c0000b003700d01d80004800de006140600048
:1012d0000080fb0000f0a7000000ea000000ea0028
:1012e0004f00de0000407800010037000040eb00b6
:1012f0000080fa00000006000200fa00000f7800eb
:101300001e007800e20f500022003200e20f500071
:1013100005003e000000e0000a003200e10f50002e
:101320001200320043003700e40f50002d0032005d
:10133000e40f500021003900e50f50003300320067
:101340003c003700501c80004f00de000040780059
:101350000080fb0000f0a7000000ea000000ea00a7
:101360004f00de000040780033003700a01c8000f2
:101370004f00de00004078000080fb0000f0a70076
:101380000000ea000000ea004f00de0000407800a4
:1013900029003700f01c80004f00de00004078007c
:1013a0000080fb0000f0a7000000ea000000ea0057
:1013b0004f00de00004078001f003700401d800015
:1013c0004f00de00004078000080fb0000f0a70026
:1013d0000000ea000000ea004f00de000040780054
:1013e00015003700901d80004f00de00004078009f
:1013f0000080fb0000f0a7000000ea000000ea0007
:101400004f00de00004078000b003700e01d800038
:101410004f00de00004078000080fb0000f0a700d5
:101420000000ea000000ea004f00de000040780003
:10143000010037000040eb000080fa0000000600c9
:101440000200fa00000f78001e007800e20f500042
:1014500022003200e20f500005003e000000e000d4
:101460000a003200e10f5000120032004300370042
:10147000e40f50002d003200e40f5000210039002d
:10148000e50f5000330032003c003700501c800054
:101490004700de00614060000080fb0000f0a70014
:1014a0000000ea000000ea004f00de000040780083
:1014b00033003700a01c80004700de006140600060
:1014c0000080fb0000f0a7000000ea000000ea0036
:1014d0004f00de000040780029003700f01c80003b
:1014e0004700de00614060000080fb0000f0a700c4
:1014f0000000ea000000ea004f00de000040780033
:101500001f003700401d80004700de006140600082
:101510000080fb0000f0a7000000ea000000ea00e5
:101520004f00de000040780015003700901d80005d
:101530004700de00614060000080fb0000f0a70073
:101540000000ea000000ea004f00de0000407800e2
:101550000b003700e01d80004700de0061406000a6
:101560000080fb0000f0a7000000ea000000ea0095
:101570004f00de0000407800010037000040eb0023
:101580000080fa00000006000200fa00000f780058
:101590001e007800e20f500022003200e20f5000df
:1015a00005003e000000e0000a003200e10f50009c
:1015b0001200320043003700e40f50002d003200cb
:1015c000e40f500021003900e50f500033003200d5
:1015d0003c003700501c80004600de006140600087
:1015e0000080fb0000f0a7000000ea000000ea0015
:1015f0004f00de000040780033003700a01c800060
:101600004600de00614060000080fb0000f0a700a3
:101610000000ea000000ea004f00de000040780011
:1016200029003700f01c80004600de0061406000a9
:101630000080fb0000f0a7000000ea000000ea00c4
:101640004f00de00004078001f003700401d800082
:101650004600de00614060000080fb0000f0a70053
:101660000000ea000000ea004f00de0000407800c1
:1016700015003700901d80004600de0061406000cc
:101680000080fb0000f0a7000000ea000000ea0074
:101690004f00de00004078000b003700e01d8000a6
:1016a0004600de00614060000080fb0000f0a70003
:1016b0000000ea000000ea004f00de000040780071
:1016c000010037000040eb000080fa000000060037
:1016d0000200fa00000f78001e007800e20f5000b0
:1016e00022003200e20f500005003e000000e00042
:1016f0000a003200e10f50001200320043003700b0
:10170000e40f50002d003200e40f5000210039009a
:10171000e50f5000330032003c003700501c8000c1
:101720004500de00614060000080fb0000f0a70083
:101730000000ea000000ea004f00de0000407800f0
:1017400033003700a01c80004500de0061406000cf
:101750000080fb0000f0a7000000ea000000ea00a3
:101760004f00de000040780029003700f01c8000a8
:101770004500de00614060000080fb0000f0a70033
:101780000000ea000000ea004f00de0000407800a0
:101790001f003700401d80004500de0061406000f2
:1017a0000080fb0000f0a7000000ea000000ea0053
:1017b0004f00de000040780015003700901d8000cb
:1017c0004500de00614060000080fb0000f0a700e3
:1017d0000000ea000000ea004f00de000040780050
:1017e0000b003700e01d80004500de006140600016
:1017f0000080fb0000f0a7000000ea000000ea0003
:101800004f00de0000407800010037000040eb0090
:101810000080fa00000006000200fa00000f7800c5
:101820001e007800e20f500022003200e20f50004c
:1018300005003e000000e0000a003200e10f500009
:101840001200320043003700e40f50002d00320038
:10185000e40f500021003900e50f50003300320042
:101860003c003700501c80004300de0061406000f7
:101870000080fb0000f0a7000000ea000000ea0082
:101880004f00de000040780033003700a01c8000cd
:101890004300de00614060000080fb0000f0a70014
:1018a0000000ea000000ea004f00de00004078007f
:1018b00029003700f01c80004300de00614060001a
:1018c0000080fb0000f0a7000000ea000000ea0032
:1018d0004f00de00004078001f003700401d8000f0
:1018e0004300de00614060000080fb0000f0a700c4
:1018f0000000ea000000ea004f00de00004078002f
:1019000015003700901d80004300de00614060003c
:101910000080fb0000f0a7000000ea000000ea00e1
:101920004f00de00004078000b003700e01d800013
:101930004300de00614060000080fb0000f0a70073
:101940000000ea000000ea004f00de0000407800de
:10195000010037000040eb000080fa0000000600a4
:101960000200fa00000f78001e007800e20f50001d
:1019700022003200e20f500005003e000000e000af
:101980000a003200e10f500012003200430037001d
:10199000e40f50002d003200e40f50002100390008
:1019a000e50f5000330032003c003700501c80002f
:1019b0004400de00614060000080fb0000f0a700f2
:1019c0000000ea000000ea004f00de00004078005e
:1019d00033003700a01c80004400de00614060003e
:1019e0000080fb0000f0a7000000ea000000ea0011
:1019f0004f00de000040780029003700f01c800016
:101a00004400de00614060000080fb0000f0a700a1
:101a10000000ea000000ea004f00de00004078000d
:101a20001f003700401d80004400de006140600060
:101a30000080fb0000f0a7000000ea000000ea00c0
:101a40004f00de000040780015003700901d800038
:101a50004400de00614060000080fb0000f0a70051
:101a60000000ea000000ea004f00de0000407800bd
:101a70000b003700e01d80004400de006140600084
:101a80000080fb0000f0a7000000ea000000ea0070
:101a90004f00de0000407800010037000040eb00fe
:101aa0000080fa00000006000000fa004023a900b0
:101ab0000080fa00000006000200fa00000f780023
:101ac0000080fa00000006000400fa0010079800e9
:101ad0001e0090008000eb00e200200003002000c8
:101ae000820f5000838f58003d003e0000600100cf
:101af0000e003700100037001200370014003700c6
:101b000016003700180037001a0037001c00370095
:101b10001e00370020003700220037002400370065
:101b200026003700280037002a00370001188000ff
:101b3000010f78002b00370011188000010f78008a
:101b40002800370021188000010f78002500370099
:101b500031188000010f7800220037004118800002
:101b6000010f78001f00370051188000010f780026
:101b70001c00370061188000010f78001900370041
:101b800071188000010f780016003700811880005e
:101b9000010f78001300370091188000010f7800c2
:101ba00010003700a1188000010f78000d003700e9
:101bb000b1188000010f78000a003700c1188000ba
:101bc000010f780007003700d1188000010f78005e
:101bd00004003700e1188000010f78000100370091
:101be000000000001e0078000080fa0000000600df
:101bf0000200fa00004f7800850c070080c7b30090
:101c00009e0c07000040eb009c0c07001e40780073
:101c10009a0c0700870c0700200020002d0f0700fa
:101c20000080fa00000006000200fa00004f780071
:101c3000770c070080c7b300900c070000c4b30006
:101c40008e0c07001e4078008c0c0700790c0700f2
:101c5000800c20001f0f07000080fa000000060023
:101c60000000fa00803e2000090f070080c3b30087
:101c7000dfff070090c3b300ddff0700803e2000b8
:101c8000030f070040c1b300d9ff0700f0c7b3003e
:101c9000d7ff0700f0c5b300d5ff0700401f2000a5
:101ca000fb0e0700c0c6b300d1ff0700800c200068
:101cb000f70e070080c3b300cdff0700401f2000d0
:101cc000f30e0700d0c0b300c9ff0700401f20007b
:101cd000ef0e070010c0b300c5ff07004001200051
:101ce000eb0e070060c0b300c1ff0700401f2000db
:101cf000e70e070000c4b300bdff0700401f20002f
:101d0000e30e07000080fa00000006000200fa005f
:101d1000000f7800040037001e00780010407800a3
:101d20001e0fe800c0ff07001e007800104078007a
:101d30000004e000f8ff3a000080fa00000006000e
:101d40000000fa00601780004300de006140600080
:101d50000004a200614060000080fb0061006000a0
:101d60004300dd00611780000130a1000100700018
:101d7000601788004cff07000080fa000000060092
:101d80000000fa00080f0700803e20000e0c07003c
:101d9000870d07002a0d0700cd0c0700bb0d0700bb
:101da0005e0d0700010d070027060700360e07002d
:101db0004000200040ff07003bff070000ea200032
:101dc000f20c0700f90c0700790a07008d0a0700da
:101dd00010458000a50a0700001020009d0a07009a
:101de000420907005e090700e04580007609070008
:101df000001020006e090700c482a900d442a90087
:101e0000d482a900d5e2a900e402a900e4a2a900b5
:101e1000e4e2a900e4c2a800ec02a800ec22a800b9
:101e2000ec42a800ec62a800ec82a900eca2a90098
:101e3000ecc2a800ece2a900ed02a900ed82a80026
:101e4000f4e2a800f5c2a900f5e2a90084ff0700aa
:101e5000400120008e0e0700103a8000000178003b
:101e60000260a1006004200071052000237420009e
:101e700080497800814978008249780011368000d5
:101e800000fc2f00008060003000b3001036880096
:101e90002135800000fc2f00008060003000b3007e
:101ea00020358800103a8000000178000260a00010
:101eb0006004200071052000237420008049780010
:101ec0008149780082497800dd62a800dd42a900de
:101ed000400620006e0e0700cc07070040062000d9
:101ee0006b0e0700050037000000000003003700fc
:101ef00000000000010037000000000030418000b9
:101f000080007800f00f2000c907070000c8b30068
:101f100037ff0700400120005d0e070020902000e1
:101f20007aff070040012000590e070000ccb300e3
:101f30002fff070040012000550e07004001200040
:101f4000530e070040012000510e070011168000bb
:101f500000042000008060000000e0000b003a0058
:101f60001116800000202000008060000000e000ca
:101f700006003200c057280064ff0700800c2000d4
:101f8000430e0700800c2000410e07001116800050
:101f900000202000008060000000e00007003a0000
:101fa0001116800000042000008060000000e000a6
:101fb000020032004059280054ff0700800c200026
:101fc000330e070011168000002020000080600002
:101fd0000000e0000700320011168000000420001d
:101fe000008060000000e00002003200a05a2800db
:101ff00046ff0700800c2000250e07001116800008
:1020000000202000008060000000e00007003a008f
:102010001116800000042000008060000000e00035
:1020200002003a00005c280038ff07004001200051
:10203000170e070040012000150e07004000200089
:10204000a1fe0700b1aa2a000100b8004208de0084
:102050008002b00070418800300020009afe070026
:10206000c11220000180b90000007800704588008e
:102070002000200094fe0700b045880010002000da
:1020800091fe0700b1aa2a000100b8004208de0054
:102090008002b000104588000000eb008afe0700b7
:1020a000404088006000200087fe07000040880054
:1020b000d116800000002400008060000000e000d5
:1020c00001003a007628ef00d116800000002400bd
:1020d000008060000000e0000200320010002000dc
:1020e000b043880010458000e0090700e4a2a90081
:1020f0005116800000002100008060000000e00018
:102100002000320051168000000022000080600094
:102110000000e0001b003a001116800000022000c1
:10212000008060000000e0000d003200f040800000
:10213000e10f50000a003a00c0408000e10f50005b
:1021400007003a001828ef0020418000ea0f5000f5
:1021500003003c00204180000000e800204188008e
:1021600020418000e90f500006003400e4a2a900dd
:10217000ecc2a8001e28ef002428ef001000200069
:10218000804188005116800000002100008060001e
:102190000000e0000900320051168000000022001b
:1021a000008060000000e00004003a00e4a2a90002
:1021b000ecc2a9001000200090418800d0408000af
:1021c0000000e0000d003200804080000000e000d0
:1021d0000a003a001a28ef00a1418000f00f200009
:1021e000808f500003003c00a04180000000e80008
:1021f000a0418800a04180009c090700a141800007
:1022000020062000808f500004003400300620009b
:1022100096090700100020008040880051168000b9
:1022200000002200008060000000e0000500320095
:102230005116800000002100008060000000e000d6
:102240000a00320090168000620060000000e0008a
:102250000600320090418000e10f500003003a0078
:10226000e4a2a90020032000800907005116800085
:1022700000002200008060000000e00010003a0032
:102280005116800000002100008060000000e00086
:102290000b003a00e04080000000e00008003a0037
:1022a000a000200071090700a0002000a0418800c4
:1022b0001028ef00e4a2a8003028ef003228ef0039
:1022c0005116800000002200008060000000e00045
:1022d00025003a00511680000000210000806000b7
:1022e0000000e00020003a00e0408000e10f5000d4
:1022f0001d003a00111680000002200000806000de
:102300000000e0000d00320010418000e10f50009d
:102310000a003a00c04080000000e00007003200e0
:102320001828ef0030418000ea0f500003003c0005
:10233000304180000000e8003041880030418000da
:10234000e90f500008003400a000200047090700f2
:10235000a0002000a04188001028ef00e4a2a800ff
:102360002228ef002628ef00f4e2a800d116800012
:1023700000022000008060000000e0001b0032002e
:102380005116800000002200008060000000e00084
:1023900016003a003a28ef00d04180000000e0002b
:1023a000120032009a0b07000000e0000f0032001c
:1023b0009d0b0700e04180000000e800e04188003c
:1023c000e141800000458000808f5000030035000f
:1023d00010002000d04188003c28ef00d041800050
:1023e000e10f500001003a005016800010178000e5
:1023f000620060000000e00001003200ece2a80092
:1024000010178000620060000000e00001003a0048
:10241000ece2a900d0168000d016800011168000d2
:1024200000022000008060000000e00001003a008f
:102430004a28ef00c2a2a800c2c2a900101680005c
:102440004600de00614060000004e00006003a0043
:10245000c2e2a900101680004700de006140600063
:102460000004e00007003200204280000000e0008d
:1024700004003a00100020002042880010002000d4
:1024800040428800c2a2a900101680004500de006c
:10249000614060000004e0000a003a00111680006c
:1024a00000042000008060000000e000080032000e
:1024b0001116800000082000008060000000e0008d
:1024c000030032004428ef004a28ef004828ef00bc
:1024d000d0168000d0168000a90b0700e10f500035
:1024e00081fe3a00ac0b0700100020002044880059
:1024f0001000200030448800100020005044880064
:102500001000200030438800100020003042880076
:10251000004480000000e800004488001000200013
:1025200010448800a04380000000e800a043880019
:10253000804280000000e80080428800e042800085
:102540000000e800e042880010002000e04388001e
:1025500010002000d040880081428000404580006b
:10256000808f500002003500a628ef005028ef00b1
:10257000e142800070458000808f500003003500ec
:1025800010002000d04288005c28ef00d04280007c
:10259000e10f500002003a00ed02a900ec02a80091
:1025a000d04280000000e00002003a00ed02a800e6
:1025b000ec02a900d116800000002200008060001b
:1025c0000000e000020032005a28ef005c28ef0013
:1025d000a1438000c0458000808f5000120035006c
:1025e0007428ef00c482a800d442a800d5e2a80055
:1025f000d442a800c482a800a01780004e00de00cc
:10260000614060000004a200614060000080fb00a7
:10261000610060004e00dd00a117800001e0a10014
:1026200001007000a017880040428000e10f5000b8
:102630002ffe3a00100020002042880010002000e9
:1026400030428800504280000000e800504288007c
:102650004628ef005142800020458000808f5000c6
:1026600003003c00ec82a8001000200040428800db
:10267000204580008080e80050428000808f50001c
:10268000040034004428ef00204280000000e000f5
:1026900019fe3200ec82a9004a28ef004428ef001e
:0826a0004828ef0015fe370089
:020000040000fa
:1026a800280900000400000082000000ffffff006e
:1026b800ff000000e2080000200000008000000089
:1026c800d00800000200000082000000ffff0000a8
:1026d800cc08000004000000800000002c09000065
:1026e8000200000080000000d20800000200000084
:1026f80080000000d40800000200000080000000f4
:10270800d608000002000000800000001609000042
:102718001200000080000000be0800000e0000004b
:1027280080000000d80800000200000080000000bf
:10273800da08000002000000800000002e090000f6
:102748000200000080000000dc0800000200000019
:102758008000000030090000020000008000000036
:10276800de0800000200000080000000e008000011
:1027780002000000800000000209000014000000b0
:10278800820000005765730073657800204c69006b
:1027980066742000636f20004c7464000000000021
:1027a8000008000096000000800000009608000065
:1027b800280000008200000001006400006400009e
:1027c80028009600002c01002c01230000010000c5
:1027d800b80b010000d007005a00010000190000e2
:1027e80001003200000a00001e0000000100000085
:0427f80000000000dd
:020000040000fa
:1028000000000000000000000000000000000000c8
:1028100000000000000000000000000000000000b8
:1028200000000000000000000000000000000000a8
:102830000000000000000000000000000000000098
:020000040000fa
:103000000000fa009580a9009560a90080002000ca
:10301000001188002222ef00700620004011880075
:1030200060912000204688006091200010468800b2
:10303000f091200000468800f0912000f0458800c3
:10304000c668ef0000842100070007000089210006
:103050002d0007009560a80021e2a8002342a800e7
:103060000080fa00000006000200fa00000f78005d
:103070001e007800404688000080fa00000006002c
:103080000000fa002146800010468000808f50002a
:1030900002003a009580a900190037008580a90038
:1030a0001000370020468000904078008180fb00af
:1030b000211188000000e800204688002146800099
:1030c000f0912000808f500002003a0060912000b3
:1030d000204688002146800010468000808f5000e6
:1030e00006003200111180000020200000806000e6
:1030f0000000e000ebff320001003700000000009c
:103100000080fa00000006000200fa00000f7800bc
:103110001e007800504688000080fa00000006007b
:103120000000fa001e003700f045800031118000d9
:103130008140780001487800f145800070922000bd
:10314000808f500009003200f04580008000e800c8
:1031500000468000808f500004003200f04580005f
:103160000000e800f04588000d003700f1458000c0
:1031700070922000808f500007003a0001468000c6
:10318000f0912000808f500003003200f091200069
:10319000f04588000200370010c0b300c6e8b70051
:1031a00010118000610060000000e000deff3a00c6
:1031b0008560a9000080fa00000006000200fa0005
:1031c0000040eb00004f7800000000000146800046
:1031d000f0458000808f5000fcff320000468000e8
:1031e000104f7800004680000000e800004688008c
:1031f0000146800080922000808f500002003a003b
:10320000f0912000004688001e4078000080fa00ff
:10321000000006000200fa00004f780000000000e5
:103220001c0007000004a2000004e000fcff3a00bc
:10323000104680001e487800104680000000e8001c
:103240001046880011468000f0912000808f5000c9
:1032500002003a0060912000104688009580a80086
:103260000080fa00000006000000fa00014680001d
:10327000f04580000080680000f0a7000000ea0030
:103280000000ea004f00de00004078000080fa00f5
:10329000000006000400fa00214680001107980093
:1032a000114680001e009000808f50000600310003
:1032b0009e00900010468000008050000000e90051
:1032c000000f7800050037009e0090001046800037
:1032d0000080500068004000000f78001e00780059
:1032e00000f0a7000000ea000000ea004f00de0046
:1032f000004078000080fa00000006000000fa009c
:103300001146800020468000808f500009003a005e
:1033100011118000001020000080600000f0a70064
:103320000000ea000000ea004f00de0000407800e4
:10333000010037000040eb000080fa0000000600aa
:103340000400fa00f1458000110798000046800053
:103350009e009000808f5000060031009e0090007b
:10336000004680000080500069004000000f780097
:10337000030037009e00900000468000008f500040
:10338000f00f20009e007800808f50000200360071
:1033900000c0eb00020037001e00780000407800fb
:1033a0000080fa00000006000000fa00e4ff0700b9
:1033b0000080fa00000006000400fa0021468000a8
:1033c00011079800114680001e009000808f500069
:1033d000060031009e0090001046800000805000e2
:1033e0000000e900000f7800050037009e00900003
:1033f000104680000080500068004000000f7800f8
:10340000f00f20009e007800808f500002003600f0
:1034100000c0eb00020037001e007800004078007a
:103420000080fa00000006000000fa00e2ff07003a
:103430000080fa00000006000000fa00afff07005d
:103440000080fa00000006000800fa00200798003b
:1034500031079800baff07000080fb00000f7800da
:103460003e0090009e0f500002003100be00900010
:10347000010f78000000eb001007980009003700ea
:103480004eff0700ae009000804878002e009000ac
:103490000000e800200798001e0090000000e800ef
:1034a000100798001e0090009e0f5000f4ff390096
:1034b0001e0078000080fa00000006000800fa00f4
:1034c0002007980031079800bbff07000080fb0031
:1034d000000f78003e0090009e0f50000200310067
:1034e000be009000010f78000000eb00100798006c
:1034f000090037002e00900010407800ae009000c8
:103500008100e8002107980042ff07001e0090009c
:103510000000e800100798001e0090009e0f500069
:10352000f4ff39001e0078000080fa000000060059
:103530000400fa000000eb00000f780080ff070095
:10354000204798009cff0700304798002e409000cd
:103550000080fb000000e00003003200e90f500093
:1035600003003200040037001e20a00004003700d2
:103570001e00a000020037001e10a0000000000086
:103580003e4090000080fb000000e000030032009d
:10359000e90f500003003200040037001e30a00085
:1035a000020037001e40a000000000001e0078004e
:1035b0000080fa00000006000400fa0010079800de
:1035c000014680001e009000008f4000020037007e
:1035d0009e007800698f5000809220009e00780045
:1035e000808f5000faff3e001e00780010407800e7
:1035f0000080fa00000006000000fa0050ff0700fb
:103600000080fb000000e9004f00de000040780071
:103610000080fa00000006000000fa0066ff0700c4
:103620000080fb000000e9004f00de000040780051
:103630000080fa00000006000000fa00101180006f
:103640000080fa00000006000000fa00500520008b
:10365000303b8800a00a2000303b880027a6a80045
:1036600027e6a9001d0007000004a2000004e000f6
:103670000c00320031318000003020000100700069
:103680003031880050022000203188006050200036
:103690002031880030212000203188002081240042
:1036a00020318800002020004031880027e6a80053
:1036b00027a6a9009bc0a8000080fa000000060011
:1036c0000200fa00004f78001e417800018e2000b1
:1036d000824878000080fa00000006000000fa002e
:1036e000e0c8bf000080fa00000006000400fa00f5
:1036f0001007980031318000000021000080600038
:103700000000e000020032000040eb003a00370009
:10371000313180000030200001007000303188001d
:1037200021318000010f78001e00780000407800f1
:10373000f00007008080fb001e0090005100980000
:1037400021318000010f78001e0078004800de0063
:1037500000407800e70007008080fb001e0090001a
:10376000410098001e00780000407800e10007004a
:103770008080fb001e009000310098002131800005
:10378000010f78001e0078004800de00004078003d
:10379000d80007008080fb001e00900061009800a8
:1037a0001e00780000407800d20007008080fb00f7
:1037b0001e0090002100980021318000010f780048
:1037c0001e0078004800de0000407800c9000700b5
:1037d0008080fb001e009000110098001e00780001
:1037e00000407800c30007008080fb001e009000ae
:1037f0000108780010c0b3000080fa000000060045
:103800000200fa00881f7800000f780051052000a0
:10381000313b8800a10a2000313b880027a6a80080
:1038200027e6a9008bc0a9009bc0a9003131800008
:103830000030200001007000303188001e00780048
:103840005000900000407800930007000080fb00cb
:10385000203188001e007800400090000040780071
:103860008d0007000080fb004804dd001e0078008a
:103870003000900000407800870007000080fb00c7
:1038800008007000203188001e0078006000900061
:1038900000407800800007000080fb004804dd0045
:1038a0001e00780020009000004078007a00070099
:1038b0000080fb0008007000203188001e007800a6
:1038c0001000900000407800730007000080fb00ab
:1038d0004804dd001e0078001000780000407800e9
:1038e0006d0007000080fb00080070002031880098
:1038f00027e6a80027a6a9009bc0a8004f047800cf
:103900000080fa00000006000400fa00100798008a
:103910003131800000002100008060000000e000e4
:10392000020032000040eb002e00370031318000f1
:10393000003020000100700030318800213180000b
:10394000010f78009e0078001e0090005100980042
:1039500021318000010f78001e0078004800de0051
:10396000800078001e009000410098009e007800c2
:10397000f00f2000808060001e0090003100980051
:1039800021318000010f78001e0078004800de0021
:10399000800078001e009000610098009e00780072
:1039a000f00f2000808060001e0090002100980031
:1039b00021318000010f78001e0078004800de00f1
:1039c000800078001e009000110098009e00780092
:1039d000f00f2000808060001e0090000108780039
:1039e00010c0b3000080fa00000006000200fa00d8
:1039f000000f780051052000313b8800a10a20000b
:103a0000313b880027a6a80027e6a9008bc0a900a3
:103a10009bc0a900313180000030200001007000ff
:103a2000303188001e00780050009000203188005e
:103a30001e00780040009000c800dd001e007800e5
:103a40003000900001007000203188001e007800d6
:103a500060009000c800dd001e007800200090008b
:103a600001007000203188001e00780010009000d6
:103a7000c800dd001e007800100078000100700012
:103a80002031880027e6a80027a6a9009bc0a8002f
:103a90000080fa00000006000400fa0020479800a9
:103aa0002e4090008080fb00d0cc2c000008b80095
:103ab0004308de00004078004400dd00004f78003d
:103ac0002e4090000081fb00d0cc2c000010b800ec
:103ad0004308de006a00b9000000780000005100d1
:103ae000004078001e4f70001e4078000080fa00f1
:103af000000006000400fa00204798002e409000c5
:103b00000080fb004400de00004078006a00b9003d
:103b100000007800804078002e4090006f406000e8
:103b200000cf40001e4078000080fa000000060030
:103b30000000fa000080fa00000006000000fa0011
:103b4000ffff37000000fa00ffff37001600fa0001
:103b5000881f78006000b8006011b8003007980036
:103b60004107980052079800630798006000b8006a
:103b70006011b80070079800010f9800120f9800ac
:103b8000230f980004402100051020000400be000f
:103b900002030700008fbe0050052000a10a20008c
:103ba0006d0207001e00be0090020700404798000b
:103bb0004e4090000004a2000004e000010032002a
:103bc000deff07003023220011012000300798009b
:103bd00041079800605625004104200050079800d6
:103be000610798003e009000ce0090000001be00ea
:103bf0001e00be0090020700404798004e40900013
:103c00000084fb005e009000ee0090002200200087
:103c1000030020003e024100ae8249000001be00c8
:103c20000400be00840207000080fb000000640066
:103c300000f0a7000000ea000000ea004f00de00ec
:103c4000404798004e4090000004a2000004e000ad
:103c500001003200b9ff0700440207001e00be0049
:103c60005602070070079800010f980022002000fc
:103c7000030020003e004100ae8049004f020700d3
:103c8000100f9800210f98003e019000ce01900087
:103c90007e0090008e089000800f5100818f5900a7
:103ca00007003a005e019000ee0190001e089000af
:103cb000ae089000800f5100818f59000100320042
:103cc000a0ff07004f0478000080fa000000060003
:103cd0000e00fa000040210001102000af02070092
:103ce000200798003107980050052000a10a200005
:103cf000190207002e009000be0090003b02070052
:103d0000004f98000e4890000004a2000004e0005c
:103d10000100320089ff07006000b800008fbe007c
:103d2000110037002e009000be0090003e014000c0
:103d3000ae8148000200be001e01be003e02070028
:103d4000004f98000e4890000004a2000004e0001c
:103d50000100320079ff070022002000030020004c
:103d60001e0f41005e974900f03f20000100200037
:103d70001e01be00800f5100818f5900e9ff3600ff
:103d8000fa0107006000b800008fbe001200370083
:103d90002e009000be0090003e014000ae81480021
:103da0000200be0005020700500798006107980056
:103db0005e009000ee009000be0f5000ae8f5800e5
:103dc000010032005fff07002200200003002000f6
:103dd0001e0f41005e974900f03f200001002000c7
:103de0001e01be00800f5100818f5900e8ff360090
:103df0000080fa00000006000000fa0053ff0700f0
:103e0000b3ff07000080fa00000006000000fa007f
:103e100000022000101288001000200020128800ec
:103e2000c0002800001288000080fa000000060090
:103e30000400fa00000f780011079800000000004d
:103e400000128000620060000000e000fcff3a0009
:103e50001e007800104078000080fb0040128800af
:103e600000000000011280000002200000806000bd
:103e70000000e000fbff3a00401280008040780024
:103e80001e009000014878000080fa000000060043
:103e90001800fa00100f9800210f9800320f9800b8
:103ea0000000eb00000f78000000eb001007980006
:103eb0000000eb00700798000000eb00000f980076
:103ec00010002000600798001e0890000000e0002d
:103ed00005003a000000eb00500798007000470012
:103ee0002007980004003700ee009000510798006a
:103ef0009e089000210798003e0890000000e00016
:103f000005003a000000eb00400798006e004700f3
:103f10003007980005003700ee0090004107980038
:103f2000be089000310798000000000000128000d9
:103f3000620060000000e000fcff3a001d00370056
:103f400000128000620060000000e00009003a00fa
:103f50002e009000104078000080fb004012880086
:103f6000ae0090005e0090000080400020079800a6
:103f70001e0fe80001128000000220000080600097
:103f80000000e0000b003a00401280008040780002
:103f90003e00900001487800be0090004e00900066
:103fa00000804000300798001e0090000000e800ec
:103fb000100798002e0890009e007800808f500017
:103fc000dfff3900100037000112800000022000de
:103fd000008060000000e0000b003a00401280000a
:103fe000804078003e00900001487800be009000bc
:103ff0004e00900000804000300798001e009000a6
:104000000000e800100798009e0090002e08900025
:10401000808f5000ecff39001e0078000080fa000d
:10402000000006000400fa00204798000e80e80017
:104030008e0078007eff07001e4078000080fa00a6
:10404000000006000600fa00000f78001107980033
:10405000220798002e0190009e0090001e0078001c
:104060008bff07000080fa00000006000000fa0045
:10407000001280000080fa00000006000000fa0034
:10408000103a8000000178000260a1006004200066
:104090007105200023742000804978008149780050
:1040a000824978001136800000fc2f0000806000fb
:1040b0003000b300103688002135800000fc2f004e
:1040c000008060003000b30020358800103a800086
:1040d000000178000260a00060042000710520004b
:1040e0002374200080497800814978008249780053
:1040f00021e2a9002062a90090012000401188005f
:10410000800c2000e20507000111800090ff2f00c5
:1041100000806000001188002002a900800c2000af
:10412000db0507002342a80021e2a800ec42a8001a
:104130000080fa00000006000200fa00004f78003c
:1041400000000000111180000020200000806000ad
:104150000000e000fbff3a001e00fb002011880079
:104160000080fa00000006000200fa00000f78004c
:10417000040037001e007800104078001e0fe80091
:10418000edff07001e007800104078000004e000fa
:10419000f8ff3a000080fa00000006000000fa0074
:1041a0000000000010118000610060000000e000cd
:1041b000fcff320030118000004078000080fa00df
:1041c000000006000800fa00200798003107980058
:1041d0000000eb00000f7800f0ff07002047980078
:1041e0003e0090000000e9009e0f500006003400e1
:1041f0001e007800ae00900000804000ae409000ad
:10420000014878001e0fe8002e409000ea4f500051
:10421000030032002e409000ed4f5000eeff3a00b8
:104220001e007800ae009000008040008040eb004f
:10423000014878000080fa00000006000200fa0041
:10424000000f78001e007800c7ff0700a05d28005f
:10425000c5ff07000080fa00000006000400fa0015
:10426000000f7800110798009e0090001e00780053
:10427000d4ff07000080fa00000006000000fa00ea
:104280007eff0700d962a900d942a900dd62a8001b
:10429000dd42a900400620007d050700c05d280022
:1042a000e6ff07004006200079050700105e2800a1
:1042b000e2ff07004006200075050700c05e2800e9
:1042c000deff07004006200071050700905f280010
:1042d000daff0700401f20006d050700d05f2800af
:1042e000d6ff07000080fa00000006000000fa0078
:1042f00060c02100d00c8800f0012000e00c880094
:1043000000002800f00c880000052000000d880047
:10431000d00c800000407800674060000080fb0007
:10432000c04688000080fa00000006000000fa0085
:104330000080fa00000006000000fa00210480005e
:1043400000042000008060000000e0000200320055
:10435000f6ff070084c0a9000080fa0000000600f4
:104360000000fa00c046800000407800674060000e
:104370000080fb0067006000d20c800081ff2f00ee
:104380008100610001007000d00c88000080fa00fc
:10439000000006000000fa00d10c800080ff2f0012
:1043a00000806000d00c88000080fa000000060049
:1043b0000200fa00000f78009e007800f10c8800df
:1043c0000080fa00000006000200fa00000f7800ea
:1043d0009e007800010d88000080fa0000000600b1
:1043e0000000fa00200480004600de00614060000a
:1043f0000080fb0000f0a7000000ea000000ea00d7
:104400004f00de00004078000080fa000000060047
:104410000400fa00100798001e009000e10f500001
:104420000f003200e10f500003003900e20f50008e
:10443000150032001e003700d00c80004400de0062
:10444000614060000080fb0000f0a7000000ea006f
:104450000000ea004f00de00004f78001400370033
:10446000d00c80004500de00614060000080fb0051
:1044700000f0a7000000ea000000ea004f00de00a4
:10448000004f78000a003700d00c80004600de00a4
:10449000614060000080fb0000f0a7000000ea001f
:1044a0000000ea004f00de00004f7800000000002e
:1044b0001e4078000080fa00000006000200fa00aa
:1044c000000f78001e007800e10f50000700320056
:1044d000e10f500003003900e20f500005003200e8
:1044e000060037009a81a900040037009aa1a900ac
:1044f000020037009ac1a900000000000080fa0005
:10450000000006000000fa009cc1a8000080fa002c
:10451000000006000000fa00e00c80004600de000b
:10452000614060000080fb0000f0a7000000ea008e
:104530000000ea004f00de00004078000080fa0032
:10454000000006000000fa009cc1a9000080fa00eb
:044550000000060061
:020000040000fa
:104554000000fe0082922000001978000109780012
:10456400000006000000fe000000eb008000eb00ed
:10457400f8ff07006627ef00000006000000fe00b9
:10458400801f7800811f7800819220000600fc00c3
:1045940031007800303b880011007800303b8800ff
:1045a40061e7a8000000000000000000cf007800d0
:1045b4004f00780000000600a2028000a1028800db
:1045c4009080ba001000ba00a20288000000060021
:1045d400a2028000a10288001000ba00a202880092
:1045e400000006000000fe0061e7af00feff370098
:1045f400f23f2000000161000c003a002204240074
:10460400023b8800a2028000a10288000008bb00cf
:10461400c22202000000000061e7af00feff370085
:10462400a20288001000200061a7af000000200053
:104634000000060061e7af00feff37000000a7009e
:104644000d003700a4028000a1028800310024007c
:10465400013b88000208bb000388bb00c2220200a1
:104664000000000061e7af00feff3700a4028800ed
:104674001000200061a7af00000020000000060029
:1046840061e7af00feff37000000a7000e0037000f
:1046940033002400033b8800a3028000a1028800a9
:1046a4000208bb00f20f20000288bb00c2220200f5
:1046b4000000000061e7af00feff3700a30288009e
:1046c4001000200061a7af000000200000000600d9
:1046d40061e7af00feff3700f3072000808161002f
:1046e40010003a0013002400033b8800a30280005a
:1046f400a1028800040420003208bb003298bb00e9
:104704001400b100fcff3a00c222020000000000c5
:1047140061e7af00feff3700a3028800100020000d
:1047240061a7af00000020000000060061e7af00b1
:10473400feff3700f30720008081610011003a007a
:1047440013002400033b8800a3028000a102880018
:1047540004042000f10f20003208bb000198bb00c4
:104764001400b100fcff3a00c22202000000000065
:1047740061e7af00feff3700a302880010002000ad
:1047840061a7af000000200000000600f23f2000f7
:10479400000061000000060002c02f00000061005c
:0c47a400f2ff2f00810061000000060001
:020000040000fa
:1047b0000000fa00e0c02100800c8800f001200019
:1047c000900c880000002800a00c88000010200039
:1047d000b00c8800800c80000040780067406000ca
:1047e0000080fb00a04688008440a9009440a800f7
:1047f0000080fa00000006000000fa000080fa00c5
:10480000000006000000fa00a0468000004078008a
:10481000674060000080fb0067006000820c800041
:1048200081ff2f008100610001007000800c880072
:104830000080fa00000006000000fa00810c8000f1
:1048400080ff2f0000806000800c88000080fa004c
:10485000000006000200fa00000f78009e007800b9
:10486000a10c88000080fa00000006000200fa0097
:10487000000f78009e007800b10c88000080fa00dc
:10488000000006000000fa00200480004200de0064
:10489000614060000080fb0000f0a7000000ea001b
:1048a0000000ea004f00de00004078000080fa00bf
:1048b000000006000400fa00100798001e00900097
:1048c000e10f50000f003200e10f500003003900eb
:1048d000e20f5000150032001e003700800c8000ef
:1048e0004400de00614060000080fb0000f0a70093
:1048f0000000ea000000ea004f00de00004f7800f0
:1049000014003700800c80004500de00614060002c
:104910000080fb0000f0a7000000ea000000ea00b1
:104920004f00de00004f78000a003700800c800046
:104930004600de00614060000080fb0000f0a70040
:104940000000ea000000ea004f00de00004f78009f
:10495000000000001e4078000080fa000000060001
:104960000200fa00000f78001e007800e10f5000ee
:1049700007003200e10f500003003900e20f500041
:1049800005003200060037009081a90004003700be
:1049900090a1a9000200370090c1a900000000000a
:1049a0000080fa00000006000000fa0092c1a80092
:1049b0000080fa00000006000000fa00900c800061
:1049c0004600de00614060000080fb0000f0a700b0
:1049d0000000ea000000ea004f00de00004078001e
:1049e0000080fa00000006000000fa0092c1a90051
:1049f0000080fa00000006000000fa00c802a900ca
:104a0000c822a900c842a800cc22a9004001200069
:104a10009f030700cc22a800400120009c03070050
:104a2000cc02a8000040eb00020007000080fa0062
:104a3000000006000200fa00004f7800cc02a90036
:104a40001e80fb00fafc0700cc02a8000080fa00e0
:104a5000000006000400fa00889fbe008a9fbe0086
:104a6000008fbe00cc02a9001e00be00400ade007e
:104a700005002000f00f2000010020000403780052
:104a8000050278008002780081007800050063004c
:104a90008100620081017800000178000200be0000
:104aa000e3fc07001e00be00c809de00480add0066
:104ab0004801de0002017200f00f2000010020001a
:104ac00002027800030178008001780081007800fc
:104ad0000300620081006100810578000005780014
:104ae0000a00be00d2fc0700f00f200001002000e9
:104af0001e01be00020278000301780080017800e8
:104b00008100780003006200810061008104780068
:104b1000000478000800be00c5fc07000000eb00a0
:104b2000c3fc0700cc02a8000000eb00c0fc07009b
:104b3000004078004f05be004f04be000080fa0020
:104b4000000006000600fa00889fbe008a9fbe0093
:104b5000008fbe0042479800cc02a9001e00be0094
:104b60004008de00010020000070a000b0fc07003b
:104b70001e00be00c809de00480add004801de0054
:104b800002017200f00f20000100200002027800f4
:104b90000301780080017800810078000300620042
:104ba0008100610081057800000578000a00be00e0
:104bb0009ffc0700f00f2000010020001e01be0036
:104bc00002027800030178008001780081007800fb
:104bd0000300620081006100810478000004780015
:104be0000800be0092fc07004e4090000080fb00d1
:104bf0008ffc0700cc02a8004f05be004f04be008a
:104c00000080fa00000006000200fa00000f7800a1
:104c10000080fa00000006000000fa008001200079
:104c200020168800cc22ef00d422ef002050200074
:104c3000e0168800e422ef00ec22ef00c020200004
:104c4000a0178800f06e2c00001688000080eb0092
:104c500040168800a000210080168800702d2f00cb
:104c6000c0168800f031200000178800e822ef000d
:104c7000f0102300801788005620ef005820ef0026
:104c80005a20ef005c20ef005e20ef006020ef0074
:104c90006e20ef007020ef007220ef007420ef0014
:104ca0007620ef007820ef00c622ef00ce22ef0042
:104cb000d622ef00de22ef00e622ef00ee22ef0028
:104cc000f622ef00e024ef00c03f2000102788000c
:104cd000e424ef00e624ef000020200040278800b5
:104ce000ec24ef00113a8000f00b200000816000fe
:104cf00060042000710520002374200080497800a2
:104d000081497800824978001136800000fc2f002c
:104d1000008060002001b30010368800413580001b
:104d200000fc2f00008060009001b3004035880037
:104d30002135800000fc2f00008060003001b300ae
:104d400020358800a136800000fc2f000080600024
:104d50000030a000a0368800b136800000fc2f0093
:104d6000008060007000b300b0368800d13680004b
:104d7000f00f2c00808060000030200001007000e7
:104d8000d0368800a1368000f00f2c0080806000b3
:104d90000030210001007000a0368800103a800029
:104da000000178000260a00060042000710520006e
:104db0002374200080497800814978008249780076
:104dc0000080fa00000006000400fa00008fbe0018
:104dd00017e2a9001e00be000000400081804800cc
:104de0000001be0000902000d103200032ef070038
:104df000000078000000e900a010880017e2a80079
:104e000040062000a20207000080fa000000060011
:104e10000000fa001602a80000000000b010800098
:104e2000610060000000e000fcff3a000080fa0032
:104e3000000006000000fa001642a8000000000072
:104e4000b0108000640060000000e000fcff3a0049
:104e50000080fa00000006000000fa001622a800f8
:104e600000000000b0108000620060000000e00060
:104e7000fcff3a000080fa00000006000200fa0081
:104e8000004f78001e80fb0090108800000000009a
:104e9000c110800000002400008060000000e000dd
:104ea000fbff3a00c1108000000028000080600075
:104eb00000f0a7000000ea000000e9004f00de005b
:104ec000004078000080fa00000006000400fa00ac
:104ed000204798001662a80000000000c010800063
:104ee000620060000000e000fcff32000010800063
:104ef000004f78002e4090000004e00002003200d5
:104f00000040eb000100370010c0b3000080fb0040
:104f1000610060004500dd00b11080000150a1007b
:104f200001007000b01088001682a8000000000088
:104f3000b0108000700060000000e000fcff3a004c
:104f40001e4078000080fa00000006000400fa000d
:104f5000008fbe0007e2a9001e00be000000400056
:104f6000818048000001be0000902000d103200095
:104f7000d1ee0700000078000000e9002010880052
:104f800007e2a80010002000410207000080fa009c
:104f9000000006000000fa000602a8000000000061
:104fa00030108000610060000000e000fcff3a006b
:104fb0000080fa00000006000000fa000642a80087
:104fc0000000000030108000640060000000e0007d
:104fd000fcff3a000080fa00000006000000fa0022
:104fe0000622a8000000000030108000620060006f
:104ff0000000e000fcff3a000080fa00000006001c
:105000000200fa00004f78001e80fb00101088009c
:1050100000000000411080000000240000806000bb
:105020000000e000fbff3a00411080000000280073
:105030000080600000f0a7000000ea000000e90026
:105040004f00de00004078000080fa0000000600fb
:105050000400fa00204798000662a8000000000043
:1050600040108000620060000000e000fcff3200a1
:1050700000108000004f78002e4090000004e000f7
:10508000020032000040eb000100370010c0b30006
:105090000080fb00610060004500dd0031108000f1
:1050a0000150a10001007000301088000682a800a5
:1050b0000000000030108000700060000000e00080
:1050c000fcff3a001e4078000080fa000000060055
:1050d0000000fa000a21ef00a0612000700888009b
:1050e0000003280090088800904680000000e0003f
:1050f00002003a00008c2200240007008500a9006d
:105100009500a800c09220008040eb000148780084
:105110000080fa00000006000200fa00000f78008c
:105120009e00780071088800c09220008040eb004b
:10513000014878000080fa00000006000000fa0034
:10514000700880000080fa00000006000200fa00eb
:10515000000f78009e00780051088800c09220005f
:105160008040eb00014878000080fa000000060053
:105170000000fa00500880000080fa0000000600dd
:105180000000fa000080fa00000006000200fa00a9
:10519000000f78009500a9009e00780091468800d5
:1051a0009500a8000080fa00000006000000fa0048
:1051b000c09220008040eb00014878009500a800d4
:1051c00013e1a8000080fa00000006000000fa00c9
:1051d00013e1a9009500a9000080fa000000060074
:1051e0000200fa00c0922000104f78001e407800a4
:1051f0000004e00003003200c09220008040eb0079
:10520000014878001e4078000080fa000000060087
:105210000000fa00d0922000104078000080fb00cf
:105220000080fa00000006000000fa00d092200082
:105230008040eb00014878000080fa000000060082
:105240000000fa000621ef00908621006008880027
:105250000002280080088800e04680000000e0008e
:1052600002003a00809722002400070084e0a90091
:1052700094e0a800e09220008040eb000148780014
:105280000080fa00000006000200fa00000f78001b
:105290009e00780061088800e09220008040eb00ca
:1052a000014878000080fa00000006000000fa00c3
:1052b000600880000080fa00000006000200fa008a
:1052c000000f78009e00780031088800e0922000ee
:1052d0008040eb00014878000080fa0000000600e2
:1052e0000000fa00300880000080fa00000006008c
:1052f0000000fa000080fa00000006000200fa0038
:10530000000f780094e0a9009e007800e146880034
:1053100094e0a8000080fa00000006000000fa00f7
:10532000e09220008040eb000148780094e0a80063
:1053300011e1a8000080fa00000006000000fa0059
:1053400011e1a90094e0a9000080fa000000060025
:105350000200fa00e0922000104f78001e40780012
:105360000004e00003003200e09220008040eb00e7
:10537000014878001e4078000080fa000000060016
:105380000000fa00f0922000104078000080fb003e
:105390000080fa00000006000000fa00f0922000f1
:1053a0008040eb00014878000080fa000000060011
:1053b0000000fa000021ef00f07c200010088800b7
:1053c0000000280020088800f04680000000e0006f
:1053d00002003a0000a32200240007008460a90014
:1053e0009460a800009320008040eb000148780002
:1053f0000080fa00000006000200fa00000f7800aa
:105400009e00780011088800009320008040eb0087
:10541000014878000080fa00000006000000fa0051
:10542000100880000080fa00000006000200fa0068
:10543000000f78009e00780001088800009320008b
:105440008040eb00014878000080fa000000060070
:105450000000fa00000880000080fa00000006004a
:105460000000fa000080fa00000006000200fa00c6
:10547000000f78009460a9009e007800f146880033
:105480009460a8000080fa00000006000000fa0006
:10549000009320008040eb00014878009460a80051
:1054a00005e1a8000080fa00000006000000fa00f4
:1054b00005e1a9009460a9000080fa000000060040
:1054c0000200fa0000932000104f78001e40780080
:1054d0000004e00003003200009320008040eb0055
:1054e000014878001e4078000080fa0000000600a5
:1054f0000000fa0010932000104078000080fb00ac
:105500000080fa00000006000000fa00109320005e
:105510008040eb00014878000080fa00000006009f
:105520000000fa0030402000000a8800c00020007f
:10553000100a8800000a8000004078006740600080
:105540000080fb00d04688000080fa0000000600c2
:105550000000fa000080fa00000006000000fa00d7
:1055600020048000620060000000e00002003200c1
:10557000f7ff07008420a9000080fa000000060061
:105580000000fa00d04680000040780067406000cc
:105590000080fb0067006000020a800081ff2f008e
:1055a0008100610001007000000a88000080fa009c
:1055b000000006000000fa00010a800080ff2f00b2
:1055c00000806000000a88000080fa0000000600e9
:1055d0000000fa00200a80000080fa0000000600a7
:1055e0000000fa0042c1a8000080fa000000060096
:1055f0000000fa00100a80004600de0061406000f2
:105600000080fb0000f0a7000000ea000000ea00b4
:105610004f00de00004078000080fa000000060025
:105620000000fa0042c1a9000080fa000000060054
:105630000000fa00000a80004400de0061406000c3
:105640000080fb0000f0a7000000ea000000ea0074
:105650004f00de00004078000080fa0000000600e5
:105660000000fa00000a80006800600000f0a70057
:105670000000ea000000e9004f00de000040780072
:085680000080fa0000000600a2
:020000040000fa
:105688000000fa0040002800001a8800804320002b
:10569800101a880010002000201a88004823ef0004
:1056a80000f22700701a8800403f2000801a880006
:1056b8005223ef005423ef005623ef005823ef0046
:1056c8006023ef006223ef006423ef00de24ef0085
:1056d80060b722000600070095a0a8000080fa0025
:1056e800000006000000fa000080fa000000060032
:1056f8000200fa00000f78001e007800b04688000b
:105708000080fa00000006000000fa004023a8000c
:105718000080fa00000006000000fa004023a900fb
:105728000080fa00000006000800fa003007980020
:10573800101a80004200de007f4060000080fb00fd
:105748002007980000302000100798000000eb00a8
:10575800000f78000b0037001e00780000004000a2
:10576800be009000008040009e00900091007800ec
:10577800010878001e0090000080e80010079800db
:105788001e0fe8009e0078002e009000808f5000c9
:10579800f1ff36001e0078000080fa0000000600c5
:1057a8000000fa0011068000f08f2f0000806000d2
:1057b8000080a0001006880021068000f0f82f0065
:1057c800008060000040a00020068800510580008d
:1057d80080ff2f00008060000000a00050058800b6
:1057e80041058000f0ff28000080600000c0a00094
:1057f8004005880051058000f0f82f000080600007
:105808000040a0005005880051058000f08f2f004f
:10581800008060000080a0005005880031058000ed
:1058280080ff2f00008060000000a0003005880085
:1058380021058000f08f2f00008060000080a0000c
:10584800200588004105800080ff2f00008060004f
:105858000000a0004005880031058000f0ff280006
:105868000080600000c0a00030058800210580008d
:10587800f0ff28000080600000c0a000200588001c
:105888000080fa00000006000200fa00000f78000d
:105898000300370000fa2000010020006100070023
:1058a8001e00780000f0a7000000ea000000ea00ef
:1058b8004f00de00004078001e0fe9000004e00001
:1058c800f4ff3a000080fa00000006000200fa0027
:1058d800000f7800050037000008200001002000b4
:1058e8005000070001fe2f001e8f40001e007800a8
:1058f800ff0f5000f8ff3e00030037004000200073
:1059080001002000470007001e00780000f0a700f3
:105918000000ea000000ea004f00de0000407800c6
:105928001e0fe9000004e000f4ff3a000080fa00ce
:10593800000006000000fa0000002300203a88005a
:105948004827ef004e27ef007027ef007227ef007f
:105958007427ef007627ef007a27ef007c27ef0007
