:020000040000fa
:080000000002040000000000f2
:020000040000fa
:0400080030050000bf
:020000040000fa
:04000c0044030000a9
:020000040000fa
:040010008603000063
:020000040000fa
:040014006403000081
:020000040000fa
:04001800a60300003b
:020000040000fa
:04001c0030050000ab
:020000040000fa
:0400200030050000a7
:020000040000fa
:0400240030050000a3
:020000040000fa
:04002800300500009f
:020000040000fa
:04002c00300500009b
:020000040000fa
:040030003005000097
:020000040000fa
:040034007204000052
:020000040000fa
:04003800300500008f
:020000040000fa
:04003c00300500008b
:020000040000fa
:040040003005000087
:020000040000fa
:040044003c04000078
:020000040000fa
:04004800c6030000eb
:020000040000fa
:04004c00300500007b
:020000040000fa
:040050003005000077
:020000040000fa
:04005400c6040000de
:020000040000fa
:04005800a8040000f8
:020000040000fa
:04005c00fc030000a1
:020000040000fa
:040060003005000067
:020000040000fa
:040064003005000063
:020000040000fa
:04006800300500005f
:020000040000fa
:04006c00300500005b
:020000040000fa
:040070003005000057
:020000040000fa
:040074003005000053
:020000040000fa
:04007800300500004f
:020000040000fa
:04007c00300500004b
:020000040000fa
:040080003005000047
:020000040000fa
:040084003005000043
:020000040000fa
:04008800300500003f
:020000040000fa
:04008c00300500003b
:020000040000fa
:040090003005000037
:020000040000fa
:04009400fa0400006a
:020000040000fa
:04009800300500002f
:020000040000fa
:04009c00300500002b
:020000040000fa
:0400a0003005000027
:020000040000fa
:0400a4003005000023
:020000040000fa
:0400a800300500001f
:020000040000fa
:0400ac00300500001b
:020000040000fa
:0400b0003005000017
:020000040000fa
:0400b4003005000013
:020000040000fa
:0400b800300500000f
:020000040000fa
:0400bc00300500000b
:020000040000fa
:0400c0003005000007
:020000040000fa
:0400c4003005000003
:020000040000fa
:0400c80030050000ff
:020000040000fa
:0400cc0030050000fb
:020000040000fa
:0400d00030050000f7
:020000040000fa
:0400d40030050000f3
:020000040000fa
:0400d80030050000ef
:020000040000fa
:0400dc0030050000eb
:020000040000fa
:0400e00030050000e7
:020000040000fa
:0400e40030050000e3
:020000040000fa
:0400e80030050000df
:020000040000fa
:0400ec0030050000db
:020000040000fa
:0400f00030050000d7
:020000040000fa
:0400f40030050000d3
:020000040000fa
:0400f80030050000cf
:020000040000fa
:0400fc0030050000cb
:020000040000fa
:0401000030050000c6
:020000040000fa
:0401040030050000c2
:020000040000fa
:0401080030050000be
:020000040000fa
:04010c0030050000ba
:020000040000fa
:0401100030050000b6
:020000040000fa
:0401140030050000b2
:020000040000fa
:0401180030050000ae
:020000040000fa
:04011c0030050000aa
:020000040000fa
:0401200030050000a6
:020000040000fa
:0401240030050000a2
:020000040000fa
:04012800300500009e
:020000040000fa
:04012c00e4040000e7
:020000040000fa
:040130003005000096
:020000040000fa
:040134003005000092
:020000040000fa
:04013800300500008e
:020000040000fa
:04013c00300500008a
:020000040000fa
:040140003005000086
:020000040000fa
:040144003005000082
:020000040000fa
:04014800300500007e
:020000040000fa
:04014c00300500007a
:020000040000fa
:040150003005000076
:020000040000fa
:040154003005000072
:020000040000fa
:04015800300500006e
:020000040000fa
:04015c00300500006a
:020000040000fa
:040160003005000066
:020000040000fa
:040164003005000062
:020000040000fa
:04016800300500005e
:020000040000fa
:04016c00300500005a
:020000040000fa
:040170003005000056
:020000040000fa
:040174003005000052
:020000040000fa
:04017800300500004e
:020000040000fa
:04017c00300500004a
:020000040000fa
:040180003005000046
:020000040000fa
:040184003005000042
:020000040000fa
:04018800300500003e
:020000040000fa
:04018c00300500003a
:020000040000fa
:040190003005000036
:020000040000fa
:040194003005000032
:020000040000fa
:04019800300500002e
:020000040000fa
:04019c00300500002a
:020000040000fa
:0401a0003005000026
:020000040000fa
:0401a4003005000022
:020000040000fa
:0401a800300500001e
:020000040000fa
:0401ac00300500001a
:020000040000fa
:0401b0003005000016
:020000040000fa
:0401b4003005000012
:020000040000fa
:0401b800300500000e
:020000040000fa
:0401bc00300500000a
:020000040000fa
:0401c0003005000006
:020000040000fa
:0401c4003005000002
:020000040000fa
:0401c80030050000fe
:020000040000fa
:0401cc0030050000fa
:020000040000fa
:0401d00030050000f6
:020000040000fa
:0401d40030050000f2
:020000040000fa
:0401d80030050000ee
:020000040000fa
:0401dc0030050000ea
:020000040000fa
:0401e00030050000e6
:020000040000fa
:0401e40030050000e2
:020000040000fa
:0401e80030050000de
:020000040000fa
:0401ec0030050000da
:020000040000fa
:0401f00030050000d6
:020000040000fa
:0401f40030050000d2
:020000040000fa
:0401f80030050000ce
:020000040000fa
:0401fc0030050000ca
:020000040000fa
:0402080030050000bd
:020000040000fa
:04020c0044030000a7
:020000040000fa
:040210008603000061
:020000040000fa
:04021400640300007f
:020000040000fa
:04021800a603000039
:020000040000fa
:04021c0030050000a9
:020000040000fa
:0402200030050000a5
:020000040000fa
:0402240030050000a1
:020000040000fa
:04022800300500009d
:020000040000fa
:04022c003005000099
:020000040000fa
:040230003005000095
:020000040000fa
:040234007204000050
:020000040000fa
:04023800300500008d
:020000040000fa
:04023c003005000089
:020000040000fa
:040240003005000085
:020000040000fa
:040244003c04000076
:020000040000fa
:04024800c6030000e9
:020000040000fa
:04024c003005000079
:020000040000fa
:040250003005000075
:020000040000fa
:04025400c6040000dc
:020000040000fa
:04025800a8040000f6
:020000040000fa
:04025c00fc0300009f
:020000040000fa
:040260003005000065
:020000040000fa
:040264003005000061
:020000040000fa
:04026800300500005d
:020000040000fa
:04026c003005000059
:020000040000fa
:040270003005000055
:020000040000fa
:040274003005000051
:020000040000fa
:04027800300500004d
:020000040000fa
:04027c003005000049
:020000040000fa
:040280003005000045
:020000040000fa
:040284003005000041
:020000040000fa
:04028800300500003d
:020000040000fa
:04028c003005000039
:020000040000fa
:040290003005000035
:020000040000fa
:04029400fa04000068
:020000040000fa
:04029800300500002d
:020000040000fa
:04029c003005000029
:020000040000fa
:0402a0003005000025
:020000040000fa
:0402a4003005000021
:020000040000fa
:0402a800300500001d
:020000040000fa
:0402ac003005000019
:020000040000fa
:0402b0003005000015
:020000040000fa
:0402b4003005000011
:020000040000fa
:0402b800300500000d
:020000040000fa
:0402bc003005000009
:020000040000fa
:0402c0003005000005
:020000040000fa
:0402c4003005000001
:020000040000fa
:0402c80030050000fd
:020000040000fa
:0402cc0030050000f9
:020000040000fa
:0402d00030050000f5
:020000040000fa
:0402d40030050000f1
:020000040000fa
:0402d80030050000ed
:020000040000fa
:0402dc0030050000e9
:020000040000fa
:0402e00030050000e5
:020000040000fa
:0402e40030050000e1
:020000040000fa
:0402e80030050000dd
:020000040000fa
:0402ec0030050000d9
:020000040000fa
:0402f00030050000d5
:020000040000fa
:0402f40030050000d1
:020000040000fa
:0402f80030050000cd
:020000040000fa
:0402fc0030050000c9
:020000040000fa
:0403000030050000c4
:020000040000fa
:0403040030050000c0
:020000040000fa
:0403080030050000bc
:020000040000fa
:04030c0030050000b8
:020000040000fa
:0403100030050000b4
:020000040000fa
:0403140030050000b0
:020000040000fa
:0403180030050000ac
:020000040000fa
:04031c0030050000a8
:020000040000fa
:0403200030050000a4
:020000040000fa
:0403240030050000a0
:020000040000fa
:04032800300500009c
:020000040000fa
:04032c00e4040000e5
:020000040000fa
:040330003005000094
:020000040000fa
:040334003005000090
:020000040000fa
:04033800300500008c
:020000040000fa
:04033c003005000088
:020000040000fa
:040340003005000084
:020000040000fa
:040344003005000080
:020000040000fa
:04034800300500007c
:020000040000fa
:04034c003005000078
:020000040000fa
:040350003005000074
:020000040000fa
:040354003005000070
:020000040000fa
:04035800300500006c
:020000040000fa
:04035c003005000068
:020000040000fa
:040360003005000064
:020000040000fa
:040364003005000060
:020000040000fa
:04036800300500005c
:020000040000fa
:04036c003005000058
:020000040000fa
:040370003005000054
:020000040000fa
:040374003005000050
:020000040000fa
:04037800300500004c
:020000040000fa
:04037c003005000048
:020000040000fa
:040380003005000044
:020000040000fa
:040384003005000040
:020000040000fa
:04038800300500003c
:020000040000fa
:04038c003005000038
:020000040000fa
:040390003005000034
:020000040000fa
:040394003005000030
:020000040000fa
:04039800300500002c
:020000040000fa
:04039c003005000028
:020000040000fa
:0403a0003005000024
:020000040000fa
:0403a4003005000020
:020000040000fa
:0403a800300500001c
:020000040000fa
:0403ac003005000018
:020000040000fa
:0403b0003005000014
:020000040000fa
:0403b4003005000010
:020000040000fa
:0403b800300500000c
:020000040000fa
:0403bc003005000008
:020000040000fa
:0403c0003005000004
:020000040000fa
:0403c4003005000000
:020000040000fa
:0403c80030050000fc
:020000040000fa
:0403cc0030050000f8
:020000040000fa
:0403d00030050000f4
:020000040000fa
:0403d40030050000f0
:020000040000fa
:0403d80030050000ec
:020000040000fa
:0403dc0030050000e8
:020000040000fa
:0403e00030050000e4
:020000040000fa
:0403e40030050000e0
:020000040000fa
:0403e80030050000dc
:020000040000fa
:0403ec0030050000d8
:020000040000fa
:0403f00030050000d4
:020000040000fa
:0403f40030050000d0
:020000040000fa
:0403f80030050000cc
:020000040000fa
:0403fc0030050000c8
:020000040000fa
:10040000efc720000e7f22000e01880000000000d0
:10041000000020000000e000020032000001200087
:100420002002880014000700400207000000e000de
:1004300003003a004072250001002000020037004e
:100440000000200001002000810f70000100320038
:1004500014000700000020000000e000020032004d
:100460000000020000000000fc4402000000000048
:100470000040da000000fe004440a900a041200036
:100480000000e000030032000020200090018800fe
:100490004440a800000006008a1f78008b1f7800e7
:1004a00000000600a1028800800478000000eb0034
:1004b0001f003700e284440054a0b4009905ba003c
:1004c000e284440054a0b4009906ba00e2844400d7
:1004d00054a0b4000006eb00476fde00fd07b20039
:1004e000ae018800636ce10003003a00eaff0700f8
:1004f0000000eb000e003700606ce10008003a00dd
:10050000004deb000a05e800020039003420ec0041
:100510000af0a0008b05e900f9ff3e000400370057
:100520006168e100010032000086eb000b0007006b
:1005300019c7ba001905ba000e04e00003003a001a
:100540000a00e000dbff3a0000000600fe07b200f0
:10055000ae0288008a047800f5ff37000cd0a300b3
:10056000e20f4d001c00390089027800354dba00b9
:100570000a05e800020039003420ec000af0a0006f
:100580008b05e9000f003200254dba000a05e8008e
:10059000020039003420ec000af0a0008b05e900cd
:1005a000080032000c00e0000600320015cdba0051
:1005b0000a05e800020039003420ec000af0a0002f
:1005c0008b05e9008984e80054a0b4000b00e0002a
:1005d000e2ff3a00000006009902ba00055d7800cb
:1005e0008b05e900f7ff3200c82ade00055d7800c0
:1005f0008b05e900f3ff32000c00e000f1ff320050
:1006000019ddba00eeff37006e6204000000000042
:10061000924f040000000000266304000000000068
:10062000de630400000000004054040000000000ed
:1006300090540400000000009664040000000000d4
:10064000aa3f040000000000da15040000000000ca
:10065000ae2e0400000000008c30040000000000fa
:10066000382f040000000000a82f04000000000044
:100670003c30040000000000000004000000000006
:10068000ae2e0400000000003600f800809fbe007f
:10069000829fbe00849fbe00869fbe000000fa00bd
:1006a0008020a9000000eb00c33107000080fa00a1
:1006b0004f03be004f02be004f01be004f00be0000
:1006c0003600f900004006003600f800809fbe00aa
:1006d000829fbe00849fbe00869fbe000000fa007d
:1006e000bc3107008040a90010002000b231070093
:1006f0000080fa004f03be004f02be004f01be0053
:100700004f00be003600f900004006003600f80039
:10071000809fbe00829fbe00849fbe00869fbe0059
:100720000000fa008060a90020002000a23107002c
:100730000080fa004f03be004f02be004f01be0012
:100740004f00be003600f900004006003600f800f9
:10075000809fbe00829fbe00849fbe00869fbe0019
:100760000000fa008080a9003000200092310700cc
:100770000080fa004f03be004f02be004f01be00d2
:100780004f00be003600f900004006003600f800b9
:10079000809fbe00829fbe00849fbe00869fbe00d9
:1007a0000000fa00204c80000000e000020032004f
:1007b000204c800000000100f0c6200010407800ae
:1007c0008040e800f0c6200001487800e0c6200024
:1007d00011c0b300014878008500a9000080fa002c
:1007e0004f03be004f02be004f01be004f00be00cf
:1007f0003600f900004006003600f800809fbe0079
:10080000829fbe00849fbe00869fbe003200f8001b
:100810003400f80010002000a00188000020200013
:10082000900188000000fa002104800000002200ee
:10083000008060000000e00006003200404c8000b4
:100840000000e00002003200404c80000000010087
:1008500085a0a9000080fa003400f9003200f900f8
:100860004f03be004f02be004f01be004f00be004e
:100870003600f900004006003600f800809fbe00f8
:10088000829fbe00849fbe00869fbe000000fa00cb
:10089000704c80000000e00002003200704c8000cc
:1008a0000000010010c72000104078008040e800e0
:1008b00010c720000148780000c7200011c0b30015
:1008c0000148780084e0a9000080fa004f03be00d0
:1008d0004f02be004f01be004f00be003600f900bf
:1008e000004006003600f800809fbe00829fbe00d8
:1008f000849fbe00869fbe000000fa00804c8000ee
:100900000000e00002003200804c80000000010086
:1009100030c72000104078008040e80030c7200039
:100920000148780020c7200011c0b30001487800ba
:100930008460a9000080fa004f03be004f02be0091
:100940004f01be004f00be003600f9000040060017
:100950003600f800809fbe00829fbe00849fbe00cc
:10096000869fbe000000fa00d04b8000000001000e
:100970000080fa004f03be004f02be004f01be00d0
:100980004f00be003600f900004006003600f800b7
:10099000809fbe00829fbe00849fbe00869fbe00d7
:1009a0000000fa00e04b8000000001000080fa0027
:1009b0004f03be004f02be004f01be004f00be00fd
:1009c0003600f90000400600801f78000000fa00a1
:1009d00010118000620060000000e00001003200a1
:1009e0002222a9008c20a9000080fa004f00780084
:1009f000004006003600f800809fbe00829fbe00c7
:100a0000849fbe00869fbe000000fa00904c8000cc
:100a10000000e00002003200904c80000000010065
:100a200050c72000104078008040e80050c72000e8
:100a30000148780040c7200011c0b3000148780089
:100a40008760a9000080fa004f03be004f02be007d
:100a50004f01be004f00be003600f9000040060006
:100a60000040da000000fe000a00fa000000e0008a
:100a700037003a00d3638000e18f51000300320059
:100a8000e28f51000e003a000900370000222000da
:100a90000000e00001003a000040da002002e2001d
:100aa0000b0035002822ef0021e2a80008003700e3
:100ab000002320000000e00001003a000040da00be
:100ac0003002e200020035003822ef0031e2a800d7
:100ad000020078001a003700040a2000e18f51005c
:100ae0000b003a00030037000402e90002003a005c
:100af00003003700040a20002202ab00faff320094
:100b000014118000050037000402e90002003200e1
:100b10003202ab00fcff32009411800061026200df
:100b200009003200e18f510002003a0034118000c8
:100b300001003700b4118000845878000000e900fb
:100b40000000e000e4ff3a00000051000800370018
:100b500023002000b3bf9f00c0bf9f00d1bf9f00f4
:100b6000e2bf9f006a805700d51607006fb8970054
:100b70000080fa00000006000a00fa0011002000c0
:100b8000b1bf9f00c0bf9f006a805700ce1607000c
:100b90004fb897000080fa00000006000a00fa0033
:100ba000e20f500034003e00d0638000e10f50009f
:100bb00003003200e20f500011003a000c00370031
:100bc000032220000300e00001003a000040da00a8
:100bd0002002e200020035002822ef0021e2a800f6
:100be0002342ab000d003a002342a8000b0037005f
:100bf000032320000300e00001003a000040da0077
:100c00003002e200020035003822ef0031e2a80095
:100c10003342ab0001003a003342a8008201780061
:100c20000b0037003102fb00e10f500004003a00d6
:100c30002322ab00feff3a00241188000300370096
:100c40003322ab00feff3a00a41188008301e900c3
:100c50000300e000f3ff3a00e10f500003003a0008
:100c60002302ab00feff32000b0037003302ab0063
:100c7000feff32000800370033002000b3bf9f00a2
:100c8000c0bf9f00d1bf9f00e2bf9f006a80570096
:100c90008f1607006fb99700020078000080fa00f5
:100ca00000000600889fbe0080047800e06380009a
:100cb0000000e00005003a000000eb000e00070015
:100cc0000084eb000000e00008003500e8638000cd
:100cd0000900e0000500320009004400060007009a
:100ce0000000e00001003d000084eb0008007800f7
:100cf0004f04be0000000600800078000100e00004
:100d000003003a0000002000e063880000000500b6
:100d10000080eb0002002000828f500002003e00a5
:100d2000e16388000000eb00000006000000050001
:100d3000140020009a033700f4ff2f0098033700b7
:100d40000001be001c0007000470a70003f0a10012
:100d500003f8a30013003a006509b1001000320047
:100d6000090035006928e100020035000100280073
:100d70000000050000004000818048008502e90075
:100d8000fcff3a0000000600f88f42000500350025
:100d90008100d1000080d3008502e800fcff3a000a
:100da000000006008000eb00000005004f89de0017
:100db0008201780095033700c70ade00f107b20010
:100dc000f50fb20008003200e1cf4200020032000d
:100dd0000170a00024000500810f700001003200a6
:100de0000408050044000500810f700002003a006d
:100df000140005008502e9000000400081c04800a1
:100e0000fcff3b000170a000240005006022b80038
:100e1000060220000000d0008180d2000482d200af
:100e20008582d2000000a0000202520083825a0094
:100e3000030031000202420083824a000000a10048
:100e40000603e900f3ff3a000000060007f8270058
:100e5000078361000638e10004003a00f70720002c
:100e6000878361008703710001003a0003f0a2004c
:100e7000889fbe008a9fbe008c9fbe00470ade008e
:100e80000480a100c71ade000580a1000700280029
:100e90000785600087856100f70f20000720e100cb
:100ea0009e0032000728e1009c0032000106780015
:100eb0000400e000b4003200f707200087806000e3
:100ec0000170a0000500e000c0003200f70720001c
:100ed000878161000370a000050652000f003a00f0
:100ee0000b50e1000b0032000308e10002003a0061
:100ef0000200e1007e0032000204500083845800aa
:100f0000040031000001fd008101fd008402fd00ac
:100f10008a05fd006044b800210037000520e1008b
:100f200005003d000001fd008101fd008402fd007f
:100f30008a05fd00050652007a60e10005003500d3
:100f40000170a1004722dd00848070008a8070005b
:100f5000630037006044b800ef02660007ff2f000f
:100f6000070666000500e00006003400f08312006a
:100f70008714dd000511de00071bdd00060171008e
:100f80008519de007060e100050035000904780075
:100f900082047800030178008001eb00700656009f
:100fa0000b50e10003003a0002004000838048003b
:100fb0000400370060041400e0841c0002005800a4
:100fc000838058000188a300060032008100d10010
:100fd0000080d3008984d3000884d3000402e80091
:100fe000270037000178a30025003a000100e00047
:100ff000030032008186cf00698656000a00370060
:101000008c0020000000e00004003a000900780095
:10101000880478000004eb00700252008086cf0044
:101020000d0646000c06e9007060e1000600350080
:101030008000780009007800880478000004eb0044
:1010400070065600700252000c00e0000c003400e4
:101050008c08dd00f00316000703de0086807000b8
:101060000c00dd00074bde00060070008c4cdd003c
:101070000743de00868474000c44dd000c0252003d
:101080006120e100200035006101600007002800b8
:1010900087816400f7ff27008783640007037400db
:1010a0000300e000060032008203730004003200f7
:1010b0000000e800e08048000188a3000e003a002c
:1010c000f70f20000720e1004a003d000170a10059
:1010d0004722dd00810072008a8070000000be009f
:1010e0004f06be004f05be004f04be0000000600c4
:1010f0006000b800faff37008100d1000080d30003
:101100000402e800eeff3700040178008901740052
:10111000a10107008a807000f1ff3700f701070086
:10112000070278000001fd008101fd00f3010700c6
:1011300087027800850372000778a300040032005c
:101140000001fd008101fd0006020700e4ff3700f9
:10115000850362000768a300080032000b50e1001d
:1011600003003200f0ff2f00f1ff2700dcff370003
:101170000001fd008101fd00d9ff37000468a300d4
:10118000d7ff3200faff3700f8ff2700888360009e
:101190000b003a000000e00009003a0083036400fd
:1011a00082837300020032000200be00ccff3700d1
:1011b0000b50e100ceff3a000200be00c8ff37002e
:1011c00014002000810064003eff3700f8ff270074
:1011d0008883610004003a000200e00002003a0047
:1011e0008c007800beff37001500200083016400ea
:1011f00039ff370001f8270000002000810075004a
:10120000b7ff3700889fbe008a9fbe008c9fbe003c
:101210001b0020000202be000586680006002800b0
:10122000060666004709de00f20fb20082003200b7
:101230000243e80080003200c729de00f30fb2004d
:101240007d0032000343e8007b003200f107b2006a
:101250000170a000f507b2000570a000c708dd000e
:101260004903de00868070004700dd00c72add00ec
:101270004923de00868272004722dd00030551000b
:101280000403500085835800030031000000400033
:10129000818048000a05e9008c1f78008a9fbe0003
:1012a00004005000858058000402420085824a00f4
:1012b00000004000818048000005eb000004be00f3
:1012c0006033b8000406be000d48e100560031004e
:1012d000110009004dccd8000c01b8000d02b80077
:1012e0008481410060824a008283530003045c00d1
:1012f00084845c0060055d000a00e00025003a007f
:10130000800578000d40e100490031008800780038
:1013100007007800110009004d88d8000c01b800c2
:101320000d02b8008481410060824a006003110010
:1013300083835b0004045c00e0845c000900e0003f
:1013400021003a004f01be000300e0002b003200f4
:10135000e3016000070673008c8171000100320018
:10136000640070004200de004e5edd000c00700084
:10137000c258de0001e0a00083010700cf01780021
:10138000818071004f06be004f05be004f04be00b5
:10139000000006008c8343000d044c00e0844c00e8
:1013a00060054d000000e9000a00e000d4ff3200b3
:1013b0008c8343000d044c00e0844c0060054d001c
:1013c0000000e900ceff37000c0343008d834b0083
:1013d00060044c00e0844c000000e9000900e000db
:1013e000d8ff32000c0343008d834b0060044c0097
:1013f000e0844c000000e900d2ff37004200de002c
:101400004e5edd000c007000c258de0001e0a0005e
:10141000cf0178000300e000daff32006000100026
:10142000e0801800d7ff3700f0ff2f00aaff370039
:10143000f0ff2f00b9ff37000404be002f010700a2
:10144000870678000004fd008104fd002b010700e1
:10145000078366000678a300030032000960a70036
:101460000800be002c0037000d78a30002003200f7
:101470000800be00280037000778a30026003a00c5
:1014800001f0a10009f0a1000668a30003003200ea
:10149000f1ff2700f0ff2f00baff37000d68a3000f
:1014a000030032000800be008c807000b5ff3700da
:1014b0000768a30007003a000648a30003003200b3
:1014c000f1ff2700f0ff2f00aeff37000d48a3000b
:1014d000030032006000b8008c807000a9ff370064
:1014e0000748a3000400320001f827000000200094
:1014f0008c807000a3ff3700760107000004fd0018
:101500008104fd0002057800720107000802be0098
:101510008a01780059ff37000160a0001202200004
:10152000a24c880097ff37000100e0001200320053
:101530000500e00010003200889fbe008a9fbe00b8
:101540008c9fbe000006eb0001f8a30003003200f0
:1015500060001000e08018000cf0a00005f8a30067
:101560000300320060021200e0821a000cf0a200b8
:101570008005eb0041ff37006000b8000200050065
:10158000038368000700280007036300470ade00a2
:101590000480a100c71ade000580a100f70f20001b
:1015a0000720e100420032000728e100400032003d
:1015b000889fbe008a9fbe008c1f7800f107b20092
:1015c000f307b2000400e000640032000170a000e4
:1015d0000500e000680032000370a00085054200ad
:1015e000eb07b1000204b8000302b8008484440091
:1015f00060854a00020ab800848444000a854a00d3
:10160000030ab80004054500040033000804d000b4
:101610008984d2000a85d2008b05e9006158e10077
:101620003d00350002102000090161000308200080
:1016300089816100f70720008783640008867300b2
:10164000c84cde00c853dd00878474004855de00b6
:101650000300e0000600320082037600040032003e
:101660008904e80060054d000a88a3000c003a00d8
:10167000f70f20000758e10044003d000a70a10068
:10168000c75ddd000a8575008a00730009007800d7
:101690004f0678004f05be004f04be000000060054
:1016a0000a05d1008984d3008b05e800f0ff3700dc
:1016b000881f780006047800900007000702780071
:1016c0000001fd008101fd008c0007008702780009
:1016d000850372000778a300050032000001fd00b9
:1016e0008101fd009f0007004f0478000000060004
:1016f000850372000748a30003003200f0ff2f00ab
:10170000f1ff2700f8ff37000000200001f8270054
:1017100088807000f4ff3700880178004848dd00b9
:10172000808171004848de00c850dd000100700073
:10173000c850de00060478000b0178001600070090
:1017400088807000d2ff37000500e00005003200fd
:10175000170020003a0007009dff3700810370004a
:10176000f9ff3a00860078004f0678004f05be006a
:101770004f04be000000050083037100f9ff320032
:10178000270020002e00070094ff370001f82700f3
:1017900086807000f4ff37000100e0002600320070
:1017a000610111007810e10023003c006022b800c4
:1017b0007010e1000400350080027800010078001c
:1017c0008000eb00700151000200e00009003400cd
:1017d00070031100062add00822ade008603dd0088
:1017e000878272000200de00860bdd0007007000b9
:1017f0008208de0084817100f4ff27000482620009
:10180000848171000400280084826200610260000b
:1018100005f0a600000006000482710007003200f7
:101820000000e800e0804800000006000002be0062
:101830006000b800efff37006000b800000006004d
:10184000889fbe000004eb006138e10016003a00fa
:101850000100e00008003a00c800de004800dd009a
:10186000880020000100e00003003a00c800de000c
:101870004800dd00680444008184cf00e9845400fe
:10188000060034008908dd00f08314008703de00c1
:10189000878070000900dd00090444006102140023
:1018a0004f04be00000006000300e00008003a00fc
:1018b000c811de004811dd00880020000300e000b0
:1018c00003003a00c811de004811dd00680444003e
:1018d0008384cf00e9845400060034008919dd00b8
:1018e000f08314008713de00878171000911dd0089
:1018f00009044400e1021400e9ff3700270020003a
:1019000001f0a70017002000470bde00f60fb20021
:10191000040032000643e8000a0032004702b30028
:101920000000060001037800f607b200060370000d
:1019300002003a000703b300000006008702b3006c
:101940000000060001037800f607b20006037000ed
:10195000020032000770a000000006000760a0002f
:10196000000006000478a300040032000578a300fc
:10197000030032000168a30001003a000200be002b
:101980000160a00000000600810170002700320005
:101990008002eb0001f8a300030032006000100099
:1019a000e080180015002000f40720000202420029
:1019b00020003400f70320008703600006042000a5
:1019c0000003630002082000000161004700de0000
:1019d000c909dd0000807100c708de000600e000d4
:1019e0000800320087037100060032001000b000ca
:1019f0000180b0000188a30002003200c108de00af
:101a00000402e800f107b200f30f20000320e10018
:101a100003003d004722dd008100720029003700ed
:101a200001f827000000eb00260037006000b80036
:101a300000000600680212007f20e100020034006e
:101a40006000b8001f0037006011b8007020e1008e
:101a50000400350080017800010078008000eb0070
:101a6000700252000400e00009003400f00312008c
:101a70000719dd008419de000703dd00868171008f
:101a80000400de00070bdd00060070008408de00a5
:101a9000f7ff270083836300870371000600280097
:101aa00003036300070032000700e00003003a0070
:101ab0006101600002817300020032001000b0007a
:101ac0000180b0000500a6000000060001f0a000a3
:101ad000000006004f0ade004709de00f107b200f1
:101ae000f20fb2000b003200f207b1000170a0004b
:101af000c708dd00c901de00838070004700dd00fb
:101b00000400a6000000060060001000e08018003d
:101b100000000600810f700001003a00000006007e
:101b20008182cf000500e00010003e008082cf00df
:101b3000ee8242007028e1000400390007003e00f8
:101b4000800078000000eb000e0037007083120068
:101b50008600de000500dd000a00370070835200b9
:101b60008600dd000000eb0006003700e282520034
:101b70008508dd00708312000603de008680700099
:101b80000500dd007507b0000501ea000400a600ad
:101b90000000060060001000e08018000000060051
:101ba000889fbe008a9fbe00841f78007c000700cb
:101bb0004f00780011003300f0ff2f00838f6c007e
:101bc00006003b00040565000a00a7000800370076
:101bd00009f0a6001000200008003700820f540012
:101be000838f5c00030039001000200001003e00dc
:101bf0000000200009f0a7000000ea004f05be0029
:101c00004f04be000000e00000000600881f7800be
:101c1000030478000300e00007003d0060001000ae
:101c2000e080180060011900e081190002003b000b
:101c300001f02d00030037000400070008f0a700a2
:101c400001f0a0004f04780000000600889fbe004d
:101c50008a9fbe000082700004027100048271003d
:101c6000260032000004be000200be006011b80071
:101c70006b092000950220000182cf000a00390084
:101c80000541b1000082cf00070039000541b100d5
:101c90000982cf00040039000541b1000882cf005d
:101ca000010039000541b100054252001200320026
:101cb0000a003b0082817100610164008100d10053
:101cc0000080d3008984d3000884d3008b05e8000a
:101cd0000442e800f7ff3a00070037000804440018
:101ce00089844c0000004800818048008b05e90091
:101cf0000442e900f9ff3a00030007004f05be0067
:101d00004f04be00000006008100200061805500e5
:101d10000b003d000b00200061fe2f000100e100e0
:101d20001d00340082817100610164008904d100ca
:101d30000884d3000000e800faff3a007100200098
:101d400061006400030070000200600009003200be
:101d500061044400e0844c000988a50005003200bd
:101d60008b05e8006808e10002003a008904d10010
:101d70000884d300f20f20000258e10005003d0066
:101d8000c75ddd00f907b2008980750008007800a2
:101d9000000006000bf827008b007800000005000b
:101da0000004be0004fc07000003be000405be00e2
:101db0000200be0000fc0700844f75000000060012
:101dc0000800fa00889fbe000004be000001be00ab
:101dd0008300780001f0a10008007800a4fd200035
:101de00095f42300840f5000858f580018003e00a2
:101df000f2ff2f00f3972300820f5000838f5800cb
:101e000011003e00f2ff2f00f3072000820f500068
:101e1000838f580005003e00020020000338200098
:101e20000800be00d6fd07000400370002002000b5
:101e300003b827000800be000dfc0700c0bf9f00cc
:101e4000d1bf9f00710037000800be006800370056
:101e50004f49de0003002000143d2500b507240093
:101e6000840f5000858f58001f003e0034be2c00a8
:101e700065012400840f5000858f58000e003e003d
:101e80000200e00005003200b2fd200093fc2300b8
:101e90000800be00f6fb070059003700b2fd200025
:101ea00093fc23000800be00e8fb07005b0007006e
:101eb0000004be00550037000200e00005003200bb
:101ec000b2fd2000930424000800be00e8fb0700d8
:101ed00046003700b2fd2000930424000800be0035
:101ee000dafb070041003700541d2300250e2400b3
:101ef000840f5000858f58001d003e00f4dd2e0039
:101f0000f50a2400840f5000858f58000c003e0015
:101f10000200e0000500320042be2c0063092400ec
:101f20000800be00d2fb0700e0ff370042be2c00d5
:101f3000630924000800be00c4fb0700300037001e
:101f40000200e00005003200b2fd2000930c2400e6
:101f50000800be00c6fb070025003700b2fd2000c8
:101f6000930c24000800be00b8fb070020003700d7
:101f7000f2ff2f00f3f72700820f5000838f5800e5
:101f8000040036000801be000800be00affb0700d9
:101f9000c7ff37006c8157000800be004d000700e6
:101fa0006011b80063016000e10f5100e08f59003b
:101fb00009003200e20f5100e08f590009003200a1
:101fc000e00f5100e08f59000b003a002fb8970046
:101fd000bfb89700060037002fb89700bfb897002a
:101fe000b2ff37002fb89700bfb8970001f0a200ea
:101ff00091000700aeff37002fb89700bfb89700d9
:10200000060007000004be0009f0a2000800be00a0
:102010004f04be000080fa0000000600889fbe004a
:102020008a9fbe008c9fbe000001be0054fd0700c9
:102030000004be000001be0051fd07000005be0007
:102040000200200003f02b000800be004cfd07003a
:102050000200200003f8230085fb07000006be00f5
:10206000f2a92a00a3d223000a00be0044fd070003
:102070000001be000c00be007dfb07000006be0094
:102080000801be000a00be003dfd07000005be00bd
:1020900072a12900c37c23000800be0038fd0700a0
:1020a000f243200063ab230068fb07000001be0081
:1020b0000a00be0032fd07000001be000c00be0099
:1020c0006bfb07004f06be004f05be004f04be006d
:1020d000000006000800fa00889fbe008a9fbe002c
:1020e0008c9fbe000005be00020478000001be0007
:1020f0008300780001f0a1000a007800a2fd200012
:1021000093dc2400820f5000838f58001d003e0096
:1021100032982f0023f223000a00be0018fd0700aa
:102120000200200003b4240051fb0700020020003d
:1021300003b4240045fb07000006be00ae110700f3
:1021400080047800a2fd200093fc23000c00be0058
:102150000bfd07000001be000a00be003bfb0700ac
:102160000005be00325a2800832823000c00be0060
:1021700003fd07000001be000a00be0033fb07009c
:1021800026003700f2ff2f00f3f72700820f5000e0
:10219000838f5800060036000a01be000a00be0008
:1021a0002afb0700008cbe008004eb001c003700f7
:1021b0000a00be00500007000005be0032982f0044
:1021c00023f22300eefc07000200200003f02300ae
:1021d00027fb07005f1107000203be000002be00dc
:1021e000e4b79f00f5b79f0086bf9f0097bf9f0091
:1021f00086fe070032982f0023f2230001fc07001f
:102200000001be000a00be0010fb07006000b8001d
:102210002004980031049800efb49700008cbe00b1
:10222000090078004f06be004f05be004f04be00f7
:102230000080fa0000000600889fbe008a9fbe0052
:102240008c9fbe000005be000001be00ccfc070054
:102250000004be000a01be00c9fc07000006be0063
:102260004288280083c023000800be00c4fc070089
:10227000b2aa2a00a3e22300f4fa07000001be007c
:102280000c00be00befc07000001be000a00be003c
:10229000f7fa07000005be000801be000800be00f6
:1022a000b7fc07000001be000c00be00b4fc070034
:1022b0000006be00c2c32600636323000800be0000
:1022c000affc0700f27c200003952300dffa070033
:1022d0000001be000c00be00a9fc07000001be000a
:1022e0000a00be00e2fa07004f06be004f05be001e
:1022f0004f04be00000006006022b8006033b80042
:102300000002be00f0ff2f00f1ff2f00f2ff2f00b0
:10231000f3ff270000006200818062000201630079
:1023200083816300000006000000fa006881570006
:10233000cfb897001b0207000080fa0000000600db
:102340003f000700970007004801070070010700e1
:10235000c90007007a020700250237000000fa00d2
:1023600068815700cfb89700130207000080fa0079
:10237000000006009c04070053050700ed05070058
:1023800003060700a6053700800178000200370029
:10239000b15978000201e9000200e000fcff3a00b8
:1023a00000000600810178000002780030417800ca
:1023b000b14f510002003a000204e000f9ff3a0078
:1023c0009480fb001380fb0000805000000006009a
:1023d0008001eb000200e0001000320000027800f3
:1023e00001037800b44178000304e00008003200e3
:1023f000b14278000504e00005003200820340008d
:10240000848f53000200320085cf5100f4ff320068
:102410008381fb001680fb0080815100030078005f
:1024200000000600881f780000047800080078008b
:10243000270a0700080078004f0478000000060013
:10244000ec874700889fbe008a9fbe008c9fbe001d
:102450008e1f7800000678000104780018079000ad
:102460002805900098067800cdb79f00b805900029
:102470003202be002203be000400be000601be0000
:102480004f18de006011b8008000eb00d0b79f004d
:10249000e1b79f00f2b79f0083bf9f0080047800e0
:1024a0000900e000060032006000b8006011b800ca
:1024b00004025000858258000603590087835900a2
:1024c0000e00e000020035000d10a100cdb79f0006
:1024d0000900e00005003a004fb097000028a30073
:1024e00002003a000038a300020032008a00e9002e
:1024f000010037008a007800f8815700a200200010
:1025000008007800860007000900e00003003a0098
:10251000cfb097000128a300080032000000e900b6
:1025200000814500b1c2b3000900e00001003200a3
:10253000d1c2b30001497800050037000138a3007b
:10254000030032000000e90001c2b3008175780089
:10255000480190000201e90000015100808045001f
:102560004fb297008a0178000c0078003f02070004
:102570009c0090000188a3000400320098009000a5
:10258000810f500001003d00010078004f077800e6
:102590004f06be004f05be004f04be00cf00b10085
:1025a000000006000200fa00889fbe008a9fbe005d
:1025b000800578000104780002007800180190007e
:1025c0002805900098007800b1bf9f00b8049000e3
:1025d0000200e000020035000110a100b1bf9f0021
:1025e000ea815700820020008a0078003002be0095
:1025f0002003be0008007800490007003fb997009b
:10260000f0006100030032000000e90001c3b300e4
:10261000817478003fb99700e80061000300320040
:102620000000e90001c2b300817478004801900005
:102630000201e90000015100808044003fba970088
:102640008a0178000b007800080207009b009000c8
:102650000188a3000400320098009000810f500010
:1026600001003d00010078004f05be004f04be0090
:102670000080fa0000000600ea874700889fbe003d
:102680008a9fbe008e1f7800000478000300780047
:102690007287570084e2260055c72600049fbe00bb
:1026a000c3962200030f78006c875700004feb00a1
:1026b00011059000a1049000910578000200e0004f
:1026c00002003200020778000100370072875700cd
:1026d0000000e00002003a000e007800b109070097
:1026e0000a00e000030035008a0f500001003600a8
:1026f0000a0078000b027800890178000001780058
:102700008e00780008007800d80107004f07780095
:102710004f05be004f04be00af00b1000000060030
:10272000f4874700889fbe008a9fbe008c9fbe0032
:102730008e1f78000605be000404be0081bf9f0006
:1027400082b79f00f3b79f00b0009000e1b79f00f1
:102750001301780092b79f0090069000400090000f
:102760000000e900000678000d00e00001003d00d7
:102770001d0020008040eb00efb1970081717800d0
:102780001e0020001f0037000c06e9000fb0970064
:10279000cf80de006109b900a0b79f00b1b79f00ec
:1027a000c2b79f00d3b79f000203be000002be0065
:1027b0000800be000a01be000111070000077800f2
:1027c0000e4078000043b000efb0970080707e00ac
:1027d0008d06e9000fb997000201e90082bf9f0052
:1027e0002fb29700bfb297004fb39700dfb39700a7
:1027f0000800be000a01be00ea1007000205be0084
:102800000004be000c00e0000d003400e00f540096
:10281000e08f5c00e00f5d00e08f5d00daff3a00c2
:102820000d00e000d8ff3c008fb997000300e000e6
:10283000030034001fb097000018a300d2ff3a0035
:102840000e00e00002003a00ffb097001140a10026
:102850000c0078004f0778004f06be004f05be0001
:102860004f04be004f01b100000006000200fa0054
:10287000889fbe008a9fbe00000578000104780092
:102880000200780018019000a804900098007800d9
:10289000b1bf9f00b80590000200e00002003500c3
:1028a0000110a100b1bf9f00ea815700a2002000e3
:1028b000890078003002be002003be0008007800c6
:1028c00097ff0700480190000201e9000001510054
:1028d000808045003fba9700890178000a0078009f
:1028e000620107009a0090000188a30004003200f2
:1028f00098009000810f500001003d000100780019
:102900004f05be004f04be000080fa000000060024
:10291000fa874700889fbe008a9fbe008c9fbe003a
:102920008e1f78008004780001047800820578000a
:10293000180190002805900018077800b800900052
:102940000200e000020035000e10a1000100370077
:102950001200200070006700e0b79f0009003200fd
:102960003b02be002b03be00e00f5200e08f5a0076
:10297000e00f5b00e08f5b00020032008a86e90016
:10298000010037008a067800e8026700f5b79f006b
:10299000010032008d06e9003b02be002b03be00a1
:1029a000e4af9f00f5af9f0086b79f0097b79f00e9
:1029b000480690000c06e9000040eb0080707e00a5
:1029c000efb297007fb29700890378008104780006
:1029d000d8af9f00020478008bbf9f008a05780063
:1029e000034578002a0037000c06e9006fab97001a
:1029f0006f006300e90f500002003c000003b000cc
:102a0000010037007005b0000a03fb001604b10096
:102a1000f90f53000c003e00000378000650a000a0
:102a20001606b100f90f530007003e00b4b79f002f
:102a3000a5b79f00c7b79f0034090700cfb3970021
:102a4000afb297003fb2970080747e000804e9009f
:102a50008d06e9006fa89700ffa897000fb19700b7
:102a60009fb19700460020008301d1000281d3006e
:102a70008180d3000080d3000603e900faff3a000a
:102a8000e0af9f00f1af9f0082b79f0093b79f0018
:102a9000e10f56000f0034006fa89700ffa89700c1
:102aa0000fb197009fb19700e00f5000e08f5800e2
:102ab000e00f5900e08f5900cbff3a000800e0001a
:102ac000c9ff3c000d00e000020034000e18a30016
:102ad000c5ff3a0089007800f4b79f0087047800aa
:102ae0005fac97008a4178000b0578008fbd970096
:102af0000500e000100032003b02be002b03be00c8
:102b0000e4af9f00f5af9f0086b79f0097b79f0087
:102b1000e00f5200e08f5a00e00f5b00e08f5b0097
:102b2000050032000c06e90083707e000c06e90007
:102b300000c3b30080707e00ffb297000500e00084
:102b4000030032000c06e90000c2b30080707e0072
:102b5000480190000201e9000c0151008c80400006
:102b60000e0278008a01780009007800bf00070093
:102b7000990090000188a3000400320098009000a2
:102b8000810f500001003d00010078004f077800e0
:102b90004f06be004f05be004f04be00af01b1009e
:102ba000000006008201780001017800f1ff270093
:102bb000eb083700960637003c00fa008f017800da
:102bc000c303b1001d0009008019eb00c0a79f00de
:102bd00080b79f00a05d2100b0b79f0040fc2f0090
:102be0000f004000d00807000080fa000000060037
:102bf00084082000848f50001d0032000d003c002e
:102c000014082000848f50002700320002003c008e
:102c1000040820000400370024082000848f50009e
:102c20003400320044082000848f500043003a00f2
:102c300036003700040a2000848f5000270032003d
:102c400004003c0004092000848f50003b003a003f
:102c500028003700020c2000828f50002f00320025
:102c6000020f2000828f500034003a002b00370002
:102c70009380e9000200e00005003200810978003d
:102c80001102fb00cfa2de00612bb9002800370043
:102c900081097800114278000482fb008002eb0079
:102ca0006033b8002200370013027800e4005200bd
:102cb0000200e00005003200810978001102be0028
:102cc0004fabde00860378001900370081097800d9
:102cd0001102be006033b800150037009380e90090
:102ce0008109780011027800cfa2de00612bb900c3
:102cf0000f00370093027800e880520081097800c5
:102d00003102be002103be00090037009380e900b4
:102d10000200e00002003200f1ff37009380e9007a
:102d200081097800110278008002eb006033b8005e
:102d30000498be000690be001000050000000500cb
:102d400044082000848f50002500320008003c0019
:102d500014082000848f5000140032002408200042
:102d6000848f500024003200040820000c0037003b
:102d700004092000848f50001f00320004003c0032
:102d800084082000848f500024003a000e00370091
:102d9000040a2000848f500011003200040c20002f
:102da000848f50001d003a000d0037009380e90029
:102db000810978009100780001087800cf91de0049
:102dc0008288be00140037009380e90081097800f2
:102dd0009100780001087800824878000e003700e2
:102de0009380e9008109780091007800010878005b
:102df00082087800080037009380e9008109780094
:102e000091007800010878006112b900612bb900c7
:102e10008498be008690be001000050000000500ea
:102e2000889fbe000004780048009000820478006b
:102e3000808f54000100360080047800090178007a
:102e40005800900050fd0700580090000900400015
:102e500050049800c80090008984500049049800ec
:102e60000048eb004f04be0000000600f287470058
:102e7000889fbe008a9fbe008c9fbe008e1f780078
:102e8000800478000105780002047800830578004a
:102e90006107620002003a008b0f540008003900fd
:102ea000080178008a00780009007800ad0b07005f
:102eb0008b0f540002003900880578001e0037008f
:102ec000088655000c017800f00f5600010036000e
:102ed00002012000010220007e8057005b060700ef
:102ee0008c0678000500370002012000fe805700a4
:102ef000090078009b0b0700f0865600ef8f560004
:102f0000f9ff3e004461de0000ff2f000091b90090
:102f100002014600fe80570009007800910b07006f
:102f20000e00e00004003a00080178008a007800f2
:102f3000090078008b0b07000b0078004f07780022
:102f40004f06be004f05be004f04be002f01b1006a
:102f5000000006000000050000000500000005005c
:102f6000000178000040eb008080fb008180400081
:102f7000e3c3200063c278000404e00003003a00c9
:102f8000f0c3200060c078000000060092017800c5
:102f9000934f520004003a00f0c3200060c0780054
:102fa0000309e800010037000040e800ea4f500044
:102fb000edff360000000600f6874700889fbe0040
:102fc0008a9fbe008c9fbe008e1f7800000578008f
:102fd0000104780083057800040678000000eb0007
:102fe000c0b79f008080eb00d1b79f00e0b79f0083
:102ff000f2b79f000008200080bf9f009800780073
:10300000010078008004eb00010037008904e8002b
:10301000304178000204e0000300320053c2b300e4
:10302000834f5100f9ff3a000900e000040032002c
:10303000090178000a0078004a0b0700188c440048
:103040001807780050c2b3009e4f10003f013a00ad
:103050000e07e8000e0c780010003700cfb0970084
:103060000100a0000b003700cfb097000110a000b6
:1030700008003700cfb097000120a00005003700fe
:10308000cfb097000130a00002003700cfb097000a
:103090000140a000c1b79f00000ce80018007800b4
:1030a00090407800b2c2b30082cf5000f1ff3200ee
:1030b00007003c0002c2b30082cf5000f0ff320094
:1030c00032c2b30082cf500007003a00efff370052
:1030d000d2c2b30082cf5000e0ff320002c3b3007f
:1030e00082cf5000e0ff3200a2c2b30082cf500076
:1030f0000d003a00000ce8001c80e900000e78008a
:1031000010007800e0b79f000000e0000f003d00d5
:10311000cfb097000100a200c1b79f000000ea00f5
:10312000e0b79f000900370065050700e0b79f0082
:1031300001003700000ce800180078009000fb0048
:103140000103b100e98f5000faff36004fb097003d
:103150000008a300020032000010a100c0b79f00c9
:1031600018007800e1c2b30090cf100016003a00ba
:103170008000eb00d1b79f000000e800000c780051
:10318000a1c2b30090cf100006003a00000ce80086
:103190001c80e900000e780010007800d0b79f0076
:1031a0000900370046050700d0b79f00010037002f
:1031b000000ce800180078009000fb000103b1004b
:1031c000e98f5000faff36000800780064ff07001e
:1031d00080467800180078001000fb0044070700c4
:1031e00091062000810f50003800320012003c0090
:1031f00041062000810f5000340032000a003c00dc
:1032000011062000810f50002000320031062000fe
:10321000810f5000a000320051022000810f5000a9
:10322000bc003a00b400370071062000810f500046
:10323000b8003c008800370001072000810f5000d3
:103240005c00320007003c00e1062000810f5000c6
:103250007a003200f1062000810f5000ad003a00e4
:103260003900370051072000810f5000270032003d
:1032700081072000810f50004200320031072000fa
:10328000810f5000a3003a008f0037008d80fb00b3
:103290000c01780000fe2f000f00400055070700ca
:1032a0000000e000a800320018007800000ce800e0
:1032b0009041780002fe2f000f014100f880570076
:1032c0000a00780024ff07000e0037008d80fb0005
:1032d0008c0178001200200000fe2f000f0040003b
:1032e00043fe07000000e00097003200180ce800e1
:1032f00002fe2f000f014100f88057000a007800fd
:103300004ffc070080844400900037008d80fb0054
:103310008c0178000001eb0000fe2f000f00400040
:1033200033fe07000000e00087003200180ce800c0
:1033300002fe2f000f014100f88057000a007800bc
:103340004afd0700efff37008d80fb008c017800fd
:103350000001eb0000fe2f000f00400024fe0700dc
:103360000000e00078003200180ce80002fe2f0098
:103370000f014100f88057000a00780089fc07001f
:10338000e0ff37008d80fb008c0178000001eb002e
:1033900000fe2f000f00400015fe07000000e000b7
:1033a0006900320018007800000ce80090417800b5
:1033b0001c0037008c0178000001eb00010f200099
:1033c00000fe2f000f00400009fe07000000e00093
:1033d0005d003200180ce8000fb097009fb0970016
:1033e0002fb19700bfb19700e00f5000e08f580059
:1033f000e00f5900e08f590009003a00cfb597005f
:103400006fb4970060c32000660607000b027800c7
:10341000880178000001780061c320004700370070
:1034200083c7b30002fe2f000f014100f880570050
:103430000a00780036fd0700b2ff37000b81440018
:103440008d80fb008c01780000fe2f000f004000f3
:103450003bfe07003c0037008d80fb000c0178002c
:1034600000fe2f000f004000e20607000000e00011
:103470003500320018007800000ce8009041780018
:1034800002fe2f000f014100f88057000a0078006b
:10349000b1fe07009bff370000c8b30080cf560085
:1034a00029003a00180ce8001c80e900000e7800a2
:1034b00010407800e0df9f0013002000e2fd2f00a5
:1034c0000f0141000800370000c8b30080cf56004c
:1034d0001d003a00180ce8001c80e900000e78007e
:1034e0008001eb0010017800f88057000a00780096
:1034f00061fc070083ff370000c8b30080cf56008f
:1035000011003a00180ce8004fb29700efb1970095
:10351000080037000e0c78000000eb00c0b79f00d9
:10352000e0b79f000080eb00d0b79f000002eb00e7
:103530008401780012002000c1c320000a00780036
:103540004afe07006fff3700180ce80009007800fa
:103550004f0778004f06be004f05be004f04be0067
:103560006f01b100000006008200fa00889fbe00d3
:103570008a1f78000005780082047800c13f9f0010
:103580000004eb0010003700090278008801780081
:10359000a2f72f000f01410081f72f008f8040001c
:1035a0000a00780084fe070008004000880f5000e1
:1035b00004003d00b0042000b06388000084eb00ec
:1035c00004003700000478004f3897001004e00032
:1035d000edff3a00080078004f0578004f04be0068
:1035e0000080fa00000006000200fa00889fbe007a
:1035f0008104780082007800030178003104900093
:10360000f3060700e10f40000b003200a20020008b
:10361000e68057000800780027060700809cbe005f
:103620008294be0010002000dfb89700810f540084
:1036300001003a00e0ff2f004f04be000080fa00b6
:1036400000000600ea874700889fbe008a9fbe00f0
:103650008c9fbe008e1f7800000478000105780062
:1036600083bf9f00a205900042009000e0b79f003a
:10367000b2049000830078001106780008007800fa
:10368000bb0107008fb897008c0840000b00e000da
:1036900004003a006fb097000000e900f0b79f0007
:1036a00001003700fbb79f00ad0020000007eb00d2
:1036b0001b00370078089000b8109000810f500070
:1036c00003003100b085fb00700c98000800370043
:1036d00008007800e604070080057800e18f4500c7
:1036e00003003a000c00e0005c003c006f00370073
:1036f0000c00e0000c003a00b0022000808f550062
:1037000003003200d0022000808f550006003a00ee
:103710008b4c78008fb897009108e8001e002000bd
:103720000e067800460037008e0f560029003a003a
:103730000c07e800ea8f560004003a00000320005e
:10374000808f550022003a001f003700e88f560096
:103750001f003a008b0078000150a0008007200075
:10376000808f50001a003a00f8089000381090003e
:10377000808f5000030031003180fb00710c9800f5
:103780000200370008007800b9040700b810900064
:103790000100e00003003200f80890008100e90019
:1037a000710c9800ec0307000000e00013003200e9
:1037b0008b747e000fb897001008e8000e067800a2
:1037c0000d0120001e0037008d0020000100370091
:1037d0000007eb0000fd2f000b004000e90f500038
:1037e0000d003600f08f560004003a000b00780000
:1037f000d90307000000e0000d003a0038109000e7
:103800000000e00015003200780890000000e90098
:10381000700c980011003700e88f560004003a0041
:1038200070032000808f550001003400ad0020009f
:103830008b747e000c06e8008fb897009108e800b2
:103840007fb09700800f560004003d00efb0970056
:103850000100e900800f560096ff35000040eb00a4
:1038600080747e00ea8f560005003a000d01780052
:10387000f6805700090078008f0507000400370024
:103880000d017800f68057000900780086050700d2
:10389000009dbe000295be001b0020005fb0970097
:1038a000808f540001003a00ebff2f000b007800de
:1038b0004f0778004f06be004f05be004f04be0004
:1038c000af00b10000000600e6874700889fbe00f9
:1038d0008a9fbe008c9fbe008e1f78000004780077
:1038e000010578000306780022079000420090004e
:1038f00080bf9f00b20490009c057800080078000b
:103900001b0107000b0e40000e00e00002003a0011
:103910008fb897000107e900890678008005eb0061
:103920001c003700f808900038109000808f50007d
:10393000030031003180fb00710c98000700370054
:10394000080078004a040700e10f400003003a0035
:103950000b00e00015003c002100370001fd2f00a6
:1039600080804000e78f500007003600381090003c
:103970000000e0000d003200780890000000e9002f
:10398000700c980009003700805e78008b05e80015
:103990001c0ee8008e8f550004003d008fb8970084
:1039a0000100e900808f5500deff35000040eb008c
:1039b00080f47d0082002000f2805700090078002a
:1039c00039050700009dbe000295be0010002000d2
:1039d000ffb09700818f540001003a00e0ff2f00f4
:1039e0004f0778004f06be004f05be004f04be00d3
:1039f0006f00b10000000600800078001000200079
:103a000002022000828f500004003200e980500042
:103a1000e48f5000010036000000eb0000000600bb
:103a2000889fbe008a9fbe008c9fbe008e1f7800bc
:103a30000004be000205be00840678000a00e00013
:103a4000040032001b06780008007800c800070058
:103a50008c0d4000290790008004eb002100370006
:103a600078089000b8109000810f500003003100da
:103a70003086fb00700c98000800370008007800c2
:103a8000fb03070000067800e10f460003003a0040
:103a90000900e00017003a00200037000a00e000ab
:103aa0000b0032000c007800d3ff07000000e0009c
:103ab00007003200381090000000e0000d003200d6
:103ac000780890000000e900700c980009003700a9
:103ad0000d00e000010032008cf67c008904e80053
:103ae0009b0de8000e00e000ddff32008e8f5400d9
:103af000dbff35000d00e000040032000a00e000aa
:103b0000020032000040eb0080f67c0009f0a700c4
:103b10008904ea000906ea004f66de000c0078001e
:103b20004f0778004f06be004f05be004f04be0091
:103b3000000006000200fa00889fbe0081047800a1
:103b4000820078000301780031049000a00507008e
:103b5000e10f40000b003200a2002000e680570079
:103b600008007800d0040700809cbe008294be004c
:103b700010002000dfb89700810f540001003a00c8
:103b8000e0ff2f004f04be000080fa000000060096
:103b9000e8874700889fbe008a9fbe008c9fbe00ba
:103ba0008e1f7800000478000105780083067800f5
:103bb000a205900042009000f0b79f00b204900070
:103bc0001d06780008007800690007008c0e400090
:103bd0000b00e00004003a00ffb097008100e9000c
:103be00081bf9f00010037008bbf9f00090778004d
:103bf0000006eb003900370078089000b8109000fc
:103c0000810f500003003100b085fb00700c98005c
:103c10000800370008007800950307008005780049
:103c2000e18f450003003a000c00e00032003c0048
:103c30003e0037000b007800c70207000000e000dc
:103c400023003a00e10f56001a003a000b007800fa
:103c5000a704070081072000810f500015003a00db
:103c600000c3b300994f100012003a00f80890000a
:103c700038109000808f5000030031003180fb002d
:103c8000710c9800020037000800780078030700e4
:103c9000b81090000100e00003003200f808900026
:103ca0008100e900710c9800ab0207000000e00001
:103cb00007003a00381090000000e0000e003200cb
:103cc000780890000000e900700c98000a003700a6
:103cd0000b5f78000c06e8009d0ee8000fb8970017
:103ce000800f560004003d00ffb097000100e9007e
:103cf000800f5600c0ff35000040eb0080747e004e
:103d000002012000f48057000900780066040700d3
:103d1000009dbe000295be001b0020006fb0970002
:103d2000808f540001003a00ebff2f000b00780059
:103d30004f0778004f06be004f05be004f04be007f
:103d40008f00b10000000600800078001000200005
:103d500002022000828f500004003200e9805000ef
:103d6000e48f5000010036000000eb000000060068
:103d7000889fbe00000478008004eb000b00370031
:103d8000f1ff07000000e00007003a003810900043
:103d90000000e00010003200780890000000e90008
:103da000700c98000c0037008904e800f8089000b7
:103db00038109000808f5000030031003180fb00ec
:103dc000710c9800eeff3700080078002803070008
:103dd000e10f4000eaff3a00090078004f04be00fe
:103de00000000600889fbe008a1f78000004be0005
:103df000190078001000fb00d3ff07000005eb005e
:103e00000000e0000900320008007800d8ff070039
:103e1000000578001900e800800c78001000fb0015
:103e2000c9ff07000000e000faff3a000a0078002e
:103e30004f0578004f04be00000006001801fa008c
:103e4000889fbe008a9fbe008c9fbe000005780040
:103e500001047800830578000406780068004700b4
:103e6000040009000018eb00720798000008200009
:103e7000000f9800880078000a007800d9ff07003a
:103e800080067800190037007a089000ba10900078
:103e9000810f500003003100b084fb00700d9800ca
:103ea000050037000a007800f1020700800478005e
:103eb000e18f440007003200180078001000fb007a
:103ec000808f5400030032003a109000e9ff2f0069
:103ed000110137009b0de800180ce80088007800fd
:103ee0000a007800bfff07008086460018007800af
:103ef000904078000104e0000300320052c2b30099
:103f000082cf5000e0ff3a009b8d460051c2b300c3
:103f100090cf10008f013a000000e800000c7800fc
:103f20008000eb006107980081067800a1c2b30011
:103f300090cf100002003a00000ce8001d002000a5
:103f400018007800de010700600798006102b900e0
:103f5000612bb9000a007800a002070001003700b9
:103f6000000ce800180078009000fb000103b1008d
:103f7000e98f5000faff360008007800f8fb0700d0
:103f800040579a00180078001000fb00d803070083
:103f900091062000810f50003a00320015003c00cd
:103fa00031062000810f5000a20032000a003c00c0
:103fb000b1052000810f5000dd0032001106200005
:103fc000810f50008900320051022000810f500003
:103fd0005f013a00bb00370041062000810f50000e
:103fe0001900320071062000810f500058013c007a
:103ff0007e00370001072000810f50005b00320077
:1040000007003c00e1062000810f500067003200ed
:10401000f1062000810f50004d013a0033003700b7
:1040200051072000810f50002a0032008107200034
:10403000810f50003e00320031072000810f5000f8
:1040400043013a008e0037008b0178006801470079
:104050008e0078000a00780063fd07008004780075
:104060000900e0003e013500180ce8008004eb0078
:104070000d00e0003a013a004e5192008280fb00b0
:104080000e0037008b017800680147008e00780031
:104090000a0078006bfd0700800478000900e0004a
:1040a0002f013500180ce8008004eb000d00e00043
:1040b0002b013a004e5092008080fb008c0178006a
:1040c000120020000e007800080407008004780029
:1040d000230137008b017800680147008e007800cb
:1040e0000a00780093fe0700160037008b01780065
:1040f000680147008e0078000a007800f2fd070092
:10410000800478000900e00015013500180ce80073
:104110008004eb000d00e00011013a004e509200c7
:104120008080fb008c01780009017800e5ff3700f2
:104130008b017800680147008e0078000a00780043
:1041400093fe0700800478000900e00004013500b8
:10415000180ce8008004eb000d00e00000013a00bc
:104160004e5192008280fb00eeff37008b017800f9
:10417000680147008e0078000a00780084fe07007e
:10418000800478000900e000f5003500180ce80014
:104190008004eb000d00e000f1003a008c01780093
:1041a00009017800010f2000c6ff3700180ce80055
:1041b0001b007800cf80de006109b900009fbe00bf
:1041c0000297be008004eb000d00e000e4003a001e
:1041d0004e5092008080fb008c017800090178002d
:1041e0000e007800c1030700dd0037008b01780066
:1041f000680147008e0078000a007800de000700a2
:10420000800478000900e000d5003500180ce800b3
:104210008004eb000d00e000d1003a004e51920006
:104220008280fb000c0178000e00780090030700ec
:10423000a6ff370000c8b300ce50920080cf5000d8
:10424000c3003a006e0090000000e00002003a0057
:104250001000200060079800180ce8000002eb0036
:104260000d00e00003003a001c80e900000e780019
:10427000100278008b0178000001eb000d00370080
:1042800000c8b3004e519200804f5100b0003a0078
:10429000180ce8000002eb000d00e00003003a00fb
:1042a0001c80e900000e7800100278008b01780075
:1042b00012002000e80047000a007800d8fd07003f
:1042c00082ff370000c8b300ce50920080cf50006c
:1042d0009f003a00180ce800fa0890003a1090008d
:1042e000808f5000030031003180fb00710d980079
:1042f000020037000a007800dd01070051022000ab
:10430000810f500002003a009b0de8009300370037
:104310003a1090008004eb000000e00090003200b2
:104320007a0890000000e900700d98008c003700ba
:1043300000c8b3004e519200804f510084003a00f3
:104340000002eb000d00e00003003a001c80e900d1
:10435000000e7800100278001800e800000c7800c9
:104360008004eb00e1c5b30090cf100002003a00da
:10437000000ce800190020001210200089007800cd
:1043800072004700340f9900300107000040eb0035
:10439000205798001800780090407800d2c2b300ef
:1043a0003e0a910082cf500005003a00000ce80060
:1043b00010c0b3000940500000c798002800370023
:1043c000d2c5b30082cf500025003a00000ce800af
:1043d00010c0b3000940500000f7980020003700db
:1043e0000004e00023003200d3c2b300834f50002a
:1043f00014003a0018009000104078000004e0001b
:1044000010003200814f50000e0032000201e8001f
:10441000020c780078b897001000fb00f20047000b
:10442000008040000200370011c0b30009e85000ce
:10443000f2014700830150009200fb00818f510080
:10444000f9ff3500180078009000fb00810047005c
:1044500012c0b30009415100b2509800000ce800ae
:104460001801780012407800d1c5b300814f500088
:10447000dbff3a000400e0001800320084067800f8
:104480000006eb0003003700895e78000c06e800a8
:104490009b0de8007a089000ba109000810f500040
:1044a00003003100b084fb00700d98000500370058
:1044b0000a007800340f99006d010700800478002d
:1044c0003e0a910009004700305090000004e000cf
:1044d000edff3a00120037009b0de8007a089000cb
:1044e000ba109000810f500003003100b084fb002f
:1044f000700d9800050037000a007800340f99000d
:104500005b010700800478003e0a91000900470023
:10451000305090000004e000efff3a000006eb008e
:104520003a1090000000e000030032007a0890008a
:104530000000e900700d98000c00e000040032005b
:104540000400e000020032000040eb0000727e0038
:10455000180ce800e18f4400010032008004eb00f9
:10456000090078004f06be004f05be004f04be0094
:104570000080fa00000006000000050000000500b1
:104580008400fa00889fbe008a1f7800000578002a
:1045900082047800b13f9f000000eb00c03f9f0005
:1045a000000478000d0037000902780083f72f001f
:1045b0008f814100a2f72f000f01410061f72f000a
:1045c0008f8040000a0078001cfe07008001780000
:1045d0000300e00004003500030444003f38970066
:1045e0001004e000f0ff3a00e18f410003003a00c0
:1045f0000800e00001003a00030478000800780099
:104600004f0578004f04be000080fa00000006004d
:10461000889fbe008a9fbe008c9fbe0080057800e8
:104620008106780002067800eb0c9000081020004c
:104630000c044400080178008000eb0009007800b9
:10464000520007000000e0000100320009045000a1
:10465000080578008c0f5400010036000c05780026
:104660000a017800890078000d00780046f70700fd
:104670000a804400f00d98000884440088159800d2
:10468000e80d98000a0078004f06be004f05be00f6
:104690004f04be00000006008000780010002000db
:1046a00002022000828f500004003200e980500096
:1046b000e48f5000010036000000eb00000006000f
:1046c000889fbe008a1f7800000578000a047800e1
:1046d000984478000805e8000900fb00eeff070099
:1046e0000000e000f9ff3a00b0c2b30080cf5400f0
:1046f00005003200d0c2b3008000eb0080cf540030
:1047000005003a00020037008000eb00010037008e
:10471000110020000804e8000000eb00030037004f
:104720006a02b900020052000003b0003801fb0029
:1047300003fd2f0082814100e98f5100f8ff360010
:104740000100e00001003a000000ea004f05780097
:104750004f04be00000006008000780002fd2f001c
:104760000101410010002000e90f51000500360052
:104770000150a0001106b100e58f50000100360085
:104780000000eb0000000600f3ff37008180fb0013
:10479000010037000201e900800178000008a30051
:1047a000060032000200e000230032003082fb00ed
:1047b000810f5200f7ff3a00030037000000eb00c2
:1047c0000200e0001e0032001380fb00810f500049
:1047d0001c00320014102000048ab9008402780002
:1047e000010037000281e90003007800e10f510069
:1047f0000a00360033826a00f6ef2f0004034300fc
:104800000482ea000402630006082800060262002f
:10481000f4ff3200010037000201e9008001780056
:104820000200e000050032003082fb00810f5200e0
:10483000f9ff3a0003003700000005000000eb001c
:10484000000006000300780000000600889fbe00fc
:104850008a9fbe00800478000200e0005b00320006
:1048600001407800814c780082814400f1f99f007a
:10487000e20f51005500360091449800a144980081
:10488000e1f99f00d1f99f00e60f51004f0036007b
:10489000b1449800c1f99f00e80f51004b00360069
:1048a0000905ea00630565000a8444000a05510011
:1048b000c1ff2f00010565000080fb008000eb00b8
:1048c000121020001310200017080700008cbe00f3
:1048d0000a01440060b99f0071b99f00e80f5500bc
:1048e0003a003600200498003104980040049800f3
:1048f0005104980020b99f0031b99f0040b99f0032
:1049000051b99f00f80f5500300036006004980040
:1049100071049800000c9800110c9800200c98006d
:10492000310c9800400c9800510c980020b19f0069
:1049300031b19f0040b19f0051b19f0060b19f0015
:1049400071b19f0000b99f0011b99f00640164001c
:104950007801410002044400020555006011b800ce
:104960000203be000002be000403be006022b800c5
:104970000000720081807200020173008381730065
:1049800010003700009cbe000294be004004980056
:10499000510498006204980073049800000c980079
:1049a000110c9800220c9800330c9800400c9800d1
:1049b000510c9800620c9800730c98000a02b10028
:1049c0000802b000ff0f5500eeff3e00090078001e
:1049d0004f05be004f04be0000000600889fbe00c9
:1049e0008a9fbe00441098005510980066109800e9
:1049f00077109800f0089000200490000104540003
:104a0000cfc4de00614db90008189800191898004d
:104a10002a1898003b189800e00f5200e08f5a00c7
:104a2000e00f5b00e08f5b000c0032000014900090
:104a300001045400cfc4de00614db9000440e10020
:104a400005c8e10006d0e10007d8e100030034000a
:104a5000048240003410980002003700801090005b
:104a6000311098004f05be004f04be000000060044
:104a70002800fa00889fbe008a1f78000004780092
:104a8000f80890002800900000805000081a90005c
:104a9000981a9000281b9000b81b9000cf80de0071
:104aa000040240008582480006834800878348004e
:104ab00048109000d810900068119000f8119000f4
:104ac000e00f5000e08f5800e00f5900e08f5900d0
:104ad000050032000020e10001a8e10002b0e10081
:104ae00003b8e1000d003d0008007800d4b79f0036
:104af000e5b79f00f6b79f0087bf9f00070207003a
:104b0000800478005fb29700efb297007fb3970000
:104b10008fbb97000900e00016003d007808900068
:104b2000a8009000808050004f89de000482400081
:104b3000850249000603490087034900041c9800c8
:104b4000151c9800261c9800371c980030149800fb
:104b5000f0ff2f00f1ff2f000001be00401498006d
:104b60005114980062149800731498008084eb002c
:104b70005200370061004200e0804a0060014b00b3
:104b8000e0814b0090bf9f00a1bf9f00b2bf9f007c
:104b9000c3bf9f0048129000d81290006813900085
:104ba000f813900094b79f00a5b79f00b6b79f0079
:104bb000c7b79f00e00f5200e08f5a00e00f5b0084
:104bc000e08f5b0028003200780d90000811900003
:104bd0000a0151006112b900612bb900d4af9f00e6
:104be000e5af9f00f6af9f0087b79f001fb097000b
:104bf000afb097003fb19700cfb197001fba9700b1
:104c0000afba97003fbb9700cfbb9700040050009e
:104c100085805800060159008781590090af9f0098
:104c2000a1af9f00b2af9f00c3af9f005faa9700e4
:104c3000efaa97007fab97008fb397000020e100a9
:104c400001a8e10002b0e10003b8e1000600340071
:104c50009fb297001fbb970006815200820045005b
:104c60003114980002003700881390003714980020
:104c700028019000f8089000810151001fba9700a8
:104c8000afba97003fbb9700cfbb97004f98de00ad
:104c9000048241008502480006034800870348005b
:104ca000041c9800151c9800261c9800371c9800be
:104cb000828f500001003e00f9f89f000900780043
:104cc0004f0578004f04be000080fa000000060087
:104cd000881f7800810178000002780080826800d7
:104ce0000508a30002003200210037000201e9009c
:104cf00003007800040478000308a30007003200d2
:104d00000200e00021003200b3407800015a780030
:104d10000104e000f5ff3a00020037000200e00065
:104d20001a0032001004e00003003a0017003700b8
:104d3000031c78000281e90080007800e10f510037
:104d400008003600b0017800f5ef2f0083824200a2
:104d50000382ea000482620005082800050262005e
:104d6000f3ff320008007800010037000201e9007b
:104d7000000478000200e00004003200b141780035
:104d8000035878000304e000f8ff3a008000eb00cd
:104d900008007800adfe0700080078004f04780096
:104da0000000060080007800040037003104e000b5
:104db00002003a00000051000000060001017800e6
:104dc0000108a300f9ff3a00810178003101780061
:104dd000f4ef2f00020242000281ea0002016200a9
:104de0000408280004016100f7ff32008300780006
:104df000010178003104e000fdff3a00000051009d
:104e0000000006004400fa00889fbe008a1f780058
:104e10000004be000205780094bf9f00a5bf9f005c
:104e2000b6bf9f00c7bf9f000000eb00c09f9f0060
:104e3000a8af9f00d89f9f000080eb00b0af9f00fd
:104e40006022b8006033b80060fb2f000f00400004
:104e5000e2fe07001fba9700afba97003fbb97006a
:104e6000cfbb9700120020008a00780060fb2f0063
:104e70000f004000480107000900e0000600320072
:104e80003fb29700afaa970004824200df9a9700d2
:104e900005025200840c44004f0578004f04be0008
:104ea0000080fa0000000600f4ff2f00f5ff2f003d
:104eb0000403be00d3ff37006022b80006002000c4
:104ec00007002800cfff3700f4ff2f00f5ff2f0069
:104ed0006033b800cbff3700040020000500280035
:104ee0006033b800c7ff3700f3ff3700eeff37002d
:104ef000f1fb2f0080804000f98f500001003e0040
:104f00000050a00000000600f9ff3700f1f92f0063
:104f100080804000f98f500001003e00f005b20093
:104f200000000600f9ff37000200fa00881f780031
:104f300000047800e2bf9f006481570008007800f9
:104f40008ffd0700980090000148a3000100320087
:104f50000080eb004f0478000080fa00000006009b
:104f6000f28747008e1f7800020278000301780064
:104f70000000e00002003200000778000100370066
:104f8000728757008002eb000100e0000100320050
:104f90008102e90070805700060009000018eb004c
:104fa0000080eb0080bf9f002310200093bf9f0074
:104fb000aebf9f00b1bf9f00c5bf9f000100e000d2
:104fc00003003d00b1042000b163880006003700f3
:104fd000004feb00eebf9f00debf9f008400780013
:104fe000708057003c0307004f0778002f01b10085
:104ff00000000600881f78000004780000082000e8
:10500000808f50001700350010082000808f50005e
:105010000b00340030082000808f500011003a004f
:105020009200780068805000000978003002be00cd
:105030002003be00049cbe000694be00070037009b
:105040009202780064805200000978001000be00cf
:10505000a1050700009cbe000294be0010002000c5
:10506000010037000000eb004f047800000006004c
:10507000881f780013082000838f50000f00320033
:1050800033082000838f5000040032000308200002
:10509000838f500012003a00080037009280e90028
:1050a00001097800910078003002be002003be00a4
:1050b0008498be008690be00070037009280e90009
:1050c00001097800110478005001be004000be00c4
:1050d000ea050700008cbe00100020000100370028
:1050e0000000eb004f047800000006008408200058
:1050f000848f50001d0032000d003c001408200079
:10510000848f50001e00320002003c000408200082
:105110000400370024082000848f50001e00320055
:1051200044082000848f500028003a0022003700f5
:10513000040a2000848f50001f00320004003c004d
:1051400004092000848f500020003a00120037002c
:10515000020c2000828f500017003200020f200046
:10516000828f500019003a00130037009380e90045
:10517000810978009100780090487800120037008b
:105180009380e9008109780091007800b0187800d8
:10519000a01078000c0037009380e90081097800a6
:1051a000910078003002be002003be008498be004b
:1051b0008690be00040037009380e90081097800e2
:1051c00091007800900878001000050000000500ac
:1051d000889fbe008a9fbe008c9fbe00000478009e
:1051e0000205780021069000c1069000b1059000ec
