:020000040000fa
:080000000002040000000000f2
:020000040000fa
:04000800fc040000f4
:020000040000fa
:04000c0018030000d5
:020000040000fa
:040010005a0300008f
:020000040000fa
:0400140038030000ad
:020000040000fa
:040018007a03000067
:020000040000fa
:04001c00fc040000e0
:020000040000fa
:04002000fc040000dc
:020000040000fa
:04002400fc040000d8
:020000040000fa
:04002800fc040000d4
:020000040000fa
:04002c00fc040000d0
:020000040000fa
:04003000d0030000f9
:020000040000fa
:04003400a80400001c
:020000040000fa
:04003800360400008a
:020000040000fa
:04003c00fc040000c0
:020000040000fa
:04004000fc040000bc
:020000040000fa
:040044007204000042
:020000040000fa
:040048009a03000017
:020000040000fa
:04004c00fc040000b0
:020000040000fa
:04005000fc040000ac
:020000040000fa
:04005400fc040000a8
:020000040000fa
:04005800fc040000a4
:020000040000fa
:04005c00f6030000a7
:020000040000fa
:040060005404000044
:020000040000fa
:04006400fc04000098
:020000040000fa
:04006800fc04000094
:020000040000fa
:04006c00fc04000090
:020000040000fa
:04007000fc0400008c
:020000040000fa
:04007400fc04000088
:020000040000fa
:04007800fc04000084
:020000040000fa
:04007c00fc04000080
:020000040000fa
:04008000fc0400007c
:020000040000fa
:04008400fc04000078
:020000040000fa
:04008800fc04000074
:020000040000fa
:04008c00fc04000070
:020000040000fa
:04009000fc0400006c
:020000040000fa
:04009400fc04000068
:020000040000fa
:04009800fc04000064
:020000040000fa
:04009c00fc04000060
:020000040000fa
:0400a000fc0400005c
:020000040000fa
:0400a400fc04000058
:020000040000fa
:0400a800fc04000054
:020000040000fa
:0400ac00fc04000050
:020000040000fa
:0400b000fc0400004c
:020000040000fa
:0400b400fc04000048
:020000040000fa
:0400b800fc04000044
:020000040000fa
:0400bc00fc04000040
:020000040000fa
:0400c000fc0400003c
:020000040000fa
:0400c400fc04000038
:020000040000fa
:0400c800fc04000034
:020000040000fa
:0400cc00fc04000030
:020000040000fa
:0400d000fc0400002c
:020000040000fa
:0400d400fc04000028
:020000040000fa
:0400d800fc04000024
:020000040000fa
:0400dc00fc04000020
:020000040000fa
:0400e000fc0400001c
:020000040000fa
:0400e400fc04000018
:020000040000fa
:0400e800fc04000014
:020000040000fa
:0400ec00fc04000010
:020000040000fa
:0400f000fc0400000c
:020000040000fa
:0400f400fc04000008
:020000040000fa
:0400f800fc04000004
:020000040000fa
:0400fc00fc04000000
:020000040000fa
:04010000fc040000fb
:020000040000fa
:04010400fc040000f7
:020000040000fa
:04010800fc040000f3
:020000040000fa
:04010c00fc040000ef
:020000040000fa
:04011000fc040000eb
:020000040000fa
:04011400fc040000e7
:020000040000fa
:04011800fc040000e3
:020000040000fa
:04011c00fc040000df
:020000040000fa
:04012000de040000f9
:020000040000fa
:04012400fc040000d7
:020000040000fa
:04012800fc040000d3
:020000040000fa
:04012c00fc040000cf
:020000040000fa
:04013000fc040000cb
:020000040000fa
:04013400fc040000c7
:020000040000fa
:04013800fc040000c3
:020000040000fa
:04013c00fc040000bf
:020000040000fa
:04014000fc040000bb
:020000040000fa
:04014400fc040000b7
:020000040000fa
:04014800fc040000b3
:020000040000fa
:04014c00fc040000af
:020000040000fa
:04015000fc040000ab
:020000040000fa
:04015400fc040000a7
:020000040000fa
:04015800fc040000a3
:020000040000fa
:04015c00fc0400009f
:020000040000fa
:04016000fc0400009b
:020000040000fa
:04016400fc04000097
:020000040000fa
:04016800fc04000093
:020000040000fa
:04016c00fc0400008f
:020000040000fa
:04017000fc0400008b
:020000040000fa
:04017400fc04000087
:020000040000fa
:04017800fc04000083
:020000040000fa
:04017c00fc0400007f
:020000040000fa
:04018000fc0400007b
:020000040000fa
:04018400fc04000077
:020000040000fa
:04018800fc04000073
:020000040000fa
:04018c00fc0400006f
:020000040000fa
:04019000fc0400006b
:020000040000fa
:04019400fc04000067
:020000040000fa
:04019800fc04000063
:020000040000fa
:04019c00fc0400005f
:020000040000fa
:0401a000fc0400005b
:020000040000fa
:0401a400fc04000057
:020000040000fa
:0401a800fc04000053
:020000040000fa
:0401ac00fc0400004f
:020000040000fa
:0401b000fc0400004b
:020000040000fa
:0401b400fc04000047
:020000040000fa
:0401b800fc04000043
:020000040000fa
:0401bc00fc0400003f
:020000040000fa
:0401c000fc0400003b
:020000040000fa
:0401c400fc04000037
:020000040000fa
:0401c800fc04000033
:020000040000fa
:0401cc00fc0400002f
:020000040000fa
:0401d000fc0400002b
:020000040000fa
:0401d400fc04000027
:020000040000fa
:0401d800fc04000023
:020000040000fa
:0401dc00fc0400001f
:020000040000fa
:0401e000fc0400001b
:020000040000fa
:0401e400fc04000017
:020000040000fa
:0401e800fc04000013
:020000040000fa
:0401ec00fc0400000f
:020000040000fa
:0401f000fc0400000b
:020000040000fa
:0401f400fc04000007
:020000040000fa
:0401f800fc04000003
:020000040000fa
:0401fc00fc040000ff
:020000040000fa
:04020800fc040000f2
:020000040000fa
:04020c0018030000d3
:020000040000fa
:040210005a0300008d
:020000040000fa
:0402140038030000ab
:020000040000fa
:040218007a03000065
:020000040000fa
:04021c00fc040000de
:020000040000fa
:04022000fc040000da
:020000040000fa
:04022400fc040000d6
:020000040000fa
:04022800fc040000d2
:020000040000fa
:04022c00fc040000ce
:020000040000fa
:04023000d0030000f7
:020000040000fa
:04023400a80400001a
:020000040000fa
:040238003604000088
:020000040000fa
:04023c00fc040000be
:020000040000fa
:04024000fc040000ba
:020000040000fa
:040244007204000040
:020000040000fa
:040248009a03000015
:020000040000fa
:04024c00fc040000ae
:020000040000fa
:04025000fc040000aa
:020000040000fa
:04025400fc040000a6
:020000040000fa
:04025800fc040000a2
:020000040000fa
:04025c00f6030000a5
:020000040000fa
:040260005404000042
:020000040000fa
:04026400fc04000096
:020000040000fa
:04026800fc04000092
:020000040000fa
:04026c00fc0400008e
:020000040000fa
:04027000fc0400008a
:020000040000fa
:04027400fc04000086
:020000040000fa
:04027800fc04000082
:020000040000fa
:04027c00fc0400007e
:020000040000fa
:04028000fc0400007a
:020000040000fa
:04028400fc04000076
:020000040000fa
:04028800fc04000072
:020000040000fa
:04028c00fc0400006e
:020000040000fa
:04029000fc0400006a
:020000040000fa
:04029400fc04000066
:020000040000fa
:04029800fc04000062
:020000040000fa
:04029c00fc0400005e
:020000040000fa
:0402a000fc0400005a
:020000040000fa
:0402a400fc04000056
:020000040000fa
:0402a800fc04000052
:020000040000fa
:0402ac00fc0400004e
:020000040000fa
:0402b000fc0400004a
:020000040000fa
:0402b400fc04000046
:020000040000fa
:0402b800fc04000042
:020000040000fa
:0402bc00fc0400003e
:020000040000fa
:0402c000fc0400003a
:020000040000fa
:0402c400fc04000036
:020000040000fa
:0402c800fc04000032
:020000040000fa
:0402cc00fc0400002e
:020000040000fa
:0402d000fc0400002a
:020000040000fa
:0402d400fc04000026
:020000040000fa
:0402d800fc04000022
:020000040000fa
:0402dc00fc0400001e
:020000040000fa
:0402e000fc0400001a
:020000040000fa
:0402e400fc04000016
:020000040000fa
:0402e800fc04000012
:020000040000fa
:0402ec00fc0400000e
:020000040000fa
:0402f000fc0400000a
:020000040000fa
:0402f400fc04000006
:020000040000fa
:0402f800fc04000002
:020000040000fa
:0402fc00fc040000fe
:020000040000fa
:04030000fc040000f9
:020000040000fa
:04030400fc040000f5
:020000040000fa
:04030800fc040000f1
:020000040000fa
:04030c00fc040000ed
:020000040000fa
:04031000fc040000e9
:020000040000fa
:04031400fc040000e5
:020000040000fa
:04031800fc040000e1
:020000040000fa
:04031c00fc040000dd
:020000040000fa
:04032000de040000f7
:020000040000fa
:04032400fc040000d5
:020000040000fa
:04032800fc040000d1
:020000040000fa
:04032c00fc040000cd
:020000040000fa
:04033000fc040000c9
:020000040000fa
:04033400fc040000c5
:020000040000fa
:04033800fc040000c1
:020000040000fa
:04033c00fc040000bd
:020000040000fa
:04034000fc040000b9
:020000040000fa
:04034400fc040000b5
:020000040000fa
:04034800fc040000b1
:020000040000fa
:04034c00fc040000ad
:020000040000fa
:04035000fc040000a9
:020000040000fa
:04035400fc040000a5
:020000040000fa
:04035800fc040000a1
:020000040000fa
:04035c00fc0400009d
:020000040000fa
:04036000fc04000099
:020000040000fa
:04036400fc04000095
:020000040000fa
:04036800fc04000091
:020000040000fa
:04036c00fc0400008d
:020000040000fa
:04037000fc04000089
:020000040000fa
:04037400fc04000085
:020000040000fa
:04037800fc04000081
:020000040000fa
:04037c00fc0400007d
:020000040000fa
:04038000fc04000079
:020000040000fa
:04038400fc04000075
:020000040000fa
:04038800fc04000071
:020000040000fa
:04038c00fc0400006d
:020000040000fa
:04039000fc04000069
:020000040000fa
:04039400fc04000065
:020000040000fa
:04039800fc04000061
:020000040000fa
:04039c00fc0400005d
:020000040000fa
:0403a000fc04000059
:020000040000fa
:0403a400fc04000055
:020000040000fa
:0403a800fc04000051
:020000040000fa
:0403ac00fc0400004d
:020000040000fa
:0403b000fc04000049
:020000040000fa
:0403b400fc04000045
:020000040000fa
:0403b800fc04000041
:020000040000fa
:0403bc00fc0400003d
:020000040000fa
:0403c000fc04000039
:020000040000fa
:0403c400fc04000035
:020000040000fa
:0403c800fc04000031
:020000040000fa
:0403cc00fc0400002d
:020000040000fa
:0403d000fc04000029
:020000040000fa
:0403d400fc04000025
:020000040000fa
:0403d800fc04000021
:020000040000fa
:0403dc00fc0400001d
:020000040000fa
:0403e000fc04000019
:020000040000fa
:0403e400fc04000015
:020000040000fa
:0403e800fc04000011
:020000040000fa
:0403ec00fc0400000d
:020000040000fa
:0403f000fc04000009
:020000040000fa
:0403f400fc04000005
:020000040000fa
:0403f800fc04000001
:020000040000fa
:0403fc00fc040000fd
:020000040000fa
:100400002f9120000e7f22000e01880000000000c6
:10041000000020000000e000020032000001200087
:100420002002880014000700750107000000e000aa
:1004300003003a00a07f22000100200002003700e4
:100440000000200001002000810f70000100320038
:1004500014000700000020000000e000020032004d
:1004600000000200000000007c0e020000000000fe
:100470000040da000000fe004440a90040082000cf
:100480000000e000030032000020200090018800fe
:100490004440a800000006008a1f78008b1f7800e7
:1004a00000000600a1028800800478000000eb0034
:1004b0001f003700e284440054a0b4009905ba003c
:1004c000e284440054a0b4009906ba00e2844400d7
:1004d00054a0b4000006eb00476fde00fd07b20039
:1004e000ae018800636ce10003003a00eaff0700f8
:1004f0000000eb000e003700606ce10008003a00dd
:10050000004deb000a05e800020039003420ec0041
:100510000af0a0008b05e900f9ff3e000400370057
:100520006168e100010032000086eb000b0007006b
:1005300019c7ba001905ba000e04e00003003a001a
:100540000a00e000dbff3a0000000600fe07b200f0
:10055000ae0288008a047800f5ff37000cd0a300b3
:10056000e20f4d001c00390089027800354dba00b9
:100570000a05e800020039003420ec000af0a0006f
:100580008b05e9000f003200254dba000a05e8008e
:10059000020039003420ec000af0a0008b05e900cd
:1005a000080032000c00e0000600320015cdba0051
:1005b0000a05e800020039003420ec000af0a0002f
:1005c0008b05e9008984e80054a0b4000b00e0002a
:1005d000e2ff3a00000006009902ba00055d7800cb
:1005e0008b05e900f7ff3200c82ade00055d7800c0
:1005f0008b05e900f3ff32000c00e000f1ff320050
:1006000019ddba00eeff37001624040000000000d8
:10061000ca28040000000000ce24040000000000ee
:1006200086250400000000005c0e040000000000ad
:100630003600f800809fbe00829fbe00849fbe00ef
:10064000869fbe000000fa008020a9000000eb0099
:10065000831307000080fa004f03be004f02be0064
:100660004f01be004f00be003600f90000400600fa
:100670003600f800809fbe00829fbe00849fbe00af
:10068000869fbe000000fa007c1307008040a9008e
:1006900010002000721307000080fa004f03be0014
:1006a0004f02be004f01be004f00be003600f900f1
:1006b000004006003600f800809fbe00829fbe000a
:1006c000849fbe00869fbe000000fa008060a900e3
:1006d00020002000621307000080fa004f03be00d4
:1006e0004f02be004f01be004f00be003600f900b1
:1006f000004006003600f800809fbe00829fbe00ca
:10070000849fbe00869fbe000000fa008080a90082
:1007100030002000521307000080fa004f03be0093
:100720004f02be004f01be004f00be003600f90070
:10073000004006003600f800809fbe00829fbe0089
:10074000849fbe00869fbe000000fa002046800005
:100750000000e0000200320020468000000001009e
:10076000d0902000104078008040e800d090200019
:1007700001487800c090200011c0b3000148780003
:100780008500a9000080fa004f03be004f02be00a2
:100790004f01be004f00be003600f90000400600c9
:1007a0003600f800809fbe00829fbe00849fbe007e
:1007b000869fbe000000fa002004800064006000f4
:1007c0000000e00002003200800e07008440a90013
:1007d0000080fa004f03be004f02be004f01be0072
:1007e0004f00be003600f900004006003600f80059
:1007f000809fbe00829fbe00849fbe00869fbe0079
:100800003200f8003400f80010002000a001880039
:1008100000202000900188000000fa0021048000e0
:1008200000002200008060000000e00006003200ae
:10083000404680000000e000020032004046800098
:100840000000010085a0a9000080fa003400f90032
:100850003200f9004f03be004f02be004f01be0040
:100860004f00be003600f900004006003600f800d8
:10087000809fbe00829fbe00849fbe00869fbe00f8
:100880000000fa00e70007008480a9000080fa0059
:100890004f03be004f02be004f01be004f00be001e
:1008a0003600f900004006003600f800809fbe00c8
:1008b000829fbe00849fbe00869fbe000000fa009b
:1008c000db00070085c0a9000080fa004f03be00ce
:1008d0004f02be004f01be004f00be003600f900bf
:1008e000004006003600f800809fbe00829fbe00d8
:1008f000849fbe00869fbe000000fa007046800004
:100900000000e0000200320070468000000001009c
:10091000f0902000104078008040e800f090200027
:1009200001487800e090200011c0b3000148780031
:1009300084e0a9000080fa004f03be004f02be0011
:100940004f01be004f00be003600f9000040060017
:100950003600f800809fbe00829fbe00849fbe00cc
:10096000869fbe000000fa00804680000000e00084
:10097000020032008046800000000100109120003b
:10098000104078008040e800109120000148780075
:100990000091200011c0b300014878008460a900d4
:1009a0000080fa004f03be004f02be004f01be00a0
:1009b0004f00be003600f900004006003600f80087
:1009c000809fbe00829fbe00849fbe00869fbe00a7
:1009d0000000fa00c40a07008bc0a9000080fa00da
:1009e0004f03be004f02be004f01be004f00be00cd
:1009f0003600f900004006000040da000000fe006a
:100a0000000005006022b800060220000000d000af
:100a10008180d2000482d2008582d2000000a00032
:100a20000202520083825a00030031000202420097
:100a300083824a000000a1000603e900f3ff3a00a8
:040a400000000600ac
:020000040000fa
:100a44006c690000667400002061000074200000de
:100a5400746f000070200000666c00006f6f00006f
:100a64007220000020200000202000002000000050
:100a74006c690000667400002061000074200000ae
:100a8400626f0000747400006f6d00002066000047
:100a94006c6f00006f720000200000006c690000a1
:100aa4006674000020620000657400007765000031
:100ab400656e0000206600006c6f00006f7200001d
:100ac4007320000020000000466c00006f6f0000df
:100ad400722000005377000069740000636800000e
:100ae40020460000617500006c74000020210000a5
:100af4002121000021200000200000000d00000042
:100b0400534600002c31000000530000522c00001a
:100b1400333200003030000030300000300000007c
:100b2400534e00002c4a0000756c000069610000ff
:100b34006e4200004c450000005200002c310000c1
:080b4400004100000000000068
:020000040000fa
:100b4c000000fa0010002000001c8800008020002b
:100b5c00201c88000080eb00301c880080212000c5
:100b6c00401c880000802300501c880000002f00cf
:100b7c00601c88008e23ef009023ef008480a90076
:100b8c009480a80080202000901c880000e02200a7
:100b9c00a01c88009623ef009823ef009a23ef0007
:100bac0085c0a90095c0a8009c23ef009e23ef00f0
:100bbc00a023ef00a223ef00a423ef008700a900dd
:100bcc00a623ef00a823ef00aa23ef00ac23ef002d
:100bdc00ae23ef008880a900b023ef00b223ef0012
:100bec00b423ef00b623ef00b823ef0089c0a900af
:100bfc00ba23ef00bc23ef00be23ef00c023ef00ad
:100c0c00c223ef008ba0a9008803a8009203a800c0
:100c1c000080fa00000006000000fa000080fa00d4
:100c2c00000006000000fa000080fa000000060038
:100c3c000000fa000080fa00000006000000fa0034
:100c4c003104800000102000008060000000e000f3
:100c5c0002003200f6ff07008700a9000080fa00ae
:100c6c00000006000000fa000080fa0000000600f8
:100c7c000000fa0040048000700060000000e000fa
:100c8c0002003200f7ff07008880a9000080fa00fc
:100c9c00000006000000fa000080fa0000000600c8
:100cac000000fa0041048000000024000080600075
:100cbc000000e00002003200f6ff070089c0a90026
:100ccc000080fa00000006000000fa000080fa0024
:100cdc00000006000000fa00510480000000220011
:100cec00008060000000e00002003200f6ff070008
:100cfc008ba0a9000080fa00000006000200fa0098
:100d0c00000f78001e007800e20f50001200320035
:100d1c00e20f500005003e000000e0000a00320027
:100d2c00e10f50000a00320013003700e40f5000ae
:100d3c000d003200e40f500009003900e50f50009f
:100d4c000b0032000c0037008803a8000a003700a3
:100d5c009203a800080037009c03a8000600370087
:100d6c00a603a80004003700b003a8000200370057
:100d7c00ba03a800000000000080fa000000060082
:100d8c000200fa00000f78001e007800e20f5000fd
:100d9c0012003200e20f500005003e000000e0009f
:100dac000a003200e10f50000a0032001300370035
:100dbc00e40f50000d003200e40f50000900390020
:100dcc00e50f50000b0032000c0037008803a9001f
:100ddc000a0037009203a900080037009c03a90001
:100dec0006003700a603a90004003700b003a900d1
:100dfc0002003700ba03a900000000000080fa00ce
:100e0c00000006000400fa00000f7800110798009b
:100e1c001e007800e20f500014003200e20f500068
:100e2c0005003e000000e0000a003200e10f500017
:100e3c000b00320019003700e40f50001100320093
:100e4c00e40f50000c003900e50f50001000320088
:100e5c00120037009e009000811c88000f003700a4
:100e6c009e009000d11c88000c0037009e00900062
:100e7c00211d8800090037009e009000711d88001c
:100e8c00060037009e009000c11d8800030037004b
:100e9c009e009000111e8800000000000080fa00e7
:100eac00000006000200fa00000f78001e00780017
:100ebc00e20f500012003200e20f500005003e001d
:100ecc000000e0000a003200e10f50000a0032007e
:100edc0013003700e40f50000d003200e40f5000f7
:100eec0009003900e50f50000b0032000c003700f0
:100efc00801c80000b003700d01c800009003700dc
:100f0c00201d800007003700701d80000500370091
:100f1c00c01d800003003700101e80000100370048
:100f2c000000eb000080fa00000006000200fa004e
:100f3c00000f78001e007800e20f50001200320003
:100f4c00e20f500005003e000000e0000a003200f5
:100f5c00e10f50000a00320013003700e40f50007c
:100f6c000d003200e40f500009003900e50f50006d
:100f7c000b0032000c0037008903a8000a00370070
:100f8c009303a800080037009d03a8000600370053
:100f9c00a703a80004003700b103a8000200370023
:100fac00bb03a800000000000080fa00000006004f
:100fbc000400fa00000f7800110798001e0078005a
:100fcc00e20f500014003200e20f500005003e000a
:100fdc000000e0000a003200e10f50000b0032006c
:100fec0019003700e40f500011003200e40f5000dc
:100ffc000c003900e50f50001000320012003700d1
:10100c009e009000611c88000f0037009e0090002d
:10101c00b11c88000c0037009e009000011d880058
:10102c00090037009e009000511d88000600370013
:10103c009e009000a11d8800030037009e009000c8
:10104c00f11d8800000000000080fa00000006007e
:10105c000400fa00000f7800110798001e007800b9
:10106c00e20f500014003200e20f500005003e0069
:10107c000000e0000a003200e10f50000b003200cb
:10108c0019003700e40f500011003200e40f50003b
:10109c000c003900e50f5000100032001200370030
:1010ac009e009000711c88000f0037009e0090007d
:1010bc00c11c88000c0037009e009000111d880098
:1010cc00090037009e009000611d88000600370063
:1010dc009e009000b11d8800030037009e00900018
:1010ec00011e8800000000000080fa0000000600cd
:1010fc000200fa00000f78001e007800e20f50008a
:10110c0022003200e20f500005003e000000e0001b
:10111c000a003200e10f5000120032004300370089
:10112c00e40f50002d003200e40f50002100390074
:10113c00e50f5000330032003c003700401c8000ab
:10114c004800de00614060000080fb0000f0a7005a
:10115c000000ea000000ea004f00de0000407800ca
:10116c0033003700901c80004800de0061406000b6
:10117c000080fb0000f0a7000000ea000000ea007d
:10118c004f00de000040780029003700e01c800092
:10119c004800de00614060000080fb0000f0a7000a
:1011ac000000ea000000ea004f00de00004078007a
:1011bc001f003700301d80004800de0061406000d9
:1011cc000080fb0000f0a7000000ea000000ea002d
:1011dc004f00de000040780015003700801d8000b5
:1011ec004800de00614060000080fb0000f0a700ba
:1011fc000000ea000000ea004f00de00004078002a
:10120c000b003700d01d80004800de0061406000fc
:10121c000080fb0000f0a7000000ea000000ea00dc
:10122c004f00de0000407800010037000040eb006a
:10123c000080fa00000006000200fa00000f78009f
:10124c001e007800e20f500022003200e20f500026
:10125c0005003e000000e0000a003200e10f5000e3
:10126c001200320043003700e40f50002d00320012
:10127c00e40f500021003900e50f5000330032001c
:10128c003c003700501c80004f00de00004078000e
:10129c000080fb0000f0a7000000ea000000ea005c
:1012ac004f00de000040780033003700a01c8000a7
:1012bc004f00de00004078000080fb0000f0a7002b
:1012cc000000ea000000ea004f00de000040780059
:1012dc0029003700f01c80004f00de000040780031
:1012ec000080fb0000f0a7000000ea000000ea000c
:1012fc004f00de00004078001f003700401d8000ca
:10130c004f00de00004078000080fb0000f0a700da
:10131c000000ea000000ea004f00de000040780008
:10132c0015003700901d80004f00de000040780053
:10133c000080fb0000f0a7000000ea000000ea00bb
:10134c004f00de00004078000b003700e01d8000ed
:10135c004f00de00004078000080fb0000f0a7008a
:10136c000000ea000000ea004f00de0000407800b8
:10137c00010037000040eb000080fa00000006007e
:10138c000200fa00000f78001e007800e20f5000f7
:10139c0022003200e20f500005003e000000e00089
:1013ac000a003200e10f50001200320043003700f7
:1013bc00e40f50002d003200e40f500021003900e2
:1013cc00e50f5000330032003c003700501c800009
:1013dc004700de00614060000080fb0000f0a700c9
:1013ec000000ea000000ea004f00de000040780038
:1013fc0033003700a01c80004700de006140600015
:10140c000080fb0000f0a7000000ea000000ea00ea
:10141c004f00de000040780029003700f01c8000ef
:10142c004700de00614060000080fb0000f0a70078
:10143c000000ea000000ea004f00de0000407800e7
:10144c001f003700401d80004700de006140600037
:10145c000080fb0000f0a7000000ea000000ea009a
:10146c004f00de000040780015003700901d800012
:10147c004700de00614060000080fb0000f0a70028
:10148c000000ea000000ea004f00de000040780097
:10149c000b003700e01d80004700de00614060005b
:1014ac000080fb0000f0a7000000ea000000ea004a
:1014bc004f00de0000407800010037000040eb00d8
:1014cc000080fa00000006000200fa00000f78000d
:1014dc001e007800e20f500022003200e20f500094
:1014ec0005003e000000e0000a003200e10f500051
:1014fc001200320043003700e40f50002d00320080
:10150c00e40f500021003900e50f50003300320089
:10151c003c003700501c80004600de00614060003b
:10152c000080fb0000f0a7000000ea000000ea00c9
:10153c004f00de000040780033003700a01c800014
:10154c004600de00614060000080fb0000f0a70058
:10155c000000ea000000ea004f00de0000407800c6
:10156c0029003700f01c80004600de00614060005e
:10157c000080fb0000f0a7000000ea000000ea0079
:10158c004f00de00004078001f003700401d800037
:10159c004600de00614060000080fb0000f0a70008
:1015ac000000ea000000ea004f00de000040780076
:1015bc0015003700901d80004600de006140600081
:1015cc000080fb0000f0a7000000ea000000ea0029
:1015dc004f00de00004078000b003700e01d80005b
:1015ec004600de00614060000080fb0000f0a700b8
:1015fc000000ea000000ea004f00de000040780026
:10160c00010037000040eb000080fa0000000600eb
:10161c000200fa00000f78001e007800e20f500064
:10162c0022003200e20f500005003e000000e000f6
:10163c000a003200e10f5000120032004300370064
:10164c00e40f50002d003200e40f5000210039004f
:10165c00e50f5000330032003c003700501c800076
:10166c004500de00614060000080fb0000f0a70038
:10167c000000ea000000ea004f00de0000407800a5
:10168c0033003700a01c80004500de006140600084
:10169c000080fb0000f0a7000000ea000000ea0058
:1016ac004f00de000040780029003700f01c80005d
:1016bc004500de00614060000080fb0000f0a700e8
:1016cc000000ea000000ea004f00de000040780055
:1016dc001f003700401d80004500de0061406000a7
:1016ec000080fb0000f0a7000000ea000000ea0008
:1016fc004f00de000040780015003700901d800080
:10170c004500de00614060000080fb0000f0a70097
:10171c000000ea000000ea004f00de000040780004
:10172c000b003700e01d80004500de0061406000ca
:10173c000080fb0000f0a7000000ea000000ea00b7
:10174c004f00de0000407800010037000040eb0045
:10175c000080fa00000006000200fa00000f78007a
:10176c001e007800e20f500022003200e20f500001
:10177c0005003e000000e0000a003200e10f5000be
:10178c001200320043003700e40f50002d003200ed
:10179c00e40f500021003900e50f500033003200f7
:1017ac003c003700501c80004300de0061406000ac
:1017bc000080fb0000f0a7000000ea000000ea0037
:1017cc004f00de000040780033003700a01c800082
:1017dc004300de00614060000080fb0000f0a700c9
:1017ec000000ea000000ea004f00de000040780034
:1017fc0029003700f01c80004300de0061406000cf
:10180c000080fb0000f0a7000000ea000000ea00e6
:10181c004f00de00004078001f003700401d8000a4
:10182c004300de00614060000080fb0000f0a70078
:10183c000000ea000000ea004f00de0000407800e3
:10184c0015003700901d80004300de0061406000f1
:10185c000080fb0000f0a7000000ea000000ea0096
:10186c004f00de00004078000b003700e01d8000c8
:10187c004300de00614060000080fb0000f0a70028
:10188c000000ea000000ea004f00de000040780093
:10189c00010037000040eb000080fa000000060059
:1018ac000200fa00000f78001e007800e20f5000d2
:1018bc0022003200e20f500005003e000000e00064
:1018cc000a003200e10f50001200320043003700d2
:1018dc00e40f50002d003200e40f500021003900bd
:1018ec00e50f5000330032003c003700501c8000e4
:1018fc004400de00614060000080fb0000f0a700a7
:10190c000000ea000000ea004f00de000040780012
:10191c0033003700a01c80004400de0061406000f2
:10192c000080fb0000f0a7000000ea000000ea00c5
:10193c004f00de000040780029003700f01c8000ca
:10194c004400de00614060000080fb0000f0a70056
:10195c000000ea000000ea004f00de0000407800c2
:10196c001f003700401d80004400de006140600015
:10197c000080fb0000f0a7000000ea000000ea0075
:10198c004f00de000040780015003700901d8000ed
:10199c004400de00614060000080fb0000f0a70006
:1019ac000000ea000000ea004f00de000040780072
:1019bc000b003700e01d80004400de006140600039
:1019cc000080fb0000f0a7000000ea000000ea0025
:1019dc004f00de0000407800010037000040eb00b3
:1019ec000080fa00000006000000fa004023a90065
:1019fc000080fa00000006000200fa00000f7800d8
:101a0c000080fa00000006000400fa00100798009d
:101a1c001e0090008000eb00e2002000030020007c
:101a2c00820f5000838f58003d003e000060010083
:101a3c000e0037001000370012003700140037007a
:101a4c0016003700180037001a0037001c0037004a
:101a5c001e0037002000370022003700240037001a
:101a6c0026003700280037002a00370001188000b4
:101a7c00010f78002b00370011188000010f78003f
:101a8c002800370021188000010f7800250037004e
:101a9c0031188000010f78002200370041188000b7
:101aac00010f78001f00370051188000010f7800db
:101abc001c00370061188000010f780019003700f6
:101acc0071188000010f7800160037008118800013
:101adc00010f78001300370091188000010f780077
:101aec0010003700a1188000010f78000d0037009e
:101afc00b1188000010f78000a003700c11880006f
:101b0c00010f780007003700d1188000010f780012
:101b1c0004003700e1188000010f78000100370045
:101b2c00000000001e0078000080fa000000060093
:101b3c000200fa00004f7800d902070080c7b300fa
:101b4c00f20207000040eb00f00207001e40780094
:101b5c00ee020700db0207008000200001002000dd
:101b6c004a0e07000080fa00000006000200fa008e
:101b7c00004f7800ca02070080c7b300e3020700d9
:101b8c0000c4b300e10207001e407800df0207002a
:101b9c00cc02070000322000010020003b0e0700a1
:101bac000080fa00000006000000fa0000902000ff
:101bbc00d1032000350e070080c3b300dcff070003
:101bcc0090c3b300daff070000902000d10320007f
:101bdc002e0e070040c1b300d5ff0700f0c7b300bd
:101bec00d3ff0700f0c5b300d1ff07000048280061
:101bfc00e1012000250e0700c0c6b300ccff070092
:101c0c0000502300c1002000200e070080c3b30049
:101c1c00c7ff070000502300c10020001b0e070067
:101c2c00d0c0b300c2ff070000502300c100200049
:101c3c00160e070010c0b300bdff0700008823007c
:101c4c0011002000110e070060c0b300b8ff0700a0
:101c5c0000a82100610020000c0e070000c4b30096
:101c6c00b3ff070000482800e1012000070e070021
:101c7c000080fa00000006000200fa00000f780055
:101c8c00040037001e007800104078001e0fe8009a
:101c9c00b6ff07001e007800104078000004e0003a
:101cac00f8ff3a000080fa00000006000000fa007d
:101cbc00601780004300de00614060000004a20059
:101ccc00614060000080fb00610060004300dd00ab
:101cdc00611780000130a1000100700060178800be
:101cec0041ff07000080fa00000006000000fa0027
:101cfc00c50d0700803e200056020700540b07005c
:101d0c00f70a07009a0a0700880b07002b0b07003d
:101d1c00ce0a0700b7040700020d070040002000a0
:101d2c0035ff070030ff0700c0e52000bf0a0700a1
:101d3c00c60a070010090700240907001045800097
:101d4c003c0907000010200034090700d9070700e0
:101d5c00f5070700e04580000d0807000010200083
:101d6c0005080700c482a900d442a900d482a900a6
:101d7c00d5e2a900e402a900e4a2a900e4e2a900ca
:101d8c00e4c2a800ec02a800ec22a800ec42a800d7
:101d9c00ec62a800ec82a900eca2a900ecc2a8009d
:101dac00ece2a900ed02a900ed82a800f4e2a80083
:101dbc00f5c2a900f5e2a9007bff0700008823000b
:101dcc0011002000b10d070000c8b30058ff070038
:101ddc000088230011002000ac0d0700103a800091
:101dec00000178000260a100600420007105200051
:101dfc00237420008049780081497800824978005a
:101e0c001136800000fc2f00008060003000b30011
:101e1c00103688002135800000fc2f000080600007
:101e2c003000b30020358800103a800000017800a3
:101e3c000260a000600420007105200023742000c3
:101e4c00804978008149780082497800dd62a800d9
:101e5c00dd42a90000a82100610020008b0d0700c5
:101e6c00f806070000a8210061002000870d07007c
:101e7c0005003700000000000300370000000000e0
:101e8c00010037000000000000c8b30028ff070065
:101e9c0000882300110020007c0d0700408f2000db
:101eac0075ff07000088230011002000770d070044
:101ebc0000ccb3001eff0700008823001100200097
:101ecc00720d070000882300110020006f0d070021
:101edc0000882300110020006c0d070011168000f3
:101eec0000042000008060000000e0000d003a00bb
:101efc001116800000202000008060000000e0002f
:101f0c0008003200205228005bff0700005023001d
:101f1c00c10020005d0d070000502300c10020000f
:101f2c005a0d070011168000002020000080600070
:101f3c000000e00007003a001116800000042000a9
:101f4c00008060000000e00002003200a053280076
:101f5c0049ff070000502300c10020004b0d070073
:101f6c001116800000202000008060000000e000be
:101f7c000700320011168000000420000080600071
:101f8c000000e00002003200005528003aff070074
:101f9c0000502300c10020003c0d070011168000ea
:101fac0000202000008060000000e00007003a00e4
:101fbc001116800000042000008060000000e0008a
:101fcc0002003a00605628002bff0700008823000f
:101fdc00110020002d0d07000088230011002000a7
:101fec002a0d07004000200087fe0700b1aa2a0036
:101ffc000100b8004208de008002b0007041880089
:10200c003000200080fe0700c11220000180b900c2
:10201c000000780070458800200020007afe070040
:10202c00b04588001000200077fe0700b1aa2a00f6
:10203c000100b8004208de008002b00010458800a4
:10204c000000eb0070fe070040408800600020009c
:10205c006dfe070000408800d116800000002400af
:10206c00008060000000e00001003a007628ef00dc
:10207c00d116800000002400008060000000e00009
:10208c000200320010002000b04388001045800090
:10209c0068080700e4a2a900511680000000210086
:1020ac00008060000000e00020003200511680002b
:1020bc0000002200008060000000e0001b003a00dd
:1020cc001116800000022000008060000000e0007b
:1020dc000d003200f0408000e10f50000a003a0081
:1020ec00c0408000e10f500007003a001828ef00b4
:1020fc0020418000ea0f500003003c00204180008a
:10210c000000e8002041880020418000e90f5000c9
:10211c0006003400e4a2a900ecc2a8001e28ef00bf
:10212c002428ef0010002000804188005116800008
:10213c0000002100008060000000e0000900320077
:10214c005116800000002200008060000000e000ba
:10215c0004003a00e4a2a900ecc2a900100020007f
:10216c0090418800d04080000000e0000d0032005b
:10217c00804080000000e0000a003a001a28ef00be
:10218c00a1418000f00f2000808f500003003c0024
:10219c00a04180000000e800a0418800a041800020
:1021ac0024080700a141800020062000808f5000e9
:1021bc0004003400300620001e0807001000200028
:1021cc0080408800511680000000220000806000d2
:1021dc000000e000050032005116800000002100d4
:1021ec00008060000000e0000a00320090168000c1
:1021fc00620060000000e0000600320090418000a8
:10220c00e10f500003003a00e4a2a90020032000d3
:10221c0008080700511680000000220000806000b2
:10222c000000e00010003a00511680000000210070
:10223c00008060000000e0000b003a00e0408000ed
:10224c000000e00008003a00a0002000f907070099
:10225c00a0002000a04188001028ef00e4a2a800f4
:10226c003028ef003228ef005116800000002200c9
:10227c00008060000000e00025003a00511680004c
:10228c0000002100008060000000e00020003a0007
:10229c00e0408000e10f50001d003a001116800054
:1022ac0000022000008060000000e0000d00320001
:1022bc0010418000e10f50000a003a00c04080003d
:1022cc000000e000070032001828ef0030418000c9
:1022dc00ea0f500003003c00304180000000e80091
:1022ec003041880030418000e90f50000800340074
:1022fc00a0002000cf070700a0002000a04188000c
:10230c001028ef00e4a2a8002228ef002628ef00f6
:10231c00f4e2a800d11680000002200000806000ca
:10232c000000e0001b00320051168000000022006b
:10233c00008060000000e00016003a003a28ef0030
:10234c00d04180000000e000120032005809070064
:10235c000000e0000f0032005b090700e041800044
:10236c000000e800e0418800e14180000045800069
:10237c00808f50000300350010002000d0418800f1
:10238c003c28ef00d0418000e10f500001003a00e2
:10239c005016800010178000620060000000e00002
:1023ac0001003200ece2a80010178000620060000f
:1023bc000000e00001003a00ece2a900d016800019
:1023cc00d0168000111680000002200000806000f2
:1023dc000000e00001003a004a28ef00c2a2a80069
:1023ec00c2c2a900101680004600de0061406000e9
:1023fc000004e00006003a00c2e2a90010168000ba
:10240c004700de00614060000004e000070032007d
:10241c00204280000000e00004003a001000200080
:10242c00204288001000200040428800c2a2a9006f
:10243c00101680004500de00614060000004e000e2
:10244c000a003a0011168000000420000080600091
:10245c000000e00008003200111680000008200087
:10246c00008060000000e000030032004428ef0010
:10247c004a28ef004828ef00d0168000d0168000c4
:10248c0067090700e10f50007afe3a006a0907005d
:10249c0010002000204488001000200030448800e8
:1024ac0010002000504488001000200030438800a9
:1024bc001000200030428800004480000000e8003a
:1024cc00004488001000200010448800a0438000c5
:1024dc000000e800a0438800804280000000e80073
:1024ec0080428800e04280000000e800e042880062
:1024fc0010002000e043880010002000d04088002d
:10250c008142800040458000808f500002003500e1
:10251c00a628ef005028ef00e142800070458000b3
:10252c00808f50000300350010002000d04288003e
:10253c005c28ef00d0428000e10f500002003a000e
:10254c00ed02a900ec02a800d04280000000e000df
:10255c0002003a00ed02a800ec02a900d11680009e
:10256c0000002200008060000000e0000200320049
:10257c005a28ef005c28ef00a1438000c045800082
:10258c00808f5000120035007428ef00c482a80020
:10259c00d442a800d5e2a800d442a800c482a80066
:1025ac00a01780004e00de00614060000004a20015
:1025bc00614060000080fb00610060004e00dd00a7
:1025cc00a117800001e0a10001007000a017880095
:1025dc0040428000e10f500028fe3a00100020001d
:1025ec002042880030428000e10f500003003a0086
:1025fc00504280000000e800504288004628ef005e
:10260c005142800020458000808f500003003c0028
:10261c00ec82a80010002000404288002045800079
:10262c008080e80050428000808f5000040034000d
:10263c004428ef00204280000000e00011fe320030
:10264c00ec82a9004a28ef004428ef004828ef004c
:04265c000dfe370038
:020000040000fa
:102660000400fa00008fbe0017e2a9001e00be00a1
:1026700000004000818048000001be000090200062
:10268000d1032000dff80700000078000000e90017
:10269000a010880017e2a80000a821006100200017
:1026a0007d0b07000080fa00000006000000fa0021
:1026b0001602a80000000000b01080006100600059
:1026c0000000e000fcff3a000080fa000000060075
:1026d0000000fa001642a80000000000b0108000c0
:1026e000640060000000e000fcff3a000080fa0097
:1026f000000006000000fa001622a80000000000fa
:10270000b0108000620060000000e000fcff3a00b2
:102710000080fa00000006000200fa00004f780076
:102720001e80fb009010880000000000c110800097
:1027300000002400008060000000e000fbff3a0081
:10274000c1108000000028000080600000f0a70099
:102750000000ea000000e9004f00de0000407800c1
:102760000080fa00000006000400fa0020479800ec
:102770001662a80000000000c01080006200600027
:102780000000e000fcff320000108000004f7800e5
:102790002e4090000004e000020032000040eb00f8
:1027a0000100370010c0b3000080fb006100600032
:1027b0004500dd00b11080000150a1000100700053
:1027c000b01088001682a80000000000b010800041
:1027d000700060000000e000fcff3a001e4078003e
:0827e0000080fa000000060071
:020000040000fa
:1028000000000000000000000000000000000000c8
:1028100000000000000000000000000000000000b8
:1028200000000000000000000000000000000000a8
:102830000000000000000000000000000000000098
:020000040000fa
:103000000000fa0050052000303b8800a00a200094
:10301000303b880027a6a80027e6a9001d0007006e
:103020000004a2000004e0000c00320031318000f6
:103030000030200001007000303188005002200074
:10304000203188006050200020318800302120008d
:1030500020318800208124002031880000202000b9
:103060004031880027e6a80027a6a9009bc0a80039
:103070000080fa00000006000200fa00004f78000d
:103080001e417800218d2000824878000080fa00df
:10309000000006000000fa00d2c8bf000080fa005d
:1030a000000006000400fa0010079800313180008b
:1030b00000002100008060000000e00002003200fb
:1030c0000040eb003a003700313180000030200032
:1030d000010070003031880021318000010f78003c
:1030e0001e00780000407800f00007008080fb00a0
:1030f0001e0090005100980021318000010f7800df
:103100001e0078004800de0000407800e70007005d
:103110008080fb001e009000410098001e00780097
:1031200000407800e10007008080fb001e00900056
:103130003100980021318000010f78001e007800d6
:103140004800de0000407800d80007008080fb00c7
:103150001e009000610098001e007800004078007a
:10316000d20007008080fb001e0090002100980024
:1031700021318000010f78001e0078004800de0039
:1031800000407800c90007008080fb001e0090000e
:10319000110098001e00780000407800c30007006e
:1031a0008080fb001e0090000108780010c0b30072
:1031b0000080fa00000006000200fa00881f780074
:1031c000000f780051052000313b8800a10a200043
:1031d000313b880027a6a80027e6a9008bc0a900dc
:1031e0009bc0a90031318000003020000100700038
:1031f000303188001e0078005000900000407800b8
:10320000930007000080fb00203188001e0078003a
:1032100040009000004078008d0007000080fb0017
:103220004804dd001e007800300090000040780067
:10323000870007000080fb00080070002031880034
:103240001e007800600090000040780080000700b9
:103250000080fb004804dd001e0078002000900084
:10326000004078007a0007000080fb000800700032
:10327000203188001e007800100090000040780087
:10328000730007000080fb004804dd001e0078008a
:1032900010007800004078006d0007000080fb00ff
:1032a000080070002031880027e6a80027a6a900a2
:1032b0009bc0a8004f0478000080fa0000000600c0
:1032c0000400fa001007980031318000000021004e
:1032d000008060000000e000020032000040eb00cf
:1032e0002e003700313180000030200001007000d6
:1032f0003031880021318000010f78009e00780075
:103300001e0090005100980021318000010f7800cc
:103310001e0078004800de00800078001e0090004b
:10332000410098009e007800f00f2000808060002f
:103330001e0090003100980021318000010f7800bc
:103340001e0078004800de00800078001e0090001b
:10335000610098009e007800f00f200080806000df
:103360001e0090002100980021318000010f78009c
:103370001e0078004800de00800078001e009000eb
:10338000110098009e007800f00f200080806000ff
:103390001e0090000108780010c0b3000080fa0001
:1033a000000006000200fa00000f7800510520001e
:1033b000313b8800a10a2000313b880027a6a800e5
:1033c00027e6a9008bc0a9009bc0a900313180006d
:1033d0000030200001007000303188001e007800ad
:1033e00050009000203188001e00780040009000be
:1033f000c800dd001e007800300090000100700061
:10340000203188001e00780060009000c800dd00b8
:103410001e0078002000900001007000203188001c
:103420001e00780010009000c800dd001e0078002b
:1034300010007800010070002031880027e6a80005
:1034400027a6a9009bc0a8000080fa000000060083
:103450000400fa00204798002e4090008080fb0076
:10346000d0cc2c000008b8004308de0000407800f3
:103470004400dd00004f78002e4090000081fb00ea
:10348000d0cc2c000010b8004308de006a00b90060
:103490000000780000005100004078001e4f7000ce
:1034a0001e4078000080fa00000006000400fa00c8
:1034b000204798002e4090000080fb004400de0072
:1034c000004078006a00b900000078008040780071
:1034d0002e4090006f40600000cf40001e407800fa
:1034e0000080fa00000006000000fa000080fa00e8
:1034f000000006000000fa00ffff37000000fa009d
:10350000ffff37001600fa00881f78006000b8003f
:103510006011b800300798004107980052079800e2
:10352000630798006000b8006011b8007007980049
:10353000010f9800120f9800230f980004402100fb
:10354000051020000400be0009030700008fbe0024
:1035500050052000a10a2000740207001e00be00d2
:1035600097020700404798004e4090000004a200d8
:103570000004e00001003200deff070030232200db
:10358000110120003007980041079800605625007f
:103590004104200050079800610798003e00900009
:1035a000ce0090000001be001e00be009702070082
:1035b000404798004e4090000084fb005e00900061
:1035c000ee00900022002000030020003e02410097
:1035d000ae8249000001be000400be008b0207005d
:1035e0000080fb000000640000f0a7000000ea007b
:1035f0000000ea004f00de00404798004e40900077
:103600000004a2000004e00001003200b9ff07003e
:103610004b0207001e00be005d0207007007980005
:10362000010f980022002000030020003e0041000e
:10363000ae80490056020700100f9800210f980035
:103640003e019000ce0190007e0090008e08900018
:10365000800f5100818f590007003a005e019000f1
:10366000ee0190001e089000ae089000800f5100ff
:10367000818f590001003200a0ff07004f0478003d
:103680000080fa00000006000e00fa000040210051
:1036900001102000b60207002007980031079800ab
:1036a00050052000a10a2000200207002e009000f3
:1036b000be00900042020700004f98000e489000a4
:1036c0000004a2000004e0000100320089ff0700ae
:1036d0006000b800008fbe00110037002e0090007f
:1036e000be0090003e014000ae8148000200be00d6
:1036f0001e01be0045020700004f98000e489000d2
:103700000004a2000004e0000100320079ff07007d
:1037100022002000030020001e0f41005e97490098
:10372000f03f2000010020001e01be00800f51006c
:10373000818f5900e9ff3600010207006000b800e0
:10374000008fbe00120037002e009000be009000d7
:103750003e014000ae8148000200be000c0207009e
:1037600050079800610798005e009000ee009000fe
:10377000be0f5000ae8f5800010032005fff0700ff
:1037800022002000030020001e0f41005e97490028
:10379000f03f2000010020001e01be00800f5100fc
:1037a000818f5900e8ff36000080fa000000060013
:1037b0000000fa0053ff0700b3ff07000080fa0083
:1037c000000006000000fa00103a800000017800b6
:1037d0000260a10060042000710520002374200015
:1037e000804978008149780082497800113680004c
:1037f00000fc2f00008060003000b300103688000d
:103800002135800000fc2f00008060003000b300f4
:1038100020358800103a8000000178000260a00086
:103820006004200071052000237420008049780086
:10383000814978008249780021e2a9002062a9002c
:10384000900120004011880000502300c10020009a
:10385000110707000111800090ff2f000080600019
:10386000001188002002a90000502300c1002000a0
:10387000090707002342a80021e2a800ec42a800a3
:103880000080fa00000006000200fa00004f7800f5
:103890000000000011118000002020000080600066
:1038a0000000e000fbff3a001e00fb002011880032
:1038b0000080fa00000006000200fa00000f780005
:1038c000040037001e007800104078001e0fe8004a
:1038d000edff07001e007800104078000004e000b3
:1038e000f8ff3a000080fa00000006000000fa002d
:1038f0000000000010118000610060000000e00086
:10390000fcff320030118000004078000080fa0097
:10391000000006000800fa00200798003107980010
:103920000000eb00000f7800f0ff07002047980030
:103930003e0090000000e9009e0f50000600340099
:103940001e007800ae00900000804000ae40900065
:10395000014878001e0fe8002e409000ea4f50000a
:10396000030032002e409000ed4f5000eeff3a0071
:103970001e007800ae009000008040008040eb0008
:10398000014878000080fa00000006000200fa00fa
:10399000000f78001e007800c7ff070000582800bd
:1039a000c5ff07000080fa00000006000400fa00ce
:1039b000000f7800110798009e0090001e0078000c
:1039c000d4ff07000080fa00000006000000fa00a3
:1039d0007cff0700d962a900d942a900dd62a800d6
:1039e000dd42a90000a8210061002000aa0607000e
:1039f00020582800e5ff070000a8210061002000f2
:103a0000a506070070582800e0ff070000a8210065
:103a100061002000a006070020592800dbff0700f6
:103a200000a82100610020009b060700f059280033
:103a3000d6ff070000482800e10120009606070095
:103a4000305a2800d1ff07000080fa00000006006d
:103a50000000fa0000022000101288001000200070
:103a600020128800c0002800001288000080fa00a0
:103a7000000006000400fa00000f7800110798000b
:103a80000000000000128000620060000000e00002
:103a9000fcff3a001e007800104078000080fb0018
:103aa0004012880000000000011280000002200087
:103ab000008060000000e000fbff3a004012800040
:103ac000804078001e009000014878000080fa00d5
:103ad000000006001800fa00100f9800210f98004f
:103ae000320f98000000eb00000f78000000eb00a0
:103af000100798000000eb00700798000000eb0032
:103b0000000f980010002000600798001e08900029
:103b10000000e00005003a000000eb0050079800ac
:103b2000700047002007980004003700ee00900066
:103b3000510798009e089000210798003e089000c9
:103b40000000e00005003a000000eb00400798008c
:103b50006e0047003007980005003700ee00900027
:103b600041079800be08900031079800000000004f
:103b700000128000620060000000e000fcff3a00dc
:103b80001d00370000128000620060000000e000ad
:103b900009003a002e009000104078000080fb00e1
:103ba00040128800ae0090005e009000008040004f
:103bb000200798001e0fe80001128000000220007c
:103bc000008060000000e0000b003a00401280001e
:103bd000804078003e00900001487800be009000d0
:103be0004e00900000804000300798001e009000ba
:103bf0000000e800100798002e0890009e00780052
:103c0000808f5000dfff3900100037000112800064
:103c100000022000008060000000e0000b003a007d
:103c200040128000804078003e00900001487800fb
:103c3000be0090004e0090000080400030079800c9
:103c40001e0090000000e800100798009e00900001
:103c50002e089000808f5000ecff39001e00780085
:103c60000080fa00000006000400fa0020479800d7
:103c70000e80e8008e0078007eff07001e4078006e
:103c80000080fa00000006000600fa00000f78002d
:103c900011079800220798002e0190009e009000c6
:103ca0001e0078008bff07000080fa00000006006d
:103cb0000000fa00001280000080fa0000000600f8
:103cc0000000fa0060c02100d00c8800f001200044
:103cd000e00c880000002800f00c8800000520009f
:103ce000000d8800d00c8000004078006740600024
:103cf0000080fb00504688000080fa0000000600ab
:103d00000000fa000080fa00000006000000fa003f
:103d10002104800000042000008060000000e0001a
:103d200002003200f6ff070084c0a9000080fa00fc
:103d3000000006000000fa005046800000407800b5
:103d4000674060000080fb0067006000d20c8000cc
:103d500081ff2f008100610001007000d00c8800fd
:103d60000080fa00000006000000fa00d10c80007c
:103d700080ff2f0000806000d00c88000080fa00d7
:103d8000000006000200fa00000f78009e00780094
:103d9000f10c88000080fa00000006000200fa0022
:103da000000f78009e007800010d88000080fa0066
:103db000000006000000fa00200480004600de003b
:103dc000614060000080fb0000f0a7000000ea00f6
:103dd0000000ea004f00de00004078000080fa009a
:103de000000006000400fa00100798001e00900072
:103df000e10f50000f003200e10f500003003900c6
:103e0000e20f5000150032001e003700d00c800079
:103e10004400de00614060000080fb0000f0a7006d
:103e20000000ea000000ea004f00de00004f7800ca
:103e300014003700d00c80004500de0061406000b7
:103e40000080fb0000f0a7000000ea000000ea008c
:103e50004f00de00004f78000a003700d00c8000d1
:103e60004600de00614060000080fb0000f0a7001b
:103e70000000ea000000ea004f00de00004f78007a
:103e8000000000001e4078000080fa0000000600dc
:103e90000200fa00000f78001e007800e10f5000c9
:103ea00007003200e10f500003003900e20f50001c
:103eb00005003200060037009a81a900040037008f
:103ec0009aa1a900020037009ac1a90000000000d1
:103ed0000080fa00000006000000fa009cc1a80063
:103ee0000080fa00000006000000fa00e00c8000ec
:103ef0004600de00614060000080fb0000f0a7008b
:103f00000000ea000000ea004f00de0000407800f8
:103f10000080fa00000006000000fa009cc1a90021
:083f20000080fa000000060019
:020000040000fa
:103f28000000fe0082902000001978000109780046
:103f3800000006000000fe000000eb008000eb001f
:103f4800f8ff07006627ef00000006000000fe00eb
:103f5800801f7800811f7800819020000600fc00f7
:103f680031007800303b880011007800303b880031
:103f780061e7a8000000000000000000cf00780002
:103f88004f00780000000600a2028000a10288000d
:103f98009080ba001000ba00a20288000000060053
:103fa800a2028000a10288001000ba00a2028800c4
:103fb800000006000000fe0061e7af00feff3700ca
:103fc800f23f2000000161000c003a0022042400a6
:103fd800023b8800a2028000a10288000008bb0002
:103fe800ac1f02000000000061e7af00feff3700d1
:103ff800a20288001000200061a7af000000200086
:104008000000060061e7af00feff37000000a700d0
:104018000d003700a4028000a102880031002400ae
:10402800013b88000208bb000388bb00ac1f0200ec
:104038000000000061e7af00feff3700a40288001f
:104048001000200061a7af0000002000000006005b
:1040580061e7af00feff37000000a7000e00370041
:1040680033002400033b8800a3028000a1028800db
:104078000208bb00f20f20000288bb00ac1f020040
:104088000000000061e7af00feff3700a3028800d0
:104098001000200061a7af0000002000000006000b
:1040a80061e7af00feff3700f30720008081610061
:1040b80010003a0013002400033b8800a30280008c
:1040c800a1028800040420003208bb003298bb001b
:1040d8001400b100fcff3a00ac1f02000000000011
:1040e80061e7af00feff3700a30288001000200040
:1040f80061a7af00000020000000060061e7af00e4
:10410800feff3700f30720008081610011003a00ac
:1041180013002400033b8800a3028000a10288004a
:1041280004042000f10f20003208bb000198bb00f6
:104138001400b100fcff3a00ac1f020000000000b0
:1041480061e7af00feff3700a302880010002000df
:1041580061a7af000000200000000600f23f200029
:10416800000061000000060002c02f00000061008e
:0c417800f2ff2f00810061000000060033
:020000040000fa
:104184000000fa00e0c02100800c8800f00120004b
:10419400900c880000002800a00c8800001020006b
:1041a400b00c8800800c80000040780067406000fc
:1041b4000080fb00304688008440a9009440a80099
:1041c4000080fa00000006000000fa000080fa00f7
:1041d400000006000000fa0030468000004078002d
:1041e400674060000080fb0067006000820c800074
:1041f40081ff2f008100610001007000800c8800a5
:104204000080fa00000006000000fa00810c800023
:1042140080ff2f0000806000800c88000080fa007e
:10422400000006000200fa00000f78009e007800eb
:10423400a10c88000080fa00000006000200fa00c9
:10424400000f78009e007800b10c88000080fa000e
:10425400000006000000fa00200480004200de0096
:10426400614060000080fb0000f0a7000000ea004d
:104274000000ea004f00de00004078000080fa00f1
:10428400000006000400fa00100798001e009000c9
:10429400e10f50000f003200e10f5000030039001d
:1042a400e20f5000150032001e003700800c800021
:1042b4004400de00614060000080fb0000f0a700c5
:1042c4000000ea000000ea004f00de00004f780022
:1042d40014003700800c80004500de00614060005f
:1042e4000080fb0000f0a7000000ea000000ea00e4
:1042f4004f00de00004f78000a003700800c800079
:104304004600de00614060000080fb0000f0a70072
:104314000000ea000000ea004f00de00004f7800d1
:10432400000000001e4078000080fa000000060033
:104334000200fa00000f78001e007800e10f500020
:1043440007003200e10f500003003900e20f500073
:1043540005003200060037009081a90004003700f0
:1043640090a1a9000200370090c1a900000000003c
:104374000080fa00000006000000fa0092c1a800c4
:104384000080fa00000006000000fa00900c800093
:104394004600de00614060000080fb0000f0a700e2
:1043a4000000ea000000ea004f00de000040780050
:1043b4000080fa00000006000000fa0092c1a90083
:1043c4000080fa00000006000000fa00c802a900fc
:1043d400c822a900c842a800cc22a9000088230052
:1043e400110020002b040700cc22a8000088230021
:1043f4001100200027040700cc02a8000040eb00b5
:10440400020007000080fa00000006000200fa0023
:10441400004f7800cc02a9001e80fb0094fd070029
:10442400cc02a8000080fa00000006000400fa0094
:10443400889fbe008a9fbe00008fbe00cc02a900e8
:104444001e00be00400ade0005002000f00f200020
:10445400010020000403780005027800800278003f
:10446400810078000500630081006200810178000a
:10447400000178000200be007dfd07001e00be00a2
:10448400c809de00480add004801de0002017200ae
:10449400f00f2000010020000202780003017800e0
:1044a40080017800810078000300620081006100cf
:1044b40081057800000578000a00be006cfd070045
:1044c400f00f2000010020001e01be00020278004f
:1044d4000301780080017800810078000300620005
:1044e4008100610081047800000478000800be00a7
:1044f4005ffd07000000eb005dfd0700cc02a80093
:104504000000eb005afd0700004078004f05be0094
:104514004f04be000080fa00000006000600fa0006
:10452400889fbe008a9fbe00008fbe00424798004d
:10453400cc02a9001e00be004008de0001002000dd
:104544000070a0004afd07001e00be00c809de007e
:10455400480add004801de0002017200f00f20006d
:104564000100200002027800030178008001780035
:1045740081007800030062008100610081057800f9
:10458400000578000a00be0039fd0700f00f200086
:10459400010020001e01be00020278000301780021
:1045a40080017800810078000300620081006100ce
:1045b40081047800000478000800be002cfd070088
:1045c4004e4090000080fb0029fd0700cc02a800ab
:1045d4004f05be004f04be000080fa000000060034
:1045e4000200fa00000f78000080fa0000000600c4
:020000040000fa
:1045f4000400fa00008fbe0007e2a9001e00be00fe
:1046040000004000818048000001be0000902000ae
:10461400d1032000faf00700000078000000e90050
:104624002010880007e2a80000fa20000100200002
:10463400980307000080fa00000006000000fa005a
:104644000602a80000000000301080006100600035
:104654000000e000fcff3a000080fa0000000600c1
:104664000000fa000642a80000000000301080009c
:10467400640060000000e000fcff3a000080fa00e3
:10468400000006000000fa000622a8000000000056
:1046940030108000620060000000e000fcff3a007f
:1046a4000080fa00000006000200fa00004f7800c3
:1046b4001e80fb00101088000000000041108000e4
:1046c40000002400008060000000e000fbff3a00ce
:1046d40041108000000028000080600000f0a70066
:1046e4000000ea000000e9004f00de00004078000e
:1046f4000080fa00000006000400fa002047980039
:104704000662a80000000000401080006200600003
:104714000000e000fcff320000108000004f780031
:104724002e4090000004e000020032000040eb0044
:104734000100370010c0b3000080fb00610060007e
:104744004500dd00311080000150a100010070001f
:10475400301088000682a80000000000301080009d
:10476400700060000000e000fcff3a001e4078008a
:104774000080fa00000006000000fa000a21ef00a1
:10478400a0612000700888000003280090088800b9
:10479400204680000000e00002003a006041220050
:1047a400240007008500a9009500a800c0902000ff
:1047b4008040eb00014878000080fa000000060009
:1047c4000200fa00000f78009e007800710888004b
:1047d400c09020008040eb00014878000080fa007f
:1047e400000006000000fa00700880000080fa0053
:1047f400000006000200fa00000f78009e00780016
:1048040051088800c09020008040eb0001487800e7
:104814000080fa00000006000000fa005008800042
:104824000080fa00000006000000fa000080fa0090
:10483400000006000200fa00000f78009500a900ad
:104844009e007800214688009500a8000080fa00a8
:10485400000006000000fa00c09020008040eb0039
:10486400014878009500a80013e1a8000080fa0030
:10487400000006000000fa0013e1a9009500a90059
:104884000080fa00000006000200fa00c090200038
:10489400104f78001e4078000004e000030032004e
:1048a400c09020008040eb00014878001e40780052
:1048b4000080fa00000006000000fa00d0902000fa
:1048c400104078000080fb000080fa000000060021
:1048d4000000fa00d09020008040eb0001487800ee
:1048e4000080fa00000006000000fa000621ef0034
:1048f4009086210060088800000228008008880053
:10490400704680000000e00002003a00e04c220003
:104914002400070084e0a90094e0a800e0902000af
:104924008040eb00014878000080fa000000060097
:104934000200fa00000f78009e00780061088800e9
:10494400e09020008040eb00014878000080fa00ed
:10495400000006000000fa00600880000080fa00f1
:10496400000006000200fa00000f78009e007800a4
:1049740031088800e09020008040eb000148780076
:104984000080fa00000006000000fa0030088000f1
:104994000080fa00000006000000fa000080fa001f
:1049a400000006000200fa00000f780094e0a9005d
:1049b4009e0078007146880094e0a8000080fa0008
:1049c400000006000000fa00e09020008040eb00a8
:1049d4000148780094e0a80011e1a8000080fa00e2
:1049e400000006000000fa0011e1a90094e0a9000b
:1049f4000080fa00000006000200fa00e0902000a7
:104a0400104f78001e4078000004e00003003200dc
:104a1400e09020008040eb00014878001e407800c0
:104a24000080fa00000006000000fa00f090200068
:104a3400104078000080fb000080fa0000000600af
:104a44000000fa00f09020008040eb00014878005c
:104a54000080fa00000006000000fa000021ef00c8
:104a6400f07c20001008880000002800200888003e
:104a7400804680000000e00002003a0060582200f6
:104a8400240007008460a9009460a800009120001d
:104a94008040eb00014878000080fa000000060026
:104aa4000200fa00000f78009e00780011088800c8
:104ab400009120008040eb00014878000080fa005b
:104ac400000006000000fa00100880000080fa00d0
:104ad400000006000200fa00000f78009e00780033
:104ae40001088800009120008040eb000148780014
:104af4000080fa00000006000000fa0000088000b0
:104b04000080fa00000006000000fa000080fa00ad
:104b1400000006000200fa00000f78009460a9006b
:104b24009e007800814688009460a8000080fa0006
:104b3400000006000000fa00009120008040eb0015
:104b4400014878009460a80005e1a8000080fa00fc
:104b5400000006000000fa0005e1a9009460a90025
:104b64000080fa00000006000200fa000091200014
:104b7400104f78001e4078000004e000030032006b
:104b8400009120008040eb00014878001e4078002e
:104b94000080fa00000006000000fa0010912000d6
:104ba400104078000080fb000080fa00000006003e
:104bb4000000fa00109120008040eb0001487800ca
:104bc4000080fa00000006000000fa0080002000c7
:104bd400001188002222ef00700620004011880096
:104be40021e2a8002342a8000080fa000000060089
:104bf4000000fa0000000000101180006100600055
:104c04000000e000fcff3200101180006200600030
:104c14000000e000010032002222a90030118000cf
:104c2400004078000080fa00000006000200fa004c
:104c3400004f7800000000001111800000202000c7
:104c4400008060000000e000fbff3a001e80fb00d3
:104c5400201188000080fa00000006000000fa001d
:104c64001011800000407800614060000080fb006b
:104c740000f0a7000000ea000000ea004f00de0098
:104c8400004078000080fa00000006000000fa00ee
:104c94001111800000202000008060000000e0006e
:104ca40007003a00111180000040200000806000dd
:104cb4000000e00002003200100020000100370074
:104cc4000000eb00004078000080fa0000000600bd
:104cd4000000fa00101180004800de00614060000e
:104ce4000080fb0000f0a7000000ea000000ea00da
:104cf4004f00de00004078000080fa00000006004b
:104d04000000fa00101180000080fa000000060084
:104d14000000fa0021e2a8002342a8000080fa0063
:104d2400000006000000fa0021e2a9002342a900c5
:104d34000080fa00000006000000fa003040200065
:104d4400000a8800c0002000100a8800000a8000c1
:104d540000407800674060000080fb0060468800e7
:104d64000080fa00000006000000fa000080fa004b
:104d7400000006000000fa002004800062006000c9
:104d84000000e00002003200f7ff07008420a900c1
:104d94000080fa00000006000000fa00604680006f
:104da40000407800674060000080fb0067006000fe
:104db400020a800081ff2f00810061000100700061
:104dc400000a88000080fa00000006000000fa00d3
:104dd400010a800080ff2f0000806000000a880024
:104de4000080fa00000006000000fa00200a80009b
:104df4000080fa00000006000000fa0042c1a8008a
:104e04000080fa00000006000000fa00100a80008a
:104e14004600de00614060000080fb0000f0a70057
:104e24000000ea000000ea004f00de0000407800c5
:104e34000080fa00000006000000fa0042c1a90048
:104e44000080fa00000006000000fa00000a80005a
:104e54004400de00614060000080fb0000f0a70019
:104e64000000ea000000ea004f00de000040780085
:104e74000080fa00000006000000fa00000a80002a
:104e84006800600000f0a7000000ea000000e900ec
:104e94004f00de00004078000080fa0000000600a9
:104ea4000000fa008001200020168800cc22ef00c8
:104eb400d422ef0020502000e0168800e422ef0006
:104ec400ec22ef00c0202000a0178800f06e2c0018
:104ed400001688000080eb0040168800a000210026
:104ee4008016880070ef2f00c0168800f031200073
:104ef40000178800e822ef00f030230080178800b4
:104f04005620ef005820ef005a20ef005c20ef00fd
:104f14005e20ef006020ef006e20ef007020ef00b5
:104f24007220ef007420ef007620ef007820ef006d
:104f3400c622ef00ce22ef00d622ef00de22ef00e1
:104f4400e622ef00ee22ef00f622ef00e024ef006d
:104f5400c03f200010278800e424ef0000c0200098
:104f640030278800002020004027880000302000df
:104f740060278800113a8000f00b20000081600057
:104f8400600420007105200023742000804978000b
:104f940081497800824978001136800000fc2f0096
:104fa400008060002001b30010368800a136800024
:104fb400f00f2c00808060000030210001007000a0
:104fc400a0368800103a8000000178000260a0003a
:104fd40060042000710520002374200080497800bb
:104fe40081497800824978000080fa0000000600b8
:020000040000fa
:104ff400080900000400000082000000ffffff0019
:10500400ff000000d4080000200000008000000021
:10501400c20800000200000082000000ffff000040
:10502400be08000004000000800000000c0900001d
:105034000200000080000000c4080000020000001c
:1050440080000000c608000002000000800000008c
:10505400c80800000200000080000000ca08000028
:105064000200000080000000cc08000002000000e4
:10507400800000000e090000020000008000000013
:10508400ce080000020000008000000010090000ab
:105094000200000080000000d008000002000000b0
:1050a40080000000d2080000020000008000000020
:1050b400f40800001400000082000000576573002b
:1050c40073657800204c690066742000636f2000cb
:1050d4004c7464000000000000080000960000000a
:1050e40080000000960800002800000082000000f4
:1050f400010064000064000028009600002c0100f8
:105104002c01230000010000b80b010000d00700af
:105114005a0001000019000001003200000a0000da
:0c5124001e000000010000000000000060
:020000040000fa
:105130000000fa0040002800001a88008043200088
:10514000101a880010002000201a88004823ef0061
:1051500000f22700701a8800403f2000801a880063
:105160005223ef005423ef005623ef005823ef00a3
:105170006023ef006223ef006423ef00de24ef00e2
:10518000a08c22000600070095a0a8000080fa006d
:10519000000006000000fa000080fa00000006008f
:1051a0000200fa00000f78001e00780040468800d8
:1051b0000080fa00000006000000fa004023a8006a
:1051c0000080fa00000006000000fa004023a90059
:1051d0000080fa00000006000800fa00300798007e
:1051e000101a80004200de007f4060000080fb005b
:1051f0002007980000302000100798000000eb0006
:10520000000f78000b0037001e00780000004000ff
:10521000be009000008040009e0090009100780049
:10522000010878001e0090000080e8001007980038
:105230001e0fe8009e0078002e009000808f500026
:10524000f1ff36001e0078000080fa000000060022
:105250000000fa0011068000f08f2f00008060002f
:105260000080a0001006880051058000f0f82f0093
:10527000008060000040a0005005880051058000bb
:10528000f08f2f00008060000080a0005005880093
:105290003105800080ff2f00008060000000a0002a
:1052a0003005880021058000f08f2f00008060000d
:1052b0000080a000200588004105800080ff2f00ad
:1052c000008060000000a0004005880031058000db
:1052d000f0ff28000080600000c0a00030058800ba
:1052e00021058000f0ff28000080600000c0a000c1
:1052f000200588000080fa00000006000200fa0085
:10530000000f78000300370000fa200001002000a1
:10531000610007001e00780000f0a7000000ea000e
:105320000000ea004f00de00004078001e0fe90098
:105330000004e000f4ff3a000080fa0000000600dc
:105340000200fa00000f7800050037000008200076
:10535000010020005000070001fe2f001e8f4000ba
:105360001e007800ff0f5000f8ff3e0003003700da
:105370004000200001002000470007001e007800c8
:1053800000f0a7000000ea000000ea004f00de0085
:10539000004078001e0fe9000004e000f4ff3a002e
:1053a0000080fa00000006000000fa000000230060
:1053b000203a88004827ef004e27ef007027ef00c3
:1053c0007227ef007427ef007627ef007a27ef00af
:1053d0007c27ef007200200080072000a109200038
:1053e0003374200080497800814978008249780030
:1053f0000001eb00600420007105200023742000f0
:105400008049780081497800824978000080fa005c
:10541000000006000000fa00a2fe0700e2ff0700fd
:105420008bff07008af90700e8fd070055fb07001e
:105430008bf407002dfd07006efc07003cff070002
:10544000cefc07001efa07003cfe0700ecf6070042
:10545000beed070081fd07000080fa000000060095
:105460000200fa00000f78009e00780011468800c4
:105470000000fe000080fa00000006000000fa00b4
:10548000408d200080077800c08e20000001880039
:085490000080fa000000060094
:020000040000fa
:10549800f03fb1000180b10006003500ee030900bd
:1054a80000000000403fb1000180b100fbff3d005b
:1054b8001000b000203fb000020035000080090055
:0854c8000000000000000600d6
:020000040000fa
:1054d0000000fa00401f200088ff07000080fa004b
:1054e000000006000000fa0000352c0094ff0700c1
:1054f0000080fa0000000600809fbe00ec8057008c
:1055000031007800f045880011007800c0e8b7004d
:085510004f00be000000060080
:020000040000fa
:020000040002f8
:04aff000ffff00005f
:020000040000fa
:020000040002f8
:04aff400fffe00005c
:020000040000fa
:020000040002f8
:04aff8009f7f000037
:020000040000fa
:020000040002f8
:04affc00803f000092
:00000001FF
