:020000040000fa
:080000000002040000000000f2
:020000040000fa
:04000800e409000007
:020000040000fa
:04000c003c030000b1
:020000040000fa
:040010007e0300006b
:020000040000fa
:040014005c03000089
:020000040000fa
:040018009e03000043
:020000040000fa
:04001c00e4090000f3
:020000040000fa
:04002000e4090000ef
:020000040000fa
:04002400e4090000eb
:020000040000fa
:04002800e4090000e7
:020000040000fa
:04002c00e4090000e3
:020000040000fa
:040030006004000068
:020000040000fa
:04003400be03000007
:020000040000fa
:04003800e4090000d7
:020000040000fa
:04003c00e4090000d3
:020000040000fa
:04004000180500009f
:020000040000fa
:040044002a0400008a
:020000040000fa
:04004800f4030000bd
:020000040000fa
:04004c00e4090000c3
:020000040000fa
:04005000e4090000bf
:020000040000fa
:04005400e4040000c0
:020000040000fa
:04005800c6040000da
:020000040000fa
:04005c008604000016
:020000040000fa
:04006000e4090000af
:020000040000fa
:04006400e4090000ab
:020000040000fa
:04006800e4090000a7
:020000040000fa
:04006c0092070000f7
:020000040000fa
:04007000e40900009f
:020000040000fa
:04007400e40900009b
:020000040000fa
:04007800e409000097
:020000040000fa
:04007c00e409000093
:020000040000fa
:04008000e40900008f
:020000040000fa
:04008400e40900008b
:020000040000fa
:04008800e409000087
:020000040000fa
:04008c00e409000083
:020000040000fa
:04009000e40900007f
:020000040000fa
:04009400e40900007b
:020000040000fa
:04009800e409000077
:020000040000fa
:04009c00e409000073
:020000040000fa
:0400a000e40900006f
:020000040000fa
:0400a400e40900006b
:020000040000fa
:0400a800e409000067
:020000040000fa
:0400ac00e409000063
:020000040000fa
:0400b000e40900005f
:020000040000fa
:0400b400e40900005b
:020000040000fa
:0400b800e409000057
:020000040000fa
:0400bc00e409000053
:020000040000fa
:0400c000e40900004f
:020000040000fa
:0400c400e40900004b
:020000040000fa
:0400c800e409000047
:020000040000fa
:0400cc00e409000043
:020000040000fa
:0400d000e40900003f
:020000040000fa
:0400d400e40900003b
:020000040000fa
:0400d800e409000037
:020000040000fa
:0400dc00e409000033
:020000040000fa
:0400e000e40900002f
:020000040000fa
:0400e400e40900002b
:020000040000fa
:0400e800e409000027
:020000040000fa
:0400ec00e409000023
:020000040000fa
:0400f00040050000c7
:020000040000fa
:0400f400e40900001b
:020000040000fa
:0400f800e409000017
:020000040000fa
:0400fc00e409000013
:020000040000fa
:04010000e40900000e
:020000040000fa
:04010400e40900000a
:020000040000fa
:04010800e409000006
:020000040000fa
:04010c00e409000002
:020000040000fa
:04011000e4090000fe
:020000040000fa
:04011400e4090000fa
:020000040000fa
:04011800e4090000f6
:020000040000fa
:04011c00e4090000f2
:020000040000fa
:04012000e4090000ee
:020000040000fa
:04012400e4090000ea
:020000040000fa
:04012800e4090000e6
:020000040000fa
:04012c0002050000c8
:020000040000fa
:04013000e4090000de
:020000040000fa
:04013400e4090000da
:020000040000fa
:04013800e4090000d6
:020000040000fa
:04013c00e4090000d2
:020000040000fa
:04014000e4090000ce
:020000040000fa
:04014400e4090000ca
:020000040000fa
:04014800e4090000c6
:020000040000fa
:04014c00e4090000c2
:020000040000fa
:04015000e4090000be
:020000040000fa
:04015400e4090000ba
:020000040000fa
:04015800e4090000b6
:020000040000fa
:04015c00e4090000b2
:020000040000fa
:04016000e4090000ae
:020000040000fa
:04016400e4090000aa
:020000040000fa
:04016800e4090000a6
:020000040000fa
:04016c00e4090000a2
:020000040000fa
:04017000e40900009e
:020000040000fa
:04017400e40900009a
:020000040000fa
:04017800e409000096
:020000040000fa
:04017c00e409000092
:020000040000fa
:04018000e40900008e
:020000040000fa
:04018400e40900008a
:020000040000fa
:04018800e409000086
:020000040000fa
:04018c00e409000082
:020000040000fa
:04019000e40900007e
:020000040000fa
:04019400e40900007a
:020000040000fa
:04019800e409000076
:020000040000fa
:04019c00e409000072
:020000040000fa
:0401a000e40900006e
:020000040000fa
:0401a400e40900006a
:020000040000fa
:0401a800e409000066
:020000040000fa
:0401ac00e409000062
:020000040000fa
:0401b000e40900005e
:020000040000fa
:0401b400e40900005a
:020000040000fa
:0401b800e409000056
:020000040000fa
:0401bc00e409000052
:020000040000fa
:0401c000e40900004e
:020000040000fa
:0401c400e40900004a
:020000040000fa
:0401c800e409000046
:020000040000fa
:0401cc00e409000042
:020000040000fa
:0401d000e40900003e
:020000040000fa
:0401d400e40900003a
:020000040000fa
:0401d800e409000036
:020000040000fa
:0401dc00e409000032
:020000040000fa
:0401e000e40900002e
:020000040000fa
:0401e400e40900002a
:020000040000fa
:0401e800e409000026
:020000040000fa
:0401ec00e409000022
:020000040000fa
:0401f000e40900001e
:020000040000fa
:0401f400e40900001a
:020000040000fa
:0401f800e409000016
:020000040000fa
:0401fc00e409000012
:020000040000fa
:04020800e409000005
:020000040000fa
:04020c003c030000af
:020000040000fa
:040210007e03000069
:020000040000fa
:040214005c03000087
:020000040000fa
:040218009e03000041
:020000040000fa
:04021c00e4090000f1
:020000040000fa
:04022000e4090000ed
:020000040000fa
:04022400e4090000e9
:020000040000fa
:04022800e4090000e5
:020000040000fa
:04022c00e4090000e1
:020000040000fa
:040230006004000066
:020000040000fa
:04023400be03000005
:020000040000fa
:04023800e4090000d5
:020000040000fa
:04023c00e4090000d1
:020000040000fa
:04024000180500009d
:020000040000fa
:040244002a04000088
:020000040000fa
:04024800f4030000bb
:020000040000fa
:04024c00e4090000c1
:020000040000fa
:04025000e4090000bd
:020000040000fa
:04025400e4040000be
:020000040000fa
:04025800c6040000d8
:020000040000fa
:04025c008604000014
:020000040000fa
:04026000e4090000ad
:020000040000fa
:04026400e4090000a9
:020000040000fa
:04026800e4090000a5
:020000040000fa
:04026c0092070000f5
:020000040000fa
:04027000e40900009d
:020000040000fa
:04027400e409000099
:020000040000fa
:04027800e409000095
:020000040000fa
:04027c00e409000091
:020000040000fa
:04028000e40900008d
:020000040000fa
:04028400e409000089
:020000040000fa
:04028800e409000085
:020000040000fa
:04028c00e409000081
:020000040000fa
:04029000e40900007d
:020000040000fa
:04029400e409000079
:020000040000fa
:04029800e409000075
:020000040000fa
:04029c00e409000071
:020000040000fa
:0402a000e40900006d
:020000040000fa
:0402a400e409000069
:020000040000fa
:0402a800e409000065
:020000040000fa
:0402ac00e409000061
:020000040000fa
:0402b000e40900005d
:020000040000fa
:0402b400e409000059
:020000040000fa
:0402b800e409000055
:020000040000fa
:0402bc00e409000051
:020000040000fa
:0402c000e40900004d
:020000040000fa
:0402c400e409000049
:020000040000fa
:0402c800e409000045
:020000040000fa
:0402cc00e409000041
:020000040000fa
:0402d000e40900003d
:020000040000fa
:0402d400e409000039
:020000040000fa
:0402d800e409000035
:020000040000fa
:0402dc00e409000031
:020000040000fa
:0402e000e40900002d
:020000040000fa
:0402e400e409000029
:020000040000fa
:0402e800e409000025
:020000040000fa
:0402ec00e409000021
:020000040000fa
:0402f00040050000c5
:020000040000fa
:0402f400e409000019
:020000040000fa
:0402f800e409000015
:020000040000fa
:0402fc00e409000011
:020000040000fa
:04030000e40900000c
:020000040000fa
:04030400e409000008
:020000040000fa
:04030800e409000004
:020000040000fa
:04030c00e409000000
:020000040000fa
:04031000e4090000fc
:020000040000fa
:04031400e4090000f8
:020000040000fa
:04031800e4090000f4
:020000040000fa
:04031c00e4090000f0
:020000040000fa
:04032000e4090000ec
:020000040000fa
:04032400e4090000e8
:020000040000fa
:04032800e4090000e4
:020000040000fa
:04032c0002050000c6
:020000040000fa
:04033000e4090000dc
:020000040000fa
:04033400e4090000d8
:020000040000fa
:04033800e4090000d4
:020000040000fa
:04033c00e4090000d0
:020000040000fa
:04034000e4090000cc
:020000040000fa
:04034400e4090000c8
:020000040000fa
:04034800e4090000c4
:020000040000fa
:04034c00e4090000c0
:020000040000fa
:04035000e4090000bc
:020000040000fa
:04035400e4090000b8
:020000040000fa
:04035800e4090000b4
:020000040000fa
:04035c00e4090000b0
:020000040000fa
:04036000e4090000ac
:020000040000fa
:04036400e4090000a8
:020000040000fa
:04036800e4090000a4
:020000040000fa
:04036c00e4090000a0
:020000040000fa
:04037000e40900009c
:020000040000fa
:04037400e409000098
:020000040000fa
:04037800e409000094
:020000040000fa
:04037c00e409000090
:020000040000fa
:04038000e40900008c
:020000040000fa
:04038400e409000088
:020000040000fa
:04038800e409000084
:020000040000fa
:04038c00e409000080
:020000040000fa
:04039000e40900007c
:020000040000fa
:04039400e409000078
:020000040000fa
:04039800e409000074
:020000040000fa
:04039c00e409000070
:020000040000fa
:0403a000e40900006c
:020000040000fa
:0403a400e409000068
:020000040000fa
:0403a800e409000064
:020000040000fa
:0403ac00e409000060
:020000040000fa
:0403b000e40900005c
:020000040000fa
:0403b400e409000058
:020000040000fa
:0403b800e409000054
:020000040000fa
:0403bc00e409000050
:020000040000fa
:0403c000e40900004c
:020000040000fa
:0403c400e409000048
:020000040000fa
:0403c800e409000044
:020000040000fa
:0403cc00e409000040
:020000040000fa
:0403d000e40900003c
:020000040000fa
:0403d400e409000038
:020000040000fa
:0403d800e409000034
:020000040000fa
:0403dc00e409000030
:020000040000fa
:0403e000e40900002c
:020000040000fa
:0403e400e409000028
:020000040000fa
:0403e800e409000024
:020000040000fa
:0403ec00e409000020
:020000040000fa
:0403f000e40900001c
:020000040000fa
:0403f400e409000018
:020000040000fa
:0403f800e409000014
:020000040000fa
:0403fc00e409000010
:020000040000fa
:10040000ef8f20000e7f22000e0188000000000008
:10041000000020000000e000020032000001200087
:100420002002880014000700050407000000e00017
:1004300003003a0060932200010020000200370010
:100440000000200001002000810f70000100320038
:1004500014000700000020000000e000020032004d
:100460000000020000000000241b02000000000049
:100470000040da000000fe004440a9008002200095
:100480000000e000030032000020200090018800fe
:100490004440a800000006008a1f78008b1f7800e7
:1004a00000000600a1028800800478000000eb0034
:1004b0001f003700e284440054a0b4009905ba003c
:1004c000e284440054a0b4009906ba00e2844400d7
:1004d00054a0b4000006eb00476fde00fd07b20039
:1004e000ae018800636ce10003003a00eaff0700f8
:1004f0000000eb000e003700606ce10008003a00dd
:10050000004deb000a05e800020039003420ec0041
:100510000af0a0008b05e900f9ff3e000400370057
:100520006168e100010032000086eb000b0007006b
:1005300019c7ba001905ba000e04e00003003a001a
:100540000a00e000dbff3a0000000600fe07b200f0
:10055000ae0288008a047800f5ff37000cd0a300b3
:10056000e20f4d001c00390089027800354dba00b9
:100570000a05e800020039003420ec000af0a0006f
:100580008b05e9000f003200254dba000a05e8008e
:10059000020039003420ec000af0a0008b05e900cd
:1005a000080032000c00e0000600320015cdba0051
:1005b0000a05e800020039003420ec000af0a0002f
:1005c0008b05e9008984e80054a0b4000b00e0002a
:1005d000e2ff3a00000006009902ba00055d7800cb
:1005e0008b05e900f7ff3200c82ade00055d7800c0
:1005f0008b05e900f3ff32000c00e000f1ff320050
:1006000019ddba00eeff3700de180400000000001c
:100610000a190400000000004a190400000000004c
:100620003419040000000000341804000000000029
:10063000901804000000000084180400000000006e
:100640007e190400000000004018040000000000b3
:100650000018040000000000fc2504000000000059
:10066000b4260400000000006c2704000000000015
:10067000fe290400000000003600f800809fbe0044
:10068000829fbe00849fbe00869fbe000000fa00cd
:100690008020a9000000eb00f81307000080fa009a
:1006a0004f03be004f02be004f01be004f00be0010
:1006b0003600f900004006003600f800809fbe00ba
:1006c000829fbe00849fbe00869fbe000000fa008d
:1006d000f11307008040a90010002000e713070075
:1006e0000080fa004f03be004f02be004f01be0063
:1006f0004f00be003600f900004006003600f8004a
:10070000809fbe00829fbe00849fbe00869fbe0069
:100710000000fa008060a90020002000d713070025
:100720000080fa004f03be004f02be004f01be0022
:100730004f00be003600f900004006003600f80009
:10074000809fbe00829fbe00849fbe00869fbe0029
:100750000000fa008080a90030002000c7130700c5
:100760000080fa004f03be004f02be004f01be00e2
:100770004f00be003600f900004006003600f800c9
:10078000809fbe00829fbe00849fbe00869fbe00e9
:100790000000fa00804480000000e0000200320007
:1007a0008044800000000100908f200010407800fd
:1007b0008040e800908f200001487800808f200062
:1007c00011c0b300014878008460a9000080fa00dd
:1007d0004f03be004f02be004f01be004f00be00df
:1007e0003600f900004006003600f800809fbe0089
:1007f000829fbe00849fbe00869fbe000000fa005c
:10080000904480000000e00002003200904480002c
:1008100000000100b08f2000104078008040e80008
:10082000b08f200001487800a08f200011c0b300d5
:10083000014878008500a9000080fa004f03be003f
:100840004f02be004f01be004f00be003600f9004f
:10085000004006003600f800809fbe00829fbe0068
:10086000849fbe00869fbe000000fa00a044800066
:100870000000e00002003200a044800000000100ff
:10088000d08f2000104078008040e800d08f2000fa
:1008900001487800c08f200011c0b30001487800e3
:1008a00084e0a9000080fa004f03be004f02be00a2
:1008b0004f01be004f00be003600f90000400600a8
:1008c0003600f800809fbe00829fbe00849fbe005d
:1008d000869fbe000000fa002004800064006000d3
:1008e0000000e00002003200860f07008440a900eb
:1008f0000080fa004f03be004f02be004f01be0051
:100900004f00be003600f900004006003600f80037
:10091000809fbe00829fbe00849fbe00869fbe0057
:100920003200f8003400f80010002000a001880018
:1009300000202000900188000000fa0021048000bf
:1009400000002200008060000000e000060032008d
:10095000c04480000000e00002003200c04480007b
:100960000000010085a0a9000080fa003400f90011
:100970003200f9004f03be004f02be004f01be001f
:100980004f00be003600f900004006003600f800b7
:10099000809fbe00829fbe00849fbe00869fbe00d7
:1009a0000000fa0030448000000001000080fa00de
:1009b0004f03be004f02be004f01be004f00be00fd
:1009c0003600f900004006003600f800809fbe00a7
:1009d000829fbe00849fbe00869fbe000000fa007a
:1009e00040448000000001000080fa004f03be0078
:1009f0004f02be004f01be004f00be003600f9009e
:100a000000400600801f78000000fa0010118000ee
:100a1000620060000000e000010032002222a90014
:100a20008c20a9000080fa004f00780000400600ea
:100a30003600f800809fbe00829fbe00849fbe00eb
:100a4000869fbe000000fa00210480000004200000
:100a5000008060000000e00002003200ba0f0700d2
:100a600084c0a9000080fa004f03be004f02be0000
:100a70004f01be004f00be003600f90000400600e6
:100a80003600f800809fbe00829fbe00849fbe009b
:100a9000869fbe000000fa008a40a900c1108000b5
:100aa00000082000008060000000e0000800320024
:100ab00018e2a9004228ef00404280002000900088
:100ac0008000eb00010878004828ef000e01370095
:100ad000104280008000eb00b200200003002000e4
:100ae000820f5000838f5800fd003e00006001001f
:100af0000b0037003a003700760037009d003700c2
:100b0000f4003700c9003700da003700f100370081
:100b1000dc003700f20037003500370051003700a5
:100b2000a083200020009000620060000000e00030
:100b3000f4003a00a083200010009000404288009a
:100b4000a0832000100090001040780044e8b70017
:100b5000a083200010009000100090003042880018
:100b6000a083200010009000e6004000a083200039
:100b700011009800a08320001000900080007800f1
:100b8000608d2000808f500003003a00a083200079
:100b9000018d200011009800a0832000a00090008b
:100ba0000100a10021009800a08320009000900087
:100bb000a083200010007800808f500004003a00cd
:100bc000a0832000a00090000110a0002100980048
:100bd0001602a8002000200010428800ca0037003a
:100be0001622a8002000200010428800c60037000e
:100bf000c110800000002800008060000000e000bc
:100c000008003200a0832000604090008040e8008f
:100c1000a083200061409800400020000a060700e1
:100c2000b9003700504280008000d100f00f200052
:100c300000806000901088005042800061006000d9
:100c4000004078000004e00003003200b000200003
:100c500010428800ac0037003000200010428800ad
:100c6000a9003700c110800000002800008060004b
:100c70000000e00008003200a083200060409000e7
:100c80008040e800a08320006140980040002000e0
:100c9000ed0507009c0037001622a8005042800096
:100ca0004800de00e6006000000f20000100700038
:100cb00050428800504280000000a000504288004e
:100cc00010c0b3004ce8b70020002000104288009c
:100cd0008d0037004cc8bf00e14f50000a003200c1
:100ce000304280001000780050428800304280007e
:100cf0002000900070428800304280002040900028
:100d000050e8b700010037004c68ef005142800006
:100d1000f00f2000808f5000090036005042800004
:100d20004800de00e6006000000f200001007000b7
:100d300090108800a0002000104288007200370048
:100d40005042800090108800504280006100600096
:100d5000004078000004e000030032005000200052
:100d600010428800680037003000200010428800e0
:100d700065003700c110800000002800008060007e
:100d80000000e00009003200a083200060409000d5
:100d90008040e800a08320006140980019e2a9008b
:100da00050002000a80507005700370050c8bf00ba
:100db0008080fb008100e900cf08de0081407800e0
:100dc0000040e90050e8b7000104e00010003200e4
:100dd00030428000660040003042880044c8bf00b6
:100de0000040e90044e8b70044c8bf000004e00048
:100df00003003a002000200093050700420037005e
:100e00001622a80020002000104288003e00370073
:100e100070428000904078008180fb009110880033
:100e20000000e8007042880037003700c1108000e1
:100e300000002800008060000000e000090032008f
:100e4000a0832000604090008040e800a083200044
:100e500061409800400020007b05070019e2a900ce
:100e6000290037001662a800800020001042880088
:100e70002500370080002000104288001662a8007c
:100e8000210037007042800081108000814078008e
:100e9000014878000000e8007042880050c8bf0098
:100ea0000040e90050e8b70050c8bf000004e0006f
:100eb0000400320016a2a900600020001042880041
:100ec0000200370016a2a8004e0507001682a800ef
:100ed0000d003700200020005b0507000a003700e6
:100ee000a0832000604090008040e800a0832000a4
:100ef00061409800600020005305070000000000da
:100f000001003700000000000080fa004f03be001f
:100f10004f02be004f01be004f00be003600f90078
:100f2000004006003600f800809fbe00829fbe0091
:100f3000849fbe00869fbe000000fa008620a900a4
:100f40004110800000082000008060000000e000e8
:100f50000800320008e2a9005a28ef000043800090
:100f6000200090008000eb00010878006028ef006e
:100f70000e013700d04280008000eb00b20020005c
:100f800003002000820f5000838f5800fd003e00b8
:100f9000006001000b0037003a0037007600370090
:100fa0009d003700f4003700c9003700da00370031
:100fb000f1003700dc003700f20037003500370061
:100fc0005100370020852000200090006200600062
:100fd0000000e000f4003a0020852000100090009e
:100fe0000043880020852000100090001040780009
:100ff0005ce8b700208520001000900010009000f1
:10100000f04288002085200010009000e60040009b
:1010100020852000110098002085200010009000fd
:1010200080007800808e2000808f500003003a00fe
:1010300020852000218e20001100980020852000ae
:10104000a00090000100a100210098002085200050
:10105000900090002085200010007800808f5000c4
:1010600004003a0020852000a00090000110a0009c
:10107000210098000602a80020002000d04288002d
:10108000ca0037000622a80020002000d0428800b5
:10109000c60037004110800000002800008060007a
:1010a0000000e00008003200208520006040900031
:1010b0008040e8002085200061409800400020002a
:1010c000dc0a0700b9003700104380008000d1001f
:1010d000f00f200000806000101088001043800096
:1010e00061006000004078000004e000030032006e
:1010f000b0002000d0428800ac0037003000200053
:10110000d0428800a900370041108000000028006c
:10111000008060000000e000080032002085200010
:10112000604090008040e8002085200061409800e9
:1011300040002000bf0a07009c0037000622a800dc
:10114000104380004800de00e6006000000f200031
:101150000100700010438800104380000000a000d0
:101160001043880010c0b30064e8b70020002000de
:10117000d04288008d00370064c8bf00e14f5000a6
:101180000a003200f042800010007800104388000e
:10119000f04280002000900030438800f042800040
:1011a0002040900068e8b700010037006468ef0055
:1011b00011438000f00f2000808f5000090036009e
:1011c000104380004800de00e6006000000f2000b1
:1011d0000100700010108800a0002000d04288009c
:1011e0007200370010438000101088001043800008
:1011f00061006000004078000004e000030032005d
:1012000050002000d04288006800370030002000e5
:10121000d04288006500370041108000000028009f
:10122000008060000000e0000900320020852000fe
:10123000604090008040e8002085200061409800d8
:1012400009e2a900500020007a0a07005700370081
:1012500068c8bf008080fb008100e900cf08de0085
:10126000814078000040e90068e8b7000104e00030
:1012700010003200f042800066004000f04288001a
:101280005cc8bf000040e9005ce8b7005cc8bf0074
:101290000004e00003003a0020002000650a070077
:1012a000420037000622a80020002000d04288001b
:1012b0003e00370030438000904078008180fb0082
:1012c000111088000000e800304388003700370024
:1012d0004110800000002800008060000000e00055
:1012e0000900320020852000604090008040e80026
:1012f0002085200061409800400020004d0a070032
:1013000009e2a900290037000662a8008000200039
:10131000d04288002500370080002000d04288009d
:101320000662a800210037003043800001108000d1
:1013300081407800014878000000e80030438800d0
:1013400068c8bf000040e90068e8b70068c8bf008f
:101350000004e0000400320006a2a90060002000a2
:10136000d04288000200370006a2a800200a070029
:101370000682a8000d003700200020002d0a07007b
:101380000a00370020852000604090008040e8007f
:10139000208520006140980060002000250a070099
:1013a0000000000001003700000000000080fa008b
:1013b0004f03be004f02be004f01be004f00be00f3
:1013c0003600f900004006000040da000000fe0090
:1013d0000a00fa0020079800310798004207980099
:1013e000be009000110798000000eb00000f78008d
:1013f0000c00370000000000a60707000004a20050
:101400000004e000fcff3a001e009000104078004d
:101410009e0090008100e800110798007d070700fa
:101420001e0fe8004e0090009e007800808f500054
:10143000f0ff39004e0090000080fa000000060026
:0414400000000500a3
:020000040000fa
:10144400de1800000a1900004a19000034190000cf
:101454003418000090180000841800007e19000061
:101464004018000000180000de1800000a190000ef
:101474004a190000341900003418000090180000c4
:10148400841800007e1900004018000000180000b5
:020000040000fa
:101494000000fa0010002000001c880000802000da
:1014a400201c88000080eb00301c88000001200014
:1014b400401c880000802300501c880000002f007e
:1014c400601c88008e23ef009023ef008480a90025
:1014d4009223ef009423ef009623ef009823ef006c
:1014e4009a23ef0085c0a9009c23ef009e23ef0000
:1014f400a023ef00a223ef00a423ef008700a9009c
:10150400a623ef00a823ef00aa23ef00ac23ef00eb
:10151400ae23ef008880a900b023ef00b223ef00d0
:10152400b423ef00b623ef00b823ef0089c0a9006d
:10153400ba23ef00bc23ef00be23ef00c023ef006b
:10154400c223ef008ba0a90081e3a8008803a800b0
:101554009203a8000080fa00000006000000fa00d0
:101564000080fa00000006000000fa002004800059
:10157400700060000000e00002003200f7ff070086
:101584008480a9000080fa00000006000000fa0030
:101594000080fa00000006000000fa002104800028
:1015a40000002400008060000000e000020032001f
:1015b400f6ff070085c0a9000080fa0000000600bd
:1015c4000000fa000080fa00000006000000fa00a3
:1015d4003104800000102000008060000000e00062
:1015e40002003200f6ff07008700a9000080fa001d
:1015f400000006000000fa000080fa000000060067
:101604000000fa0040048000700060000000e00068
:1016140002003200f7ff07008880a9000080fa006a
:10162400000006000000fa000080fa000000060036
:101634000000fa00410480000000240000806000e3
:101644000000e00002003200f6ff070089c0a90094
:101654000080fa00000006000000fa000080fa0092
:10166400000006000000fa0051048000000022007f
:10167400008060000000e00002003200f6ff070076
:101684008ba0a9000080fa00000006000200fa0006
:10169400000f78001e007800e20f500012003200a4
:1016a400e20f500005003e000000e0000a00320096
:1016b400e10f50000a00320013003700e40f50001d
:1016c4000d003200e40f500009003900e50f50000e
:1016d4000b0032000c0037008803a8000a00370012
:1016e4009203a800080037009c03a80006003700f6
:1016f400a603a80004003700b003a80002003700c6
:10170400ba03a800000000000080fa0000000600f0
:101714000200fa00000f78001e007800e20f50006b
:1017240012003200e20f500005003e000000e0000d
:101734000a003200e10f50000a00320013003700a3
:10174400e40f50000d003200e40f5000090039008e
:10175400e50f50000b0032000c0037008803a9008d
:101764000a0037009203a900080037009c03a9006f
:1017740006003700a603a90004003700b003a9003f
:1017840002003700ba03a900000000000080fa003c
:10179400000006000400fa00000f7800110798000a
:1017a4001e007800e20f500014003200e20f5000d7
:1017b40005003e000000e0000a003200e10f500086
:1017c4000b00320019003700e40f50001100320002
:1017d400e40f50000c003900e50f500010003200f7
:1017e400120037009e009000811c88000f00370013
:1017f4009e009000d11c88000c0037009e009000d1
:10180400211d8800090037009e009000711d88008a
:10181400060037009e009000c11d880003003700b9
:101824009e009000111e8800000000000080fa0055
:10183400000006000200fa00000f78001e00780085
:10184400e20f500012003200e20f500005003e008b
:101854000000e0000a003200e10f50000a003200ec
:1018640013003700e40f50000d003200e40f500065
:1018740009003900e50f50000b0032000c0037005e
:10188400801c80000b003700d01c8000090037004a
:10189400201d800007003700701d80000500370000
:1018a400c01d800003003700101e800001003700b7
:1018b4000000eb000080fa00000006000200fa00bd
:1018c400000f78001e007800e20f50001200320072
:1018d400e20f500005003e000000e0000a00320064
:1018e400e10f50000a00320013003700e40f5000eb
:1018f4000d003200e40f500009003900e50f5000dc
:101904000b0032000c0037008903a8000a003700de
:101914009303a800080037009d03a80006003700c1
:10192400a703a80004003700b103a8000200370091
:10193400bb03a800000000000080fa0000000600bd
:101944000400fa00000f7800110798001e007800c8
:10195400e20f500014003200e20f500005003e0078
:101964000000e0000a003200e10f50000b003200da
:1019740019003700e40f500011003200e40f50004a
:101984000c003900e50f500010003200120037003f
:101994009e009000611c88000f0037009e0090009c
:1019a400b11c88000c0037009e009000011d8800c7
:1019b400090037009e009000511d88000600370082
:1019c4009e009000a11d8800030037009e00900037
:1019d400f11d8800000000000080fa0000000600ed
:1019e4000400fa00000f7800110798001e00780028
:1019f400e20f500014003200e20f500005003e00d8
:101a04000000e0000a003200e10f50000b00320039
:101a140019003700e40f500011003200e40f5000a9
:101a24000c003900e50f500010003200120037009e
:101a34009e009000711c88000f0037009e009000eb
:101a4400c11c88000c0037009e009000111d880006
:101a5400090037009e009000611d880006003700d1
:101a64009e009000b11d8800030037009e00900086
:101a7400011e8800000000000080fa00000006003b
:101a84000200fa00000f78001e007800e20f5000f8
:101a940022003200e20f500005003e000000e0008a
:101aa4000a003200e10f50001200320043003700f8
:101ab400e40f50002d003200e40f500021003900e3
:101ac400e50f5000330032003c003700401c80001a
:101ad4004800de00614060000080fb0000f0a700c9
:101ae4000000ea000000ea004f00de000040780039
:101af40033003700901c80004800de006140600025
:101b04000080fb0000f0a7000000ea000000ea00eb
:101b14004f00de000040780029003700e01c800000
:101b24004800de00614060000080fb0000f0a70078
:101b34000000ea000000ea004f00de0000407800e8
:101b44001f003700301d80004800de006140600047
:101b54000080fb0000f0a7000000ea000000ea009b
:101b64004f00de000040780015003700801d800023
:101b74004800de00614060000080fb0000f0a70028
:101b84000000ea000000ea004f00de000040780098
:101b94000b003700d01d80004800de00614060006b
:101ba4000080fb0000f0a7000000ea000000ea004b
:101bb4004f00de0000407800010037000040eb00d9
:101bc4000080fa00000006000200fa00000f78000e
:101bd4001e007800e20f500022003200e20f500095
:101be40005003e000000e0000a003200e10f500052
:101bf4001200320043003700e40f50002d00320081
:101c0400e40f500021003900e50f5000330032008a
:101c14003c003700501c80004f00de00004078007c
:101c24000080fb0000f0a7000000ea000000ea00ca
:101c34004f00de000040780033003700a01c800015
:101c44004f00de00004078000080fb0000f0a70099
:101c54000000ea000000ea004f00de0000407800c7
:101c640029003700f01c80004f00de00004078009f
:101c74000080fb0000f0a7000000ea000000ea007a
:101c84004f00de00004078001f003700401d800038
:101c94004f00de00004078000080fb0000f0a70049
:101ca4000000ea000000ea004f00de000040780077
:101cb40015003700901d80004f00de0000407800c2
:101cc4000080fb0000f0a7000000ea000000ea002a
:101cd4004f00de00004078000b003700e01d80005c
:101ce4004f00de00004078000080fb0000f0a700f9
:101cf4000000ea000000ea004f00de000040780027
:101d0400010037000040eb000080fa0000000600ec
:101d14000200fa00000f78001e007800e20f500065
:101d240022003200e20f500005003e000000e000f7
:101d34000a003200e10f5000120032004300370065
:101d4400e40f50002d003200e40f50002100390050
:101d5400e50f5000330032003c003700501c800077
:101d64004700de00614060000080fb0000f0a70037
:101d74000000ea000000ea004f00de0000407800a6
:101d840033003700a01c80004700de006140600083
:101d94000080fb0000f0a7000000ea000000ea0059
:101da4004f00de000040780029003700f01c80005e
:101db4004700de00614060000080fb0000f0a700e7
:101dc4000000ea000000ea004f00de000040780056
:101dd4001f003700401d80004700de0061406000a6
:101de4000080fb0000f0a7000000ea000000ea0009
:101df4004f00de000040780015003700901d800081
:101e04004700de00614060000080fb0000f0a70096
:101e14000000ea000000ea004f00de000040780005
:101e24000b003700e01d80004700de0061406000c9
:101e34000080fb0000f0a7000000ea000000ea00b8
:101e44004f00de0000407800010037000040eb0046
:101e54000080fa00000006000200fa00000f78007b
:101e64001e007800e20f500022003200e20f500002
:101e740005003e000000e0000a003200e10f5000bf
:101e84001200320043003700e40f50002d003200ee
:101e9400e40f500021003900e50f500033003200f8
:101ea4003c003700501c80004600de0061406000aa
:101eb4000080fb0000f0a7000000ea000000ea0038
:101ec4004f00de000040780033003700a01c800083
:101ed4004600de00614060000080fb0000f0a700c7
:101ee4000000ea000000ea004f00de000040780035
:101ef40029003700f01c80004600de0061406000cd
:101f04000080fb0000f0a7000000ea000000ea00e7
:101f14004f00de00004078001f003700401d8000a5
:101f24004600de00614060000080fb0000f0a70076
:101f34000000ea000000ea004f00de0000407800e4
:101f440015003700901d80004600de0061406000ef
:101f54000080fb0000f0a7000000ea000000ea0097
:101f64004f00de00004078000b003700e01d8000c9
:101f74004600de00614060000080fb0000f0a70026
:101f84000000ea000000ea004f00de000040780094
:101f9400010037000040eb000080fa00000006005a
:101fa4000200fa00000f78001e007800e20f5000d3
:101fb40022003200e20f500005003e000000e00065
:101fc4000a003200e10f50001200320043003700d3
:101fd400e40f50002d003200e40f500021003900be
:101fe400e50f5000330032003c003700501c8000e5
:101ff4004500de00614060000080fb0000f0a700a7
:102004000000ea000000ea004f00de000040780013
:1020140033003700a01c80004500de0061406000f2
:102024000080fb0000f0a7000000ea000000ea00c6
:102034004f00de000040780029003700f01c8000cb
:102044004500de00614060000080fb0000f0a70056
:102054000000ea000000ea004f00de0000407800c3
:102064001f003700401d80004500de006140600015
:102074000080fb0000f0a7000000ea000000ea0076
:102084004f00de000040780015003700901d8000ee
:102094004500de00614060000080fb0000f0a70006
:1020a4000000ea000000ea004f00de000040780073
:1020b4000b003700e01d80004500de006140600039
:1020c4000080fb0000f0a7000000ea000000ea0026
:1020d4004f00de0000407800010037000040eb00b4
:1020e4000080fa00000006000200fa00000f7800e9
:1020f4001e007800e20f500022003200e20f500070
:1021040005003e000000e0000a003200e10f50002c
:102114001200320043003700e40f50002d0032005b
:10212400e40f500021003900e50f50003300320065
:102134003c003700501c80004300de00614060001a
:102144000080fb0000f0a7000000ea000000ea00a5
:102154004f00de000040780033003700a01c8000f0
:102164004300de00614060000080fb0000f0a70037
:102174000000ea000000ea004f00de0000407800a2
:1021840029003700f01c80004300de00614060003d
:102194000080fb0000f0a7000000ea000000ea0055
:1021a4004f00de00004078001f003700401d800013
:1021b4004300de00614060000080fb0000f0a700e7
:1021c4000000ea000000ea004f00de000040780052
:1021d40015003700901d80004300de006140600060
:1021e4000080fb0000f0a7000000ea000000ea0005
:1021f4004f00de00004078000b003700e01d800037
:102204004300de00614060000080fb0000f0a70096
:102214000000ea000000ea004f00de000040780001
:10222400010037000040eb000080fa0000000600c7
:102234000200fa00000f78001e007800e20f500040
:1022440022003200e20f500005003e000000e000d2
:102254000a003200e10f5000120032004300370040
:10226400e40f50002d003200e40f5000210039002b
:10227400e50f5000330032003c003700501c800052
:102284004400de00614060000080fb0000f0a70015
:102294000000ea000000ea004f00de000040780081
:1022a40033003700a01c80004400de006140600061
:1022b4000080fb0000f0a7000000ea000000ea0034
:1022c4004f00de000040780029003700f01c800039
:1022d4004400de00614060000080fb0000f0a700c5
:1022e4000000ea000000ea004f00de000040780031
:1022f4001f003700401d80004400de006140600084
:102304000080fb0000f0a7000000ea000000ea00e3
:102314004f00de000040780015003700901d80005b
:102324004400de00614060000080fb0000f0a70074
:102334000000ea000000ea004f00de0000407800e0
:102344000b003700e01d80004400de0061406000a7
:102354000080fb0000f0a7000000ea000000ea0093
:102364004f00de0000407800010037000040eb0021
:082374000080fa0000000600e1
:020000040000fa
:10237c000000fa00a0832000018d200011009800bd
:10238c00a0832000018d200001087800a08320008c
:10239c00a00090000110a00021009800a083200054
:1023ac00a00090000100a10021009800a083200053
:1023bc008040eb006140980030012000a0108800a4
:1023cc0000002800b01088001822ef008a40a900f5
:1023dc009a40a8000080fa00000006000200fa00f3
:1023ec00a0832000e0409000014f78001e40780050
:1023fc000080fa00000006000000fa003042800065
:10240c00660040003042880044c8bf000040e9002c
:10241c0044e8b70044c8bf000004e00003003a00e1
:10242c0040002000104288000200370010002000fd
:10243c00104288000080fa00000006000200fa003a
:10244c00000f78001642a800404280002000900047
:10245c000000e000030032004042800020009000a9
:10246c001e0878004228ef000080fa0000000600e9
:10247c000800fa00000f7800214798002207980006
:10248c0033079800a08320002000900061006000ba
:10249c000000e0000a003a00ae0190002e419000ce
:1024ac009e007800c08d2000780007003e0190004f
:1024bc00c18d200010c0b3001f00070003003700bf
:1024cc003e0090008000eb00010878000080fa00cc
:1024dc00000006000800fa00000f78002147980061
:1024ec002207980033079800a0832000200090005a
:1024fc00610060000000e0000a003a00ae019000ac
:10250c002e4190009e007800608d2000470007004f
:10251c003e019000618d200010c0b3000600070042
:10252c00030037003e0090008000eb0001087800ab
:10253c000080fa00000006000600fa00004f780048
:10254c001107980022079800a0832000200090001b
:10255c00610060000000e0002f003a002e009000a7
:10256c001100200001087800a083200010007800e2
:10257c009e00900011009800a083200010007800ad
:10258c001e487800a083200010007800ae00900058
:10259c0021009800a083200010007800e600400085
:1025ac00a083200001087800a08320001000780090
:1025bc0080007800608d2000808f500003003a006e
:1025cc00a0832000018d200001087800a08320004a
:1025dc00a00090000110a10021009800a083200011
:1025ec0090009000a083200010007800808f500095
:1025fc0004003a00a0832000a00090000100a0007d
:10260c0021009800104280000000e00005003a0014
:10261c008a40a800030037002e0090008000eb00d9
:10262c00010878000080fa00000006000800fa009b
:10263c00000f780011079800424798003307980064
:10264c003e00900000004000800078001e007800e2
:10265c00010878001e0078001000780080007800d7
:10266c000100a0001e007800010878001e00780010
:10267c00ce409000214098001e0078009e009000f3
:10268c00210098000080fa00000006000800fa0003
:10269c00000f780011079800424798003307980004
:1026ac003e00900000004000800078001e00780082
:1026bc00010878001e007800ce4090002140980060
:1026cc001e0078009e009000210098000080fa0007
:1026dc00000006000000fa00a083200020009000fb
:1026ec006200600000f0a7000000ea000000ea00b1
:1026fc004f00de00004078000080fa000000060069
:10270c000000fa00a083200020009000610060000f
:10271c0000f0a7000000ea000000ea004f00de0015
:0c272c00004078000080fa000000060069
:020000040000fa
:102738000200fa00000f780003003700007d200037
:1027480001002000d90b07001e00780000f0a70048
:102758000000ea000000ea004f00de0000407800b8
:102768001e0fe9000004e000f4ff3a000080fa00c0
:10277800000006000200fa00000f7800050037008c
:102788000004200001002000c80b070001fe2f00f4
:102798001e8f40001e007800ff0f5000f8ff3e001b
:1027a800030037002000200001002000bf0b0700b5
:1027b8001e00780000f0a7000000ea000000ea0010
:1027c8004f00de00004078001e0fe9000004e00022
:0c27d800f4ff3a000080fa000000060048
:020000040000fa
:1028000000000000000000000000000000000000c8
:1028100000000000000000000000000000000000b8
:1028200000000000000000000000000000000000a8
:102830000000000000000000000000000000000098
:020000040000fa
:103000000000fa009580a9009560a90080002000ca
:10301000001188002222ef003000200040118800bb
:10302000e08b200010448800e08b200000448800e2
:10303000708c2000f0438800708c2000e0438800f2
:103040008468ef0000842100070007000089210048
:103050002d0007009560a80021e2a8002342a800e7
:103060000080fa00000006000200fa00000f78005d
:103070001e007800304488000080fa00000006003e
:103080000000fa001144800000448000808f50004e
:1030900002003a009580a900190037008580a90038
:1030a0001000370010448000904078008180fb00c1
:1030b000211188000000e8001044880011448000bd
:1030c000708c2000808f500002003a00e08b2000be
:1030d000104488001144800000448000808f50001c
:1030e00006003200111180000020200000806000e6
:1030f0000000e000ebff320001003700000000009c
:103100000080fa00000006000200fa00000f7800bc
:103110001e007800404488000080fa00000006008d
:103120000000fa001e003700e043800031118000eb
:103130008140780001487800e1438000f08c200055
:10314000808f500009003200e04380008000e800da
:10315000f0438000808f500004003200e043800084
:103160000000e800e04388000d003700e1438000e4
:10317000f08c2000808f500007003a00f14380005f
:10318000708c2000808f500003003200708c200073
:10319000e04388000200370010c0b30084e8b700a5
:1031a00010118000610060000000e000deff3a00c6
:1031b0008560a9000080fa00000006000200fa0005
:1031c0000040eb00004f780000000000f143800059
:1031d000e0438000808f5000fcff3200f04380000d
:1031e000104f7800f04380000000e800f0438800b2
:1031f000f1438000008d2000808f500002003a00d3
:10320000708c2000f04388001e4078000080fa0097
:10321000000006000200fa00004f780000000000e5
:103220001c0007000004a2000004e000fcff3a00bc
:10323000004480001e487800004480000000e80040
:103240000044880001448000708c2000808f500072
:1032500002003a00e08b2000004488009580a8001e
:103260000080fa00000006000000fa00f143800030
:10327000e04380000080680000f0a7000000ea0042
:103280000000ea004f00de00004078000080fa00f5
:10329000000006000400fa001144800011079800a5
:1032a000014480001e009000808f50000600310015
:1032b0009e00900000448000008050000000e90063
:1032c000000f7800050037009e0090000044800049
:1032d0000080500068004000000f78001e00780059
:1032e00000f0a7000000ea000000ea004f00de0046
:1032f000004078000080fa00000006000000fa009c
:103300000144800010448000808f500009003a0082
:1033100011118000001020000080600000f0a70064
:103320000000ea000000ea004f00de0000407800e4
:10333000010037000040eb000080fa0000000600aa
:103340000400fa00e143800011079800f043800078
:103350009e009000808f5000060031009e0090007b
:10336000f04380000080500069004000000f7800aa
:10337000030037009e009000f0438000008f500053
:10338000f00f20009e007800808f50000200360071
:1033900000c0eb00020037001e00780000407800fb
:1033a0000080fa00000006000000fa00e4ff0700b9
:1033b0000080fa00000006000400fa0011448000ba
:1033c00011079800014480001e009000808f50007b
:1033d000060031009e0090000044800000805000f4
:1033e0000000e900000f7800050037009e00900003
:1033f000004480000080500068004000000f78000a
:10340000f00f20009e007800808f500002003600f0
:1034100000c0eb00020037001e007800004078007a
:103420000080fa00000006000000fa00e2ff07003a
:103430000080fa00000006000000fa00afff07005d
:103440000080fa00000006000800fa00200798003b
:1034500031079800baff07000080fb00000f7800da
:103460003e0090009e0f500002003100be00900010
:10347000010f78000000eb001007980009003700ea
:103480004eff0700ae009000804878002e009000ac
:103490000000e800200798001e0090000000e800ef
:1034a000100798001e0090009e0f5000f4ff390096
:1034b0001e0078000080fa00000006000800fa00f4
:1034c0002007980031079800bbff07000080fb0031
:1034d000000f78003e0090009e0f50000200310067
:1034e000be009000010f78000000eb00100798006c
:1034f000090037002e00900010407800ae009000c8
:103500008100e8002107980042ff07001e0090009c
:103510000000e800100798001e0090009e0f500069
:10352000f4ff39001e0078000080fa000000060059
:103530000400fa000000eb00000f780080ff070095
:10354000204798009cff0700304798002e409000cd
:103550000080fb000000e00003003200e90f500093
:1035600003003200040037001e20a00004003700d2
:103570001e00a000020037001e10a0000000000086
:103580003e4090000080fb000000e000030032009d
:10359000e90f500003003200040037001e30a00085
:1035a000020037001e40a000000000001e0078004e
:1035b0000080fa00000006000400fa0010079800de
:1035c000f14380001e009000008f40000200370091
:1035d0009e007800698f5000008d20009e007800ca
:1035e000808f5000faff3e001e00780010407800e7
:1035f0000080fa00000006000000fa0050ff0700fb
:103600000080fb000000e9004f00de000040780071
:103610000080fa00000006000000fa0066ff0700c4
:103620000080fb000000e9004f00de000040780051
:103630000080fa00000006000000fa00101180006f
:103640000080fa00000006000000fa00f9070700f9
:10365000c482a900d442a900d482a900d5e2a9005d
:10366000e402a900e4a2a900e4c2a900e4e2a900de
:10367000ec02a900ec22a900ec42a900ec62a9002e
:10368000ec82a900eca2a90060178000ece2a9007e
:10369000ed02a900ed82a900f4e2a800f5c2a9009c
:1036a000f5e2a90003003700000000000100370028
:1036b000000000001116800000042000008060005f
:1036c0000000e00005003a0011168000000820000c
:1036d000008060000000e0000a0032001116800047
:1036e00000042000008060000000e00007003200bd
:1036f0001116800000082000008060000000e0003b
:103700000200320010002000c04188001117800024
:1037100000082000008060000000e000010032008e
:10372000ece2a80011178000000820000080600073
:103730000000e00001003a00ece2a900d016800091
:10374000d016800010168000680060000000e000c5
:103750001f0032001116800000042000008060006d
:103760000000e0001a003a000a28ef0050438000f1
:10377000e10f50000d003a0061408000400620003b
:10378000808f500003003c00604080000000e80093
:10379000604088006140800010062000808f50004b
:1037a000020034006a28ef000c28ef00504380002c
:1037b0000000e00006003a00e4a2a900e4c2a8006c
:1037c0001000200080408800100020005040880039
:1037d0001116800000042000008060000000e0005e
:1037e0000c00320010168000680060000000e0004d
:1037f00008003a00e4a2a900e4c2a90010002000d9
:1038000080408800100020007040880040062000a2
:1038100060438800804080000000e000110032001a
:10382000004080000000e0000e003a00504380009d
:103830000000e0000300320050408000e10f500023
:1038400008003a00704380008000e90020408000ba
:10385000808f500003003500204080000000e80009
:1038600020408800704380008000e90020408000f4
:10387000808f50000b003c00104080000000e000f2
:1038800008003a00804080000000e000050032009f
:103890001000200000408800704380003040880005
:1038a0000428ef001116800000082000008060004e
:1038b0000000e0000d003a00111680000004200016
:1038c000008060000000e0000800320080408000be
:1038d000e10f500005003a00100020001040880061
:1038e0001000200090408800010037000228ef00ff
:1038f0001116800000082000008060000000e00039
:103900001a003a00111680000004200000806000b8
:103910000000e0001500320090408000e10f5000f0
:1039200012003a009143800080438000808f500055
:103930000e003500904380000000e90090438800ad
:1039400080438000ea00400090438000808f500058
:10395000060035001228ef000228ef0080438000a7
:10396000904388008043800030408800101680001b
:10397000680060000000e00012003a0011168000ac
:1039800000042000008060000000e0000d003a000c
:1039900070408000e10f50000a003a006043800050
:1039a0000000e00003003400604380000000e900f4
:1039b0006043880060438000e10f500001003c003c
:1039c0000e28ef0070408000e10f500017003a0011
:1039d0001028ef0030408000000040000000e900a7
:1039e000cf00de00008040000080d1003040880021
:1039f00030408000e50f50000c003c000628ef002e
:103a00000428ef000028ef00e4a2a8001000200026
:103a10005043880010002000504088000228ef002a
:103a20001028ef00704380009043880051178000f9
:103a300000002200008060000000e0000c00320066
:103a40001116800000042000008060000000e000eb
:103a50000700320011168000002020000080600066
:103a60000000e00002003200ec22a800ec42a800b6
:103a70005117800000002200008060000000e0007c
:103a80000700320011168000000420000080600052
:103a90000000e00002003a00ec22a900ec42a8007d
:103aa0005117800000002200008060000000e0004c
:103ab0000c00320011168000002020000080600001
:103ac0000000e00007003a009016800068006000e7
:103ad0000000e00003003a0010002000a041880030
:103ae000e4c2a8005117800000002200008060009e
:103af0000000e00004003a003428ef003628ef0010
:103b0000e4c2a900e4e2a9009016800090168000ab
:103b1000680060000000e00007003a001116800015
:103b200000202000008060000000e0000200320061
:103b3000e4c2a900e4e2a8009016800068006000da
:103b40000000e000d8fe3a0011168000002020009e
:103b5000008060000000e000d5fe3a00e4c2a8004a
:083b6000e4e2a900d3fe3700e6
:020000040000fa
:103b68000000fa0020852000218e20001100980016
:103b780020852000218e2000010878002085200063
:103b8800a00090000110a0002100980020852000ce
:103b9800a00090000100a1002100980020852000cd
:103ba8008040eb0061409800300120002010880020
:103bb80000002800301088000822ef008620a900a5
:103bc8009620a8000080fa00000006000200fa0013
:103bd80020852000e0409000014f78001e407800ca
:103be8000080fa00000006000000fa00f0428000a1
:103bf80066004000f04288005cc8bf000040e90051
:103c08005ce8b7005cc8bf000004e00003003a00ad
:103c180040002000d0428800020037001000200039
:103c2800d04288000080fa00000006000200fa0076
:103c3800000f78000642a800004380002000900092
:103c48000000e000030032000043800020009000e4
:103c58001e0878005a28ef000080fa0000000600cd
:103c68000800fa00000f7800214798002207980002
:103c78003307980020852000200090006100600034
:103c88000000e0000a003a00ae0190002e419000ca
:103c98009e007800e08e2000780007003e0190002a
:103ca800e18e200010c0b3001f000700030037009a
:103cb8003e0090008000eb00010878000080fa00c8
:103cc800000006000800fa00000f7800214798005d
:103cd80022079800330798002085200020009000d4
:103ce800610060000000e0000a003a00ae019000a8
:103cf8002e4190009e007800808e2000470007002b
:103d08003e019000818e200010c0b300060007001d
:103d1800030037003e0090008000eb0001087800a7
:103d28000080fa00000006000600fa00004f780044
:103d38001107980022079800208520002000900095
:103d4800610060000000e0002f003a002e009000a3
:103d5800110020000108780020852000100078005c
:103d68009e00900011009800208520001000780027
:103d78001e4878002085200010007800ae009000d2
:103d8800210098002085200010007800e6004000ff
:103d98002085200001087800208520001000780088
:103da80080007800808e2000808f500003003a0049
:103db80020852000218e2000010878002085200021
:103dc800a00090000110a10021009800208520008b
:103dd800900090002085200010007800808f50000f
:103de80004003a0020852000a00090000100a000f7
:103df80021009800d04280000000e00005003a0051
:103e08008620a800030037002e0090008000eb00f9
:103e1800010878000080fa00000006000800fa0097
:103e2800000f780011079800424798003307980060
:103e38003e00900000004000800078001e007800de
:103e4800010878001e0078001000780080007800d3
:103e58000100a0001e007800010878001e0078000c
:103e6800ce409000214098001e0078009e009000ef
:103e7800210098000080fa00000006000800fa00ff
:103e8800000f780011079800424798003307980000
:103e98003e00900000004000800078001e0078007e
:103ea800010878001e007800ce409000214098005c
:103eb8001e0078009e009000210098000080fa0003
:103ec800000006000000fa00208520002000900075
:103ed8006200600000f0a7000000ea000000ea00ad
:103ee8004f00de00004078000080fa000000060065
:103ef8000000fa002085200020009000610060008a
:103f080000f0a7000000ea000000ea004f00de0011
:103f1800004078000080fa00000006000000fa0067
:103f2800ffff37000000fa00ffff37001600fa0015
:103f3800881f78006000b8006011b800300798004a
:103f48004107980052079800630798006000b8007e
:103f58006011b80070079800010f9800120f9800c0
:103f6800230f980004402100051020000400be0023
:103f7800cc010700008fbe0050052000a10a2000d8
:103f8800370107001e00be005a010700404798008d
:103f98004e4090000004a2000004e000010032003e
:103fa800deff0700302322001101200030079800af
:103fb80041079800605625004104200050079800ea
:103fc800610798003e009000ce0090000001be00fe
:103fd8001e00be005a010700404798004e4090005e
:103fe8000084fb005e009000ee009000220020009c
:103ff800030020003e024100ae8249000001be00dd
:104008000400be004e0107000080fb0000006400b1
:1040180000f0a7000000ea000000ea004f00de0000
:10402800404798004e4090000004a2000004e000c1
:1040380001003200b9ff07000e0107001e00be0094
:104048002001070070079800010f98002200200047
:10405800030020003e004100ae804900190107001e
:10406800100f9800210f98003e019000ce0190009b
:104078007e0090008e089000800f5100818f5900bb
:1040880007003a005e019000ee0190001e089000c3
:10409800ae089000800f5100818f59000100320056
:1040a800a0ff07004f0478000080fa000000060017
:1040b8000e00fa00004021000110200079010700dd
:1040c800200798003107980050052000a10a200019
:1040d800e30007002e009000be00900005010700d5
:1040e800004f98000e4890000004a2000004e00071
:1040f8000100320089ff07006000b800008fbe0091
:10410800110037002e009000be0090003e014000d4
:10411800ae8148000200be001e01be000801070073
:10412800004f98000e4890000004a2000004e00030
:104138000100320079ff0700220020000300200060
:104148001e0f41005e974900f03f2000010020004b
:104158001e01be00800f5100818f5900e9ff360013
:10416800c40007006000b800008fbe0012003700ce
:104178002e009000be0090003e014000ae81480035
:104188000200be00cf0007005007980061079800a2
:104198005e009000ee009000be0f5000ae8f5800f9
:1041a800010032005fff070022002000030020000a
:1041b8001e0f41005e974900f03f200001002000db
:1041c8001e01be00800f5100818f5900e8ff3600a4
:1041d8000080fa00000006000000fa0053ff070004
:1041e800b3ff07000080fa00000006000000fa0094
:1041f8000002200010128800100020002012880001
:10420800c0002000001288000080fa0000000600ac
:104218000400fa00000f7800110798000000000061
:1042280000128000620060000000e000fcff3a001d
:104238001e007800104078000080fb0040128800c3
:1042480000000000011280000002200000806000d1
:104258000000e000fbff3a00401280008040780038
:104268001e009000014878000080fa000000060057
:104278001800fa00100f9800210f9800320f9800cc
:104288000000eb00000f78000000eb00100798001a
:104298000000eb00700798000000eb00000f98008a
:1042a80010002000600798001e0890000000e00041
:1042b80005003a000000eb00500798007000470026
:1042c8002007980004003700ee009000510798007e
:1042d8009e089000210798003e0890000000e0002a
:1042e80005003a000000eb00400798006e00470008
:1042f8003007980005003700ee009000410798004d
:10430800be089000310798000000000000128000ed
:10431800620060000000e000fcff3a001d0037006a
:1043280000128000620060000000e00009003a000e
:104338002e009000104078000080fb00401288009a
:10434800ae0090005e0090000080400020079800ba
:104358001e0fe800011280000002200000806000ab
:104368000000e0000b003a00401280008040780016
:104378003e00900001487800be0090004e0090007a
:1043880000804000300798001e0090000000e80000
:10439800100798002e0890009e007800808f50002b
:1043a800dfff3900100037000112800000022000f2
:1043b800008060000000e0000b003a00401280001e
:1043c800804078003e00900001487800be009000d0
:1043d8004e00900000804000300798001e009000ba
:1043e8000000e800100798009e0090002e0890003a
:1043f800808f5000ecff39001e0078000080fa0022
:10440800000006000400fa00204798000e80e8002b
:104418008e0078007eff07001e4078000080fa00ba
:10442800000006000600fa00000f78001107980047
:10443800220798002e0190009e0090001e00780030
:104448008bff07000080fa00000006000000fa0059
:0c445800001280000080fa000000060046
:020000040000fa
:104464000000fe00428f2000001978000109780046
:10447400000006000000fe000000eb008000eb00de
:10448400f8ff07006627ef00000006000000fe00aa
:10449400801f7800811f7800418f20000600fc00f7
:1044a40031007800303b880011007800303b8800f0
:1044b40061e7a8000000000000000000cf007800c1
:1044c4004f00780000000600a2028000a1028800cc
:1044d4009080ba001000ba00a20288000000060012
:1044e400a2028000a10288001000ba00a202880083
:1044f400000006000000fe0061e7af00feff370089
:10450400f23f2000000161000c003a002204240064
:10451400023b8800a2028000a10288000008bb00c0
:104524004a2202000000000061e7af00feff3700ee
:10453400a20288001000200061a7af000000200044
:104544000000060061e7af00feff37000000a7008f
:104554000d003700a4028000a1028800310024006d
:10456400013b88000208bb000388bb004a2202000a
:104574000000000061e7af00feff3700a4028800de
:104584001000200061a7af0000002000000006001a
:1045940061e7af00feff37000000a7000e00370000
:1045a40033002400033b8800a3028000a10288009a
:1045b4000208bb00f20f20000288bb004a2202005e
:1045c4000000000061e7af00feff3700a30288008f
:1045d4001000200061a7af000000200000000600ca
:1045e40061e7af00feff3700f30720008081610020
:1045f40010003a0013002400033b8800a30280004b
:10460400a1028800040420003208bb003298bb00d9
:104614001400b100fcff3a004a220200000000002e
:1046240061e7af00feff3700a302880010002000fe
:1046340061a7af00000020000000060061e7af00a2
:10464400feff3700f30720008081610011003a006b
:1046540013002400033b8800a3028000a102880009
:1046640004042000f10f20003208bb000198bb00b5
:104674001400b100fcff3a004a22020000000000ce
:1046840061e7af00feff3700a3028800100020009e
:1046940061a7af000000200000000600f23f2000e8
:1046a400000061000000060002c02f00000061004d
:0c46b400f2ff2f008100610000000600f2
:020000040000fa
:1046c0000000fa0060002000800c8800c00020007c
:1046d000900c88009421ef0000002c00b00c8800a2
:1046e000800c800000407800674060000080fb0084
:1046f000b04488008440a9009440a8000080fa00db
:10470000000006000000fa000080fa000000060029
:104710000000fa00b044800000407800674060006c
:104720000080fb0067006000820c800081ff2f008a
:104730008100610001007000800c88000080fa0098
:10474000000006000000fa00810c800080ff2f00ae
:1047500000806000800c88000080fa0000000600e5
:104760000200fa00000f78009e007800a10c88007b
:104770000080fa00000006000200fa00000f780036
:104780009e007800b10c88000080fa00000006004e
:104790000000fa00200480004200de00614060005a
:1047a0000080fb0000f0a7000000ea000000ea0023
:1047b0004f00de00004078000080fa000000060094
:1047c0000400fa00100798001e009000e10f50004e
:1047d0000f003200e10f500003003900e20f5000db
:1047e000150032001e003700800c80004400de00ff
:1047f000614060000080fb0000f0a7000000ea00bc
:104800000000ea004f00de00004f7800140037007f
:10481000800c80004500de00614060000080fb00ed
:1048200000f0a7000000ea000000ea004f00de00f0
:10483000004f78000a003700800c80004600de0040
:10484000614060000080fb0000f0a7000000ea006b
:104850000000ea004f00de00004f7800000000007a
:104860001e4078000080fa00000006000200fa00f6
:10487000000f78001e007800e10f500007003200a2
:10488000e10f500003003900e20f50000500320034
:10489000060037009081a9000400370090a1a9000c
:1048a0000200370090c1a900000000000080fa005b
:1048b000000006000000fa0092c1a8000080fa0083
:1048c000000006000000fa00900c80004600de00a8
:1048d000614060000080fb0000f0a7000000ea00db
:1048e0000000ea004f00de00004078000080fa007f
:1048f000000006000000fa0092c1a9000080fa0042
:10490000000006000000fa0060002000d00c8800c3
:10491000c0002000e00c88009e21ef0000002c0069
:10492000000d8800d00c80000040780067406000d7
:104930000080fb00d044880084c0a90094c0a80077
:104940000080fa00000006000000fa000080fa0073
:10495000000006000000fa00d0448000004078000b
:10496000674060000080fb0067006000d20c8000a0
:1049700081ff2f008100610001007000d00c8800d1
:104980000080fa00000006000000fa00d10c800050
:1049900080ff2f0000806000d00c88000080fa00ab
:1049a000000006000200fa00000f78009e00780068
:1049b000f10c88000080fa00000006000200fa00f6
:1049c000000f78009e007800010d88000080fa003a
:1049d000000006000000fa00200480004600de000f
:1049e000614060000080fb0000f0a7000000ea00ca
:1049f0000000ea004f00de00004078000080fa006e
:104a0000000006000400fa00100798001e00900045
:104a1000e10f50000f003200e10f50000300390099
:104a2000e20f5000150032001e003700d00c80004d
:104a30004400de00614060000080fb0000f0a70041
:104a40000000ea000000ea004f00de00004f78009e
:104a500014003700d00c80004500de00614060008b
:104a60000080fb0000f0a7000000ea000000ea0060
:104a70004f00de00004f78000a003700d00c8000a5
:104a80004600de00614060000080fb0000f0a700ef
:104a90000000ea000000ea004f00de00004f78004e
:104aa000000000001e4078000080fa0000000600b0
:104ab0000200fa00000f78001e007800e10f50009d
:104ac00007003200e10f500003003900e20f5000f0
:104ad00005003200060037009a81a9000400370063
:104ae0009aa1a900020037009ac1a90000000000a5
:104af0000080fa00000006000000fa009cc1a80037
:104b00000080fa00000006000000fa00e00c8000bf
:104b10004600de00614060000080fb0000f0a7005e
:104b20000000ea000000ea004f00de0000407800cc
:104b30000080fa00000006000000fa009cc1a900f5
:104b40000080fa00000006000000fa000021ef00db
:104b5000f0e12400100888000004280020088800e4
:104b6000804480000000e00002003a00c05f2200a4
:104b7000240007008460a9009460a800808f2000b2
:104b80008040eb00014878000080fa000000060039
:104b90000200fa00000f78009e00780011088800db
:104ba000808f20008040eb00014878000080fa00f0
:104bb000000006000000fa00100880000080fa00e3
:104bc000000006000200fa00000f78009e00780046
:104bd00001088800808f20008040eb0001487800a9
:104be0000080fa00000006000000fa0000088000c3
:104bf0000080fa00000006000000fa000080fa00c1
:104c0000000006000200fa00000f78009460a9007e
:104c10009e007800814488009460a8000080fa001b
:104c2000000006000000fa00808f20008040eb00aa
:104c3000014878009460a80005e1a8000080fa000f
:104c4000000006000000fa0005e1a9009460a90038
:104c50000080fa00000006000200fa00808f2000a9
:104c6000104f78001e4078000004e000030032007e
:104c7000808f20008040eb00014878001e407800c3
:104c80000080fa00000006000000fa00908f20006b
:104c9000104078000080fb000080fa000000060051
:104ca0000000fa00908f20008040eb00014878005f
:104cb0000080fa00000006000000fa000a21ef0060
:104cc00040e821007008880000072800900888004c
:104cd000904480000000e00002003a00406b220097
:104ce000240007008500a9009500a800a08f2000df
:104cf0008040eb00014878000080fa0000000600c8
:104d00000200fa00000f78009e0078007108880009
:104d1000a08f20008040eb00014878000080fa005e
:104d2000000006000000fa00700880000080fa0011
:104d3000000006000200fa00000f78009e007800d4
:104d400051088800a08f20008040eb0001487800c7
:104d50000080fa00000006000000fa005008800001
:104d60000080fa00000006000000fa000080fa004f
:104d7000000006000200fa00000f78009500a9006c
:104d80009e007800914488009500a8000080fa00f9
:104d9000000006000000fa00a08f20008040eb0019
:104da000014878009500a80013e1a8000080fa00ef
:104db000000006000000fa0013e1a9009500a90018
:104dc0000080fa00000006000200fa00a08f200018
:104dd000104f78001e4078000004e000030032000d
:104de000a08f20008040eb00014878001e40780032
:104df0000080fa00000006000000fa00b08f2000da
:104e0000104078000080fb000080fa0000000600df
:104e10000000fa00b08f20008040eb0001487800cd
:104e20000080fa00000006000000fa000621ef00f2
:104e3000701a260060088800000528008008880095
:104e4000a04480000000e00002003a00c07622008a
:104e50002400070084e0a90094e0a800c08f20008f
:104e60008040eb00014878000080fa000000060056
:104e70000200fa00000f78009e00780061088800a8
:104e8000c08f20008040eb00014878000080fa00cd
:104e9000000006000000fa00600880000080fa00b0
:104ea000000006000200fa00000f78009e00780063
:104eb00031088800c08f20008040eb000148780056
:104ec0000080fa00000006000000fa0030088000b0
:104ed0000080fa00000006000000fa000080fa00de
:104ee000000006000200fa00000f780094e0a9001c
:104ef0009e007800a144880094e0a8000080fa0099
:104f0000000006000000fa00c08f20008040eb0087
:104f10000148780094e0a80011e1a8000080fa00a0
:104f2000000006000000fa0011e1a90094e0a900c9
:104f30000080fa00000006000200fa00c08f200086
:104f4000104f78001e4078000004e000030032009b
:104f5000c08f20008040eb00014878001e407800a0
:104f60000080fa00000006000000fa00d08f200048
:104f7000104078000080fb000080fa00000006006e
:104f80000000fa00d08f20008040eb00014878003c
:104f90000080fa00000006000000fa00c422ef00c2
:104fa000cc22ef00d422ef00dc22ef00e422ef005d
:104fb000ec22ef0000202000a0178800f06e2c00eb
:104fc000001688000080eb0040168800a000210039
:104fd0008016880070ef2f00c0168800f031200086
:104fe00000178800e822ef00f010230080178800e7
:104ff0005620ef005820ef005a20ef005c20ef0011
:105000005e20ef006020ef006e20ef007020ef00c8
:105010007220ef007420ef007620ef007820ef0080
:10502000c622ef00ce22ef00d622ef00de22ef00f4
:10503000e622ef00ee22ef00f622ef00e024ef0080
:10504000c03f200010278800e424ef00e624ef0092
:105050000020200040278800ec24ef00113a800057
:10506000f00b20000081600060042000710520002a
:1050700023742000804978008149780082497800b3
:10508000a1368000f00f2c008080600000302100ed
:1050900001007000a0368800d1368000f00f2c008f
:1050a000808060000030200001007000d036880051
:1050b0002135800000fc2f00008060003001b3002b
:1050c000203588001136800000fc2f000080600031
:1050d0002001b30010368800103a800000017800eb
:1050e0000260a000600420007105200023742000ed
:1050f0008049780081497800824978000080fa0070
:10510000000006000000fa0030002000000a8800bd
:10511000d0002000100a8800000a800000407800bb
:10512000674060000080fb00e04488000080fa00d7
:10513000000006000000fa000080fa0000000600ef
:105140000000fa0020048000620060000000e0001f
:1051500002003200f7ff07008420a9000080fa0057
:10516000000006000000fa00e044800000407800e3
:10517000674060000080fb0067006000020a80005a
:1051800081ff2f008100610001007000000a88008b
:105190000080fa00000006000000fa00010a80000a
:1051a00080ff2f0000806000000a88000080fa0065
:1051b000000006000000fa00200a80000080fa00cb
:1051c000000006000000fa0042c1a8000080fa00ba
:1051d000000006000000fa00100a80004600de0011
:1051e000614060000080fb0000f0a7000000ea00c2
:1051f0000000ea004f00de00004078000080fa0066
:10520000000006000000fa0042c1a9000080fa0078
:10521000000006000000fa00000a80004400de00e2
:10522000614060000080fb0000f0a7000000ea0081
:105230000000ea004f00de00004078000080fa0025
:10524000000006000000fa00000a8000680060000c
:1052500000f0a7000000ea000000e9004f00de00b7
:0c526000004078000080fa00000006000a
:020000040000fa
:10526c00f40800000400000082000000ffffff00b3
:10527c00ff0000009e0800002000000080000000dd
:10528c008e0800000200000082000000ffff0000fa
:10529c008a0800000400000080000000f8080000ec
:1052ac0002000000800000009008000002000000d6
:1052bc0080000000fa0800000200000080000000de
:1052cc00920800000200000080000000fc080000b2
:1052dc0002000000800000009408000002000000a2
:1052ec008000000096080000020000008000000012
:1052fc00980800000200000080000000be080000ba
:10530c0012000000800000007c0800000e0000006d
:10531c00800000009a0800000200000080000000dd
:10532c009c0800000200000080000000d008000073
:10533c0012000000800000003a0800001800000075
:10534c0080000000e2080000120000008000000055
:10535c005208000018000000800000000008000047
:10536c003a000000800000006a08000012000000f3
:10537c008200000001006400009600005a009600b4
:10538c0000010000d0075a00005a00000000000085
:020000040000fa
:10539c000000fa0040052800001a88008043200015
:1053ac00101a88004423ef004823ef0000f2270076
:1053bc00701a8800403f2000801a88005223ef00aa
:1053cc005423ef005623ef005823ef006023ef0027
:1053dc006223ef006423ef00de24ef00e09f220045
:1053ec000600070095a0a8000080fa000000060047
:1053fc000000fa000080fa00000006000200fa002b
:10540c00000f78001e007800c04488000080fa006d
:10541c00000006000000fa004023a8000080fa00fb
:10542c00000006000000fa004023a9000080fa00ea
:10543c00000006000800fa0030079800101a8000df
:10544c004200de007f4060000080fb0020079800d7
:10545c0000302000100798000000eb00000f7800cf
:10546c000b0037001e00780000004000be009000ca
:10547c00008040009e0090009100780001087800a8
:10548c001e0090000080e800100798001e0fe80036
:10549c009e0078002e009000808f5000f1ff3600a7
:1054ac001e0078000080fa00000006000000fa00e0
:1054bc0021068000f0f82f00008060000040a00062
:1054cc00200688005105800080ff2f0000806000be
:1054dc000000a0005005880041058000f0ff280066
:1054ec000080600000c0a0004005880051058000cd
:1054fc00f0f82f00008060000040a00050058800ec
:10550c0061058000f0f82f00008060000040a000d2
:10551c00600588006105800080ff2f00008060001e
:10552c000000a00060058800e1058000f08f2f00ce
:10553c00008060000080a000e0058800e10580008c
:10554c00f0f82f00008060000040a000e00588000b
:10555c0021058000f08f2f00008060000080a000eb
:10556c00200588004105800080ff2f00008060002e
:10557c000000a0004005880031058000f0ff2800e5
:10558c000080600000c0a00030058800210580006c
:10559c00f0ff28000080600000c0a00020058800fb
:1055ac0031058000f08f2f00008060000080a0008b
:0c55bc00300588000080fa0000000600a6
:020000040000fa
:1055c8000000fa0000102300203a88004827ef0066
:1055d8004e27ef007027ef007227ef007427ef00c7
:1055e8007627ef007a27ef007c27ef007200200073
:1055f80080072000a109200033742000804978002a
:1056080081497800824978000001eb00600420009d
:1056180071052000237420008049780081497800b2
:10562800824978000080fa00000006000000fa00b5
:1056380057fe0700e2ff07009dff07006ef6070010
:10564800eafa07001cfc07004af30700f4fd07000c
:1056580043f907004fff070095fd0700a7fc070067
:10566800a6fe070089ef070035fd07000080fa0055
:10567800000006000200fa00000f78009e00780083
:10568800714488000000fe000080fa000000060057
:105698000000fa00e089200080077800608b200075
:0c56a800000188000080fa0000000600ed
:020000040000fa
:1056b400f03fb1000180b10006003500ee0309009f
:1056c40000000000403fb1000180b100fbff3d003d
:1056d4001000b000203fb000020035000080090037
:0856e4000000000000000600b8
:020000040000fa
:1056ec00809fbe00ec805700310078005044880049
:1056fc00110078008ce8b7004f00be0000000600d7
:020000040000fa
:020000040002f8
:04aff000ffff00005f
:020000040000fa
:020000040002f8
:04aff400fffe00005c
:020000040000fa
:020000040002f8
:04aff8009f7f000037
:020000040000fa
:020000040002f8
:04affc00803f000092
:00000001FF
